{
  "contractName": "AgentGroup",
  "abi": [
    {
      "constant": true,
      "inputs": [
        {
          "name": "",
          "type": "uint256"
        }
      ],
      "name": "agents",
      "outputs": [
        {
          "name": "",
          "type": "address"
        }
      ],
      "payable": false,
      "type": "function"
    },
    {
      "inputs": [],
      "payable": false,
      "type": "constructor"
    },
    {
      "constant": false,
      "inputs": [
        {
          "name": "addr",
          "type": "address"
        }
      ],
      "name": "addAgent",
      "outputs": [],
      "payable": false,
      "type": "function"
    },
    {
      "constant": false,
      "inputs": [
        {
          "name": "addr",
          "type": "address"
        }
      ],
      "name": "removeAgent",
      "outputs": [],
      "payable": false,
      "type": "function"
    },
    {
      "constant": true,
      "inputs": [],
      "name": "getNumAgents",
      "outputs": [
        {
          "name": "",
          "type": "uint256"
        }
      ],
      "payable": false,
      "type": "function"
    }
  ],
  "bytecode": "0x6060604052341561000f57600080fd5b5b60008054806001018281610024919061007a565b916000526020600020900160005b33909190916101000a81548173ffffffffffffffffffffffffffffffffffffffff021916908373ffffffffffffffffffffffffffffffffffffffff160217905550505b6100cb565b8154818355818115116100a1578183600052602060002091820191016100a091906100a6565b5b505050565b6100c891905b808211156100c45760008160009055506001016100ac565b5090565b90565b6105c4806100da6000396000f30060606040526000357c0100000000000000000000000000000000000000000000000000000000900463ffffffff168063513856c81461005f57806384e79842146100c257806397a6278e146100fb578063dc79264614610134575b600080fd5b341561006a57600080fd5b610080600480803590602001909190505061015d565b604051808273ffffffffffffffffffffffffffffffffffffffff1673ffffffffffffffffffffffffffffffffffffffff16815260200191505060405180910390f35b34156100cd57600080fd5b6100f9600480803573ffffffffffffffffffffffffffffffffffffffff1690602001909190505061019d565b005b341561010657600080fd5b610132600480803573ffffffffffffffffffffffffffffffffffffffff169060200190919050506102af565b005b341561013f57600080fd5b61014761050e565b6040518082815260200191505060405180910390f35b60008181548110151561016c57fe5b906000526020600020900160005b915054906101000a900473ffffffffffffffffffffffffffffffffffffffff1681565b600080600090505b600080549050811015610238576000818154811015156101c157fe5b906000526020600020900160005b9054906101000a900473ffffffffffffffffffffffffffffffffffffffff1673ffffffffffffffffffffffffffffffffffffffff163373ffffffffffffffffffffffffffffffffffffffff16141561022a5760019150610238565b5b80806001019150506101a5565b81151561024457600080fd5b60008054806001018281610258919061051b565b916000526020600020900160005b85909190916101000a81548173ffffffffffffffffffffffffffffffffffffffff021916908373ffffffffffffffffffffffffffffffffffffffff160217905550505b5b505050565b600080600080600090505b60008054905081101561034d576000818154811015156102d657fe5b906000526020600020900160005b9054906101000a900473ffffffffffffffffffffffffffffffffffffffff1673ffffffffffffffffffffffffffffffffffffffff163373ffffffffffffffffffffffffffffffffffffffff16141561033f576001915061034d565b5b80806001019150506102ba565b81151561035957600080fd5b60009350600092505b60008054905083101561049057831561040e5760008381548110151561038457fe5b906000526020600020900160005b9054906101000a900473ffffffffffffffffffffffffffffffffffffffff166000600185038154811015156103c357fe5b906000526020600020900160005b6101000a81548173ffffffffffffffffffffffffffffffffffffffff021916908373ffffffffffffffffffffffffffffffffffffffff1602179055505b8473ffffffffffffffffffffffffffffffffffffffff1660008481548110151561043457fe5b906000526020600020900160005b9054906101000a900473ffffffffffffffffffffffffffffffffffffffff1673ffffffffffffffffffffffffffffffffffffffff16141561048257600193505b5b8280600101935050610362565b60006001600080549050038154811015156104a757fe5b906000526020600020900160005b6101000a81549073ffffffffffffffffffffffffffffffffffffffff021916905560016000818180549050039150816104ee9190610547565b5060006104f961050e565b11151561050557600080fd5b5b5b5050505050565b6000808054905090505b90565b815481835581811511610542578183600052602060002091820191016105419190610573565b5b505050565b81548183558181151161056e5781836000526020600020918201910161056d9190610573565b5b505050565b61059591905b80821115610591576000816000905550600101610579565b5090565b905600a165627a7a72305820414647c633ee551732733631fb1054bf3e017da8305402024b0cde6864f705340029",
  "source": "pragma solidity ^0.4.15;\n//Ignore\n//Represents a set of agents who represent themself as one\ncontract AgentGroup {\n  address[] public agents;\n\n  modifier isOwner() {\n    bool enable;\n    for(uint i = 0; i < agents.length; i++) {\n      if(msg.sender == agents[i]) {\n        enable = true;\n        break;\n      }\n    }\n    if(!enable) revert();\n    _;\n  }\n\n  function AgentGroup() public {\n    agents.push(msg.sender);\n  }\n\n  function addAgent(address addr) public isOwner {\n    agents.push(addr);\n  }\n\n  function removeAgent(address addr) public isOwner {\n    bool overwrite = false;\n    for(uint i = 0; i < agents.length; i++) {\n      if(overwrite) {\n        agents[i - 1] = agents[i];\n      }\n      if(agents[i] == addr) {\n        overwrite = true;\n      }\n    }\n    delete(agents[agents.length-1]);\n    agents.length -= 1;\n    require(getNumAgents() > 0);\n  }\n\n  function getNumAgents() public constant returns (uint) {\n    return agents.length;\n  }\n}\n",
  "sourcePath": "/Users/zhenliang/Documents/23spring/bcc/truffle/contracts/AgentGroup.sol",
  "compiler": {
    "name": "solc",
    "version": "0.4.15+commit.bbb8e64f.Emscripten.clang"
  },
  "schemaVersion": "3.4.13",
  "updatedAt": "2023-05-08T17:56:25.626Z",
  "devdoc": {
    "methods": {}
  },
  "userdoc": {
    "methods": {}
  }
}