{
  "contractName": "Agent",
  "abi": [
    {
      "constant": true,
      "inputs": [
        {
          "name": "",
          "type": "uint256"
        }
      ],
      "name": "custodianEnabled",
      "outputs": [
        {
          "name": "",
          "type": "bool"
        }
      ],
      "payable": false,
      "type": "function"
    },
    {
      "constant": true,
      "inputs": [
        {
          "name": "",
          "type": "uint256"
        }
      ],
      "name": "custodians",
      "outputs": [
        {
          "name": "",
          "type": "address"
        }
      ],
      "payable": false,
      "type": "function"
    },
    {
      "constant": true,
      "inputs": [
        {
          "name": "",
          "type": "uint256"
        }
      ],
      "name": "relationships",
      "outputs": [
        {
          "name": "",
          "type": "address"
        }
      ],
      "payable": false,
      "type": "function"
    },
    {
      "constant": true,
      "inputs": [],
      "name": "agentEnabled",
      "outputs": [
        {
          "name": "",
          "type": "bool"
        }
      ],
      "payable": false,
      "type": "function"
    },
    {
      "constant": true,
      "inputs": [],
      "name": "agent",
      "outputs": [
        {
          "name": "",
          "type": "address"
        }
      ],
      "payable": false,
      "type": "function"
    },
    {
      "inputs": [],
      "payable": false,
      "type": "constructor"
    },
    {
      "constant": false,
      "inputs": [
        {
          "name": "addr",
          "type": "address"
        }
      ],
      "name": "setAgent",
      "outputs": [],
      "payable": false,
      "type": "function"
    },
    {
      "constant": false,
      "inputs": [
        {
          "name": "enable",
          "type": "bool"
        }
      ],
      "name": "enableAgent",
      "outputs": [],
      "payable": false,
      "type": "function"
    },
    {
      "constant": false,
      "inputs": [
        {
          "name": "r",
          "type": "address"
        }
      ],
      "name": "addRelationship",
      "outputs": [],
      "payable": false,
      "type": "function"
    },
    {
      "constant": true,
      "inputs": [],
      "name": "getNumRelationships",
      "outputs": [
        {
          "name": "",
          "type": "uint256"
        }
      ],
      "payable": false,
      "type": "function"
    },
    {
      "constant": true,
      "inputs": [],
      "name": "getNumEnabledOwners",
      "outputs": [
        {
          "name": "",
          "type": "uint256"
        }
      ],
      "payable": false,
      "type": "function"
    },
    {
      "constant": true,
      "inputs": [],
      "name": "getNumCustodians",
      "outputs": [
        {
          "name": "",
          "type": "uint256"
        }
      ],
      "payable": false,
      "type": "function"
    }
  ],
  "bytecode": "0x6060604052341561000f57600080fd5b5b336000806101000a81548173ffffffffffffffffffffffffffffffffffffffff021916908373ffffffffffffffffffffffffffffffffffffffff1602179055506001600060146101000a81548160ff0219169083151502179055505b5b610a358061007c6000396000f300606060405236156100ad576000357c0100000000000000000000000000000000000000000000000000000000900463ffffffff168063108fd0cc146100b25780632299bda6146100ed5780632788aa711461015057806379bda9371461017557806394aa2718146101ae57806399d29e7114610211578063bcf685ed1461023e578063c23a0d2814610277578063e968177e146102a0578063f5ff5c76146102c9578063faea7b2c1461031e575b600080fd5b34156100bd57600080fd5b6100d36004808035906020019091905050610347565b604051808215151515815260200191505060405180910390f35b34156100f857600080fd5b61010e600480803590602001909190505061037b565b604051808273ffffffffffffffffffffffffffffffffffffffff1673ffffffffffffffffffffffffffffffffffffffff16815260200191505060405180910390f35b341561015b57600080fd5b610173600480803515159060200190919050506103bb565b005b341561018057600080fd5b6101ac600480803573ffffffffffffffffffffffffffffffffffffffff16906020019091905050610543565b005b34156101b957600080fd5b6101cf60048080359060200190919050506106ff565b604051808273ffffffffffffffffffffffffffffffffffffffff1673ffffffffffffffffffffffffffffffffffffffff16815260200191505060405180910390f35b341561021c57600080fd5b61022461073f565b604051808215151515815260200191505060405180910390f35b341561024957600080fd5b610275600480803573ffffffffffffffffffffffffffffffffffffffff16906020019091905050610752565b005b341561028257600080fd5b61028a6108ea565b6040518082815260200191505060405180910390f35b34156102ab57600080fd5b6102b3610977565b6040518082815260200191505060405180910390f35b34156102d457600080fd5b6102dc610985565b604051808273ffffffffffffffffffffffffffffffffffffffff1673ffffffffffffffffffffffffffffffffffffffff16815260200191505060405180910390f35b341561032957600080fd5b6103316109aa565b6040518082815260200191505060405180910390f35b60028181548110151561035657fe5b90600052602060002090602091828204019190065b915054906101000a900460ff1681565b60018181548110151561038a57fe5b906000526020600020900160005b915054906101000a900473ffffffffffffffffffffffffffffffffffffffff1681565b600080600060149054906101000a900460ff16801561042657506000809054906101000a900473ffffffffffffffffffffffffffffffffffffffff1673ffffffffffffffffffffffffffffffffffffffff163373ffffffffffffffffffffffffffffffffffffffff16145b1561043057600191505b600090505b6001805490508110156105005760028181548110151561045157fe5b90600052602060002090602091828204019190065b9054906101000a900460ff1680156104e4575060018181548110151561048857fe5b906000526020600020900160005b9054906101000a900473ffffffffffffffffffffffffffffffffffffffff1673ffffffffffffffffffffffffffffffffffffffff163373ffffffffffffffffffffffffffffffffffffffff16145b156104f25760019150610500565b5b8080600101915050610435565b81151561050c57600080fd5b82600060146101000a81548160ff02191690831515021790555060006105306108ea565b11151561053c57600080fd5b5b5b505050565b600080600060149054906101000a900460ff1680156105ae57506000809054906101000a900473ffffffffffffffffffffffffffffffffffffffff1673ffffffffffffffffffffffffffffffffffffffff163373ffffffffffffffffffffffffffffffffffffffff16145b156105b857600191505b600090505b600180549050811015610688576002818154811015156105d957fe5b90600052602060002090602091828204019190065b9054906101000a900460ff16801561066c575060018181548110151561061057fe5b906000526020600020900160005b9054906101000a900473ffffffffffffffffffffffffffffffffffffffff1673ffffffffffffffffffffffffffffffffffffffff163373ffffffffffffffffffffffffffffffffffffffff16145b1561067a5760019150610688565b5b80806001019150506105bd565b81151561069457600080fd5b600380548060010182816106a891906109b8565b916000526020600020900160005b85909190916101000a81548173ffffffffffffffffffffffffffffffffffffffff021916908373ffffffffffffffffffffffffffffffffffffffff160217905550505b5b505050565b60038181548110151561070e57fe5b906000526020600020900160005b915054906101000a900473ffffffffffffffffffffffffffffffffffffffff1681565b600060149054906101000a900460ff1681565b600080600060149054906101000a900460ff1680156107bd57506000809054906101000a900473ffffffffffffffffffffffffffffffffffffffff1673ffffffffffffffffffffffffffffffffffffffff163373ffffffffffffffffffffffffffffffffffffffff16145b156107c757600191505b600090505b600180549050811015610897576002818154811015156107e857fe5b90600052602060002090602091828204019190065b9054906101000a900460ff16801561087b575060018181548110151561081f57fe5b906000526020600020900160005b9054906101000a900473ffffffffffffffffffffffffffffffffffffffff1673ffffffffffffffffffffffffffffffffffffffff163373ffffffffffffffffffffffffffffffffffffffff16145b156108895760019150610897565b5b80806001019150506107cc565b8115156108a357600080fd5b826000806101000a81548173ffffffffffffffffffffffffffffffffffffffff021916908373ffffffffffffffffffffffffffffffffffffffff1602179055505b5b505050565b6000806000809150600060149054906101000a900460ff16156109105781806001019250505b600090505b60028054905081101561096e5760028181548110151561093157fe5b90600052602060002090602091828204019190065b9054906101000a900460ff16156109605781806001019250505b5b8080600101915050610915565b8192505b505090565b600060038054905090505b90565b6000809054906101000a900473ffffffffffffffffffffffffffffffffffffffff1681565b600060018054905090505b90565b8154818355818115116109df578183600052602060002091820191016109de91906109e4565b5b505050565b610a0691905b80821115610a025760008160009055506001016109ea565b5090565b905600a165627a7a72305820ca3c33c58dd50d94c0da4e7cf33744b3912fc34fc0c65181f88628b3d8c5f82e0029",
  "source": "pragma solidity ^0.4.15;\n\n//Represents both a Patient and a Provider,\n//Patients list of relationships with different Providers\ncontract Agent {\n  address public agent;\n  bool public agentEnabled;\n  address[] public custodians; // to be deleted\n  bool[] public custodianEnabled; //to be deleted\n  address[] public relationships; //list of Relationship contract addresses\n  \n\n  modifier isOwner() {\n    bool enable;\n    if(agentEnabled && msg.sender == agent) enable = true;\n    for(uint i = 0; i < custodians.length; i++) {\n      if(custodianEnabled[i] && msg.sender == custodians[i]) {\n        enable = true;\n        break;\n      }\n    }\n    if(!enable) revert();\n    _;\n  }\n\n  function Agent() public {\n    agent = msg.sender;\n    agentEnabled = true;\n  }\n\n  function setAgent(address addr) public isOwner {\n    agent = addr;\n  }\n\n  function enableAgent(bool enable) public isOwner {\n    agentEnabled = enable;\n    require(getNumEnabledOwners() > 0);\n  }\n\n\n  function addRelationship(address r) public isOwner {\n    relationships.push(r);\n  }\n\n  function getNumRelationships() public constant returns (uint) {\n    return relationships.length;\n  }\n\n  function getNumEnabledOwners() public constant returns (uint) {\n    uint num = 0;\n    if(agentEnabled) num++;\n    for(uint i = 0; i < custodianEnabled.length; i++) {\n      if(custodianEnabled[i]) num++;\n    }\n    return num;\n  }\n\n  function getNumCustodians() public constant returns (uint) {\n    return custodians.length;\n  }\n}\n",
  "sourcePath": "/Users/zhenliang/Documents/23spring/bcc/truffle/contracts/Agent.sol",
  "compiler": {
    "name": "solc",
    "version": "0.4.15+commit.bbb8e64f.Emscripten.clang"
  },
  "schemaVersion": "3.4.13",
  "updatedAt": "2023-05-08T17:56:25.624Z",
  "devdoc": {
    "methods": {}
  },
  "userdoc": {
    "methods": {}
  }
}