{
  "contractName": "AgentRegistry",
  "abi": [
    {
      "constant": true,
      "inputs": [
        {
          "name": "",
          "type": "address"
        }
      ],
      "name": "isProspective",
      "outputs": [
        {
          "name": "",
          "type": "bool"
        }
      ],
      "payable": false,
      "type": "function"
    },
    {
      "constant": true,
      "inputs": [
        {
          "name": "",
          "type": "address"
        }
      ],
      "name": "isKicked",
      "outputs": [
        {
          "name": "",
          "type": "bool"
        }
      ],
      "payable": false,
      "type": "function"
    },
    {
      "constant": true,
      "inputs": [
        {
          "name": "",
          "type": "address"
        }
      ],
      "name": "isSigner",
      "outputs": [
        {
          "name": "",
          "type": "bool"
        }
      ],
      "payable": false,
      "type": "function"
    },
    {
      "constant": true,
      "inputs": [
        {
          "name": "",
          "type": "address"
        }
      ],
      "name": "agentFromContract",
      "outputs": [
        {
          "name": "",
          "type": "address"
        }
      ],
      "payable": false,
      "type": "function"
    },
    {
      "inputs": [
        {
          "name": "name",
          "type": "string"
        },
        {
          "name": "contractAddr",
          "type": "address"
        },
        {
          "name": "host",
          "type": "string"
        }
      ],
      "payable": false,
      "type": "constructor"
    },
    {
      "anonymous": false,
      "inputs": [
        {
          "indexed": true,
          "name": "addr",
          "type": "address"
        }
      ],
      "name": "AddSigner",
      "type": "event"
    },
    {
      "anonymous": false,
      "inputs": [
        {
          "indexed": true,
          "name": "addr",
          "type": "address"
        }
      ],
      "name": "RemoveSigner",
      "type": "event"
    },
    {
      "constant": false,
      "inputs": [
        {
          "name": "name",
          "type": "string"
        }
      ],
      "name": "setAgentName",
      "outputs": [],
      "payable": false,
      "type": "function"
    },
    {
      "constant": false,
      "inputs": [
        {
          "name": "contractAddr",
          "type": "address"
        }
      ],
      "name": "setAgentContractAddr",
      "outputs": [],
      "payable": false,
      "type": "function"
    },
    {
      "constant": false,
      "inputs": [
        {
          "name": "host",
          "type": "string"
        }
      ],
      "name": "setAgentHost",
      "outputs": [],
      "payable": false,
      "type": "function"
    },
    {
      "constant": false,
      "inputs": [
        {
          "name": "name",
          "type": "string"
        }
      ],
      "name": "propose",
      "outputs": [],
      "payable": false,
      "type": "function"
    },
    {
      "constant": false,
      "inputs": [
        {
          "name": "rip",
          "type": "address"
        }
      ],
      "name": "kick",
      "outputs": [],
      "payable": false,
      "type": "function"
    },
    {
      "constant": false,
      "inputs": [
        {
          "name": "prospective",
          "type": "address"
        }
      ],
      "name": "rescind",
      "outputs": [],
      "payable": false,
      "type": "function"
    },
    {
      "constant": false,
      "inputs": [
        {
          "name": "prospective",
          "type": "address"
        },
        {
          "name": "value",
          "type": "bool"
        }
      ],
      "name": "vote",
      "outputs": [],
      "payable": false,
      "type": "function"
    },
    {
      "constant": true,
      "inputs": [
        {
          "name": "name",
          "type": "string"
        }
      ],
      "name": "getAgentByName",
      "outputs": [
        {
          "name": "",
          "type": "address"
        }
      ],
      "payable": false,
      "type": "function"
    },
    {
      "constant": true,
      "inputs": [
        {
          "name": "addr",
          "type": "address"
        }
      ],
      "name": "getAgentName",
      "outputs": [
        {
          "name": "",
          "type": "string"
        }
      ],
      "payable": false,
      "type": "function"
    },
    {
      "constant": true,
      "inputs": [
        {
          "name": "addr",
          "type": "address"
        }
      ],
      "name": "getAgentContractAddr",
      "outputs": [
        {
          "name": "",
          "type": "address"
        }
      ],
      "payable": false,
      "type": "function"
    },
    {
      "constant": true,
      "inputs": [
        {
          "name": "addr",
          "type": "address"
        }
      ],
      "name": "getAgentHost",
      "outputs": [
        {
          "name": "",
          "type": "string"
        }
      ],
      "payable": false,
      "type": "function"
    },
    {
      "constant": true,
      "inputs": [],
      "name": "getNumSigners",
      "outputs": [
        {
          "name": "",
          "type": "uint256"
        }
      ],
      "payable": false,
      "type": "function"
    },
    {
      "constant": true,
      "inputs": [
        {
          "name": "idx",
          "type": "uint256"
        }
      ],
      "name": "getSigner",
      "outputs": [
        {
          "name": "",
          "type": "address"
        }
      ],
      "payable": false,
      "type": "function"
    },
    {
      "constant": true,
      "inputs": [
        {
          "name": "prospective",
          "type": "address"
        }
      ],
      "name": "getNumVoters",
      "outputs": [
        {
          "name": "",
          "type": "uint256"
        }
      ],
      "payable": false,
      "type": "function"
    },
    {
      "constant": true,
      "inputs": [
        {
          "name": "prospective",
          "type": "address"
        },
        {
          "name": "idx",
          "type": "uint256"
        }
      ],
      "name": "getVoter",
      "outputs": [
        {
          "name": "",
          "type": "address"
        }
      ],
      "payable": false,
      "type": "function"
    },
    {
      "constant": true,
      "inputs": [
        {
          "name": "prospective",
          "type": "address"
        },
        {
          "name": "signer",
          "type": "address"
        }
      ],
      "name": "getVoteInfo",
      "outputs": [
        {
          "name": "",
          "type": "bool"
        }
      ],
      "payable": false,
      "type": "function"
    },
    {
      "constant": true,
      "inputs": [
        {
          "name": "prospective",
          "type": "address"
        }
      ],
      "name": "getNumYayVotes",
      "outputs": [
        {
          "name": "",
          "type": "uint256"
        }
      ],
      "payable": false,
      "type": "function"
    },
    {
      "constant": true,
      "inputs": [],
      "name": "getNumProspectives",
      "outputs": [
        {
          "name": "",
          "type": "uint256"
        }
      ],
      "payable": false,
      "type": "function"
    },
    {
      "constant": true,
      "inputs": [
        {
          "name": "idx",
          "type": "uint256"
        }
      ],
      "name": "getProspective",
      "outputs": [
        {
          "name": "",
          "type": "address"
        }
      ],
      "payable": false,
      "type": "function"
    },
    {
      "constant": true,
      "inputs": [],
      "name": "getNumKicked",
      "outputs": [
        {
          "name": "",
          "type": "uint256"
        }
      ],
      "payable": false,
      "type": "function"
    },
    {
      "constant": true,
      "inputs": [
        {
          "name": "idx",
          "type": "uint256"
        }
      ],
      "name": "getKicked",
      "outputs": [
        {
          "name": "",
          "type": "address"
        }
      ],
      "payable": false,
      "type": "function"
    },
    {
      "constant": true,
      "inputs": [
        {
          "name": "prospective",
          "type": "address"
        }
      ],
      "name": "getProposer",
      "outputs": [
        {
          "name": "",
          "type": "address"
        }
      ],
      "payable": false,
      "type": "function"
    }
  ],
  "bytecode": "0x606060405234156200001057600080fd5b6040516200313538038062003135833981016040528080518201919060200180519060200190919080518201919050505b600380548060010182816200005791906200032c565b916000526020600020900160005b33909190916101000a81548173ffffffffffffffffffffffffffffffffffffffff021916908373ffffffffffffffffffffffffffffffffffffffff160217905550506060604051908101604052808481526020018373ffffffffffffffffffffffffffffffffffffffff168152602001828152506000803373ffffffffffffffffffffffffffffffffffffffff1673ffffffffffffffffffffffffffffffffffffffff1681526020019081526020016000206000820151816000019080519060200190620001359291906200035b565b5060208201518160010160006101000a81548173ffffffffffffffffffffffffffffffffffffffff021916908373ffffffffffffffffffffffffffffffffffffffff16021790555060408201518160020190805190602001906200019b9291906200035b565b50905050336001846040518082805190602001908083835b602083101515620001db57805182525b602082019150602081019050602083039250620001b3565b6001836020036101000a038019825116818451168082178552505050505050905001915050908152602001604051809103902060006101000a81548173ffffffffffffffffffffffffffffffffffffffff021916908373ffffffffffffffffffffffffffffffffffffffff16021790555033600260008473ffffffffffffffffffffffffffffffffffffffff1673ffffffffffffffffffffffffffffffffffffffff16815260200190815260200160002060006101000a81548173ffffffffffffffffffffffffffffffffffffffff021916908373ffffffffffffffffffffffffffffffffffffffff1602179055506001600460003373ffffffffffffffffffffffffffffffffffffffff1673ffffffffffffffffffffffffffffffffffffffff16815260200190815260200160002060006101000a81548160ff0219169083151502179055505b5050506200040a565b8154818355818115116200035657818360005260206000209182019101620003559190620003e2565b5b505050565b828054600181600116156101000203166002900490600052602060002090601f016020900481019282601f106200039e57805160ff1916838001178555620003cf565b82800160010185558215620003cf579182015b82811115620003ce578251825591602001919060010190620003b1565b5b509050620003de9190620003e2565b5090565b6200040791905b8082111562000403576000816000905550600101620003e9565b5090565b90565b612d1b806200041a6000396000f30060606040523615610152576000357c0100000000000000000000000000000000000000000000000000000000900463ffffffff16806309475e49146101575780630c99e4581461020a5780631758d62b1461025b5780633ffefe4e146102b85780634e2bd9ce1461031b57806351a3d71a1461035457806352dca174146103b7578063563abf65146103e05780635e91961414610409578063644c3668146104425780636a9cea53146104b25780636e5e865f146105155780637c8160a51461058e5780637df73e27146105df5780637ffe3a6514610630578063851a974c1461067d57806396c55175146106f6578063aa98df391461072f578063b0034f0f1461078c578063bd041c4d14610829578063c60623921461086d578063cbd69b4614610920578063d453f9e51461096d578063d4dc4a4b146109ef578063d947a1c814610a68578063f889af0514610a91575b600080fd5b341561016257600080fd5b61018e600480803573ffffffffffffffffffffffffffffffffffffffff16906020019091905050610aee565b6040518080602001828103825283818151815260200191508051906020019080838360005b838110156101cf5780820151818401525b6020810190506101b3565b50505050905090810190601f1680156101fc5780820380516001836020036101000a031916815260200191505b509250505060405180910390f35b341561021557600080fd5b610241600480803573ffffffffffffffffffffffffffffffffffffffff16906020019091905050610bd8565b604051808215151515815260200191505060405180910390f35b341561026657600080fd5b6102b6600480803590602001908201803590602001908080601f01602080910402602001604051908101604052809392919081815260200183838082843782019150505050505091905050610bf8565b005b34156102c357600080fd5b6102d96004808035906020019091905050610e1d565b604051808273ffffffffffffffffffffffffffffffffffffffff1673ffffffffffffffffffffffffffffffffffffffff16815260200191505060405180910390f35b341561032657600080fd5b610352600480803573ffffffffffffffffffffffffffffffffffffffff16906020019091905050610e63565b005b341561035f57600080fd5b6103756004808035906020019091905050610f09565b604051808273ffffffffffffffffffffffffffffffffffffffff1673ffffffffffffffffffffffffffffffffffffffff16815260200191505060405180910390f35b34156103c257600080fd5b6103ca610f4f565b6040518082815260200191505060405180910390f35b34156103eb57600080fd5b6103f3610f5d565b6040518082815260200191505060405180910390f35b341561041457600080fd5b610440600480803573ffffffffffffffffffffffffffffffffffffffff16906020019091905050610f6b565b005b341561044d57600080fd5b610498600480803573ffffffffffffffffffffffffffffffffffffffff1690602001909190803573ffffffffffffffffffffffffffffffffffffffff1690602001909190505061106d565b604051808215151515815260200191505060405180910390f35b34156104bd57600080fd5b6104d36004808035906020019091905050611102565b604051808273ffffffffffffffffffffffffffffffffffffffff1673ffffffffffffffffffffffffffffffffffffffff16815260200191505060405180910390f35b341561052057600080fd5b61054c600480803573ffffffffffffffffffffffffffffffffffffffff16906020019091905050611148565b604051808273ffffffffffffffffffffffffffffffffffffffff1673ffffffffffffffffffffffffffffffffffffffff16815260200191505060405180910390f35b341561059957600080fd5b6105c5600480803573ffffffffffffffffffffffffffffffffffffffff169060200190919050506111b4565b604051808215151515815260200191505060405180910390f35b34156105ea57600080fd5b610616600480803573ffffffffffffffffffffffffffffffffffffffff169060200190919050506111d4565b604051808215151515815260200191505060405180910390f35b341561063b57600080fd5b610667600480803573ffffffffffffffffffffffffffffffffffffffff169060200190919050506111f4565b6040518082815260200191505060405180910390f35b341561068857600080fd5b6106b4600480803573ffffffffffffffffffffffffffffffffffffffff16906020019091905050611241565b604051808273ffffffffffffffffffffffffffffffffffffffff1673ffffffffffffffffffffffffffffffffffffffff16815260200191505060405180910390f35b341561070157600080fd5b61072d600480803573ffffffffffffffffffffffffffffffffffffffff169060200190919050506112ab565b005b341561073a57600080fd5b61078a600480803590602001908201803590602001908080601f01602080910402602001604051908101604052809392919081815260200183838082843782019150505050505091905050611512565b005b341561079757600080fd5b6107e7600480803590602001908201803590602001908080601f0160208091040260200160405190810160405280939291908181526020018383808284378201915050505050509190505061181f565b604051808273ffffffffffffffffffffffffffffffffffffffff1673ffffffffffffffffffffffffffffffffffffffff16815260200191505060405180910390f35b341561083457600080fd5b61086b600480803573ffffffffffffffffffffffffffffffffffffffff1690602001909190803515159060200190919050506118b6565b005b341561087857600080fd5b6108a4600480803573ffffffffffffffffffffffffffffffffffffffff169060200190919050506121ed565b6040518080602001828103825283818151815260200191508051906020019080838360005b838110156108e55780820151818401525b6020810190506108c9565b50505050905090810190601f1680156109125780820380516001836020036101000a031916815260200191505b509250505060405180910390f35b341561092b57600080fd5b610957600480803573ffffffffffffffffffffffffffffffffffffffff169060200190919050506122d7565b6040518082815260200191505060405180910390f35b341561097857600080fd5b6109ad600480803573ffffffffffffffffffffffffffffffffffffffff16906020019091908035906020019091905050612321565b604051808273ffffffffffffffffffffffffffffffffffffffff1673ffffffffffffffffffffffffffffffffffffffff16815260200191505060405180910390f35b34156109fa57600080fd5b610a26600480803573ffffffffffffffffffffffffffffffffffffffff169060200190919050506123a5565b604051808273ffffffffffffffffffffffffffffffffffffffff1673ffffffffffffffffffffffffffffffffffffffff16815260200191505060405180910390f35b3415610a7357600080fd5b610a7b6123d8565b6040518082815260200191505060405180910390f35b3415610a9c57600080fd5b610aec600480803590602001908201803590602001908080601f016020809104026020016040519081016040528093929190818152602001838380828437820191505050505050919050506123e6565b005b610af6612bbc565b6000808373ffffffffffffffffffffffffffffffffffffffff1673ffffffffffffffffffffffffffffffffffffffff1681526020019081526020016000206002018054600181600116156101000203166002900480601f016020809104026020016040519081016040528092919081815260200182805460018160011615610100020316600290048015610bcb5780601f10610ba057610100808354040283529160200191610bcb565b820191906000526020600020905b815481529060010190602001808311610bae57829003601f168201915b505050505090505b919050565b600b6020528060005260406000206000915054906101000a900460ff1681565b600460003373ffffffffffffffffffffffffffffffffffffffff1673ffffffffffffffffffffffffffffffffffffffff16815260200190815260200160002060009054906101000a900460ff161515610c5057600080fd5b600073ffffffffffffffffffffffffffffffffffffffff166001826040518082805190602001908083835b602083101515610ca157805182525b602082019150602081019050602083039250610c7b565b6001836020036101000a038019825116818451168082178552505050505050905001915050908152602001604051809103902060009054906101000a900473ffffffffffffffffffffffffffffffffffffffff1673ffffffffffffffffffffffffffffffffffffffff16141515610d1757600080fd5b806000803373ffffffffffffffffffffffffffffffffffffffff1673ffffffffffffffffffffffffffffffffffffffff1681526020019081526020016000206000019080519060200190610d6c929190612bd0565b50336001826040518082805190602001908083835b602083101515610da757805182525b602082019150602081019050602083039250610d81565b6001836020036101000a038019825116818451168082178552505050505050905001915050908152602001604051809103902060006101000a81548173ffffffffffffffffffffffffffffffffffffffff021916908373ffffffffffffffffffffffffffffffffffffffff1602179055505b5b50565b6000600382815481101515610e2e57fe5b906000526020600020900160005b9054906101000a900473ffffffffffffffffffffffffffffffffffffffff1690505b919050565b3373ffffffffffffffffffffffffffffffffffffffff16600d60008373ffffffffffffffffffffffffffffffffffffffff1673ffffffffffffffffffffffffffffffffffffffff16815260200190815260200160002060009054906101000a900473ffffffffffffffffffffffffffffffffffffffff1673ffffffffffffffffffffffffffffffffffffffff16141515610efc57600080fd5b610f0581612440565b5b50565b6000600a82815481101515610f1a57fe5b906000526020600020900160005b9054906101000a900473ffffffffffffffffffffffffffffffffffffffff1690505b919050565b6000600a8054905090505b90565b600060038054905090505b90565b806000803373ffffffffffffffffffffffffffffffffffffffff1673ffffffffffffffffffffffffffffffffffffffff16815260200190815260200160002060010160006101000a81548173ffffffffffffffffffffffffffffffffffffffff021916908373ffffffffffffffffffffffffffffffffffffffff16021790555033600260008373ffffffffffffffffffffffffffffffffffffffff1673ffffffffffffffffffffffffffffffffffffffff16815260200190815260200160002060006101000a81548173ffffffffffffffffffffffffffffffffffffffff021916908373ffffffffffffffffffffffffffffffffffffffff1602179055505b50565b6000600760008473ffffffffffffffffffffffffffffffffffffffff1673ffffffffffffffffffffffffffffffffffffffff16815260200190815260200160002060008373ffffffffffffffffffffffffffffffffffffffff1673ffffffffffffffffffffffffffffffffffffffff16815260200190815260200160002060009054906101000a900460ff1690505b92915050565b600060098281548110151561111357fe5b906000526020600020900160005b9054906101000a900473ffffffffffffffffffffffffffffffffffffffff1690505b919050565b60008060008373ffffffffffffffffffffffffffffffffffffffff1673ffffffffffffffffffffffffffffffffffffffff16815260200190815260200160002060010160009054906101000a900473ffffffffffffffffffffffffffffffffffffffff1690505b919050565b600c6020528060005260406000206000915054906101000a900460ff1681565b60046020528060005260406000206000915054906101000a900460ff1681565b6000600560008373ffffffffffffffffffffffffffffffffffffffff1673ffffffffffffffffffffffffffffffffffffffff1681526020019081526020016000208054905090505b919050565b6000600d60008373ffffffffffffffffffffffffffffffffffffffff1673ffffffffffffffffffffffffffffffffffffffff16815260200190815260200160002060009054906101000a900473ffffffffffffffffffffffffffffffffffffffff1690505b919050565b600460003373ffffffffffffffffffffffffffffffffffffffff1673ffffffffffffffffffffffffffffffffffffffff16815260200190815260200160002060009054906101000a900460ff16151561130357600080fd5b600460003373ffffffffffffffffffffffffffffffffffffffff1673ffffffffffffffffffffffffffffffffffffffff16815260200190815260200160002060009054906101000a900460ff16151561135b57600080fd5b600c60008273ffffffffffffffffffffffffffffffffffffffff1673ffffffffffffffffffffffffffffffffffffffff16815260200190815260200160002060009054906101000a900460ff161515156113b457600080fd5b60026003805490501115156113c857600080fd5b600a80548060010182816113dc9190612c50565b916000526020600020900160005b83909190916101000a81548173ffffffffffffffffffffffffffffffffffffffff021916908373ffffffffffffffffffffffffffffffffffffffff160217905550506001600c60008373ffffffffffffffffffffffffffffffffffffffff1673ffffffffffffffffffffffffffffffffffffffff16815260200190815260200160002060006101000a81548160ff02191690831515021790555033600d60008373ffffffffffffffffffffffffffffffffffffffff1673ffffffffffffffffffffffffffffffffffffffff16815260200190815260200160002060006101000a81548173ffffffffffffffffffffffffffffffffffffffff021916908373ffffffffffffffffffffffffffffffffffffffff16021790555061150d8160016118b6565b5b5b50565b600460003373ffffffffffffffffffffffffffffffffffffffff1673ffffffffffffffffffffffffffffffffffffffff16815260200190815260200160002060009054906101000a900460ff1615151561156b57600080fd5b600b60003373ffffffffffffffffffffffffffffffffffffffff1673ffffffffffffffffffffffffffffffffffffffff16815260200190815260200160002060009054906101000a900460ff161515156115c457600080fd5b600980548060010182816115d89190612c50565b916000526020600020900160005b33909190916101000a81548173ffffffffffffffffffffffffffffffffffffffff021916908373ffffffffffffffffffffffffffffffffffffffff160217905550506001600b60003373ffffffffffffffffffffffffffffffffffffffff1673ffffffffffffffffffffffffffffffffffffffff16815260200190815260200160002060006101000a81548160ff02191690831515021790555033600d60003373ffffffffffffffffffffffffffffffffffffffff1673ffffffffffffffffffffffffffffffffffffffff16815260200190815260200160002060006101000a81548173ffffffffffffffffffffffffffffffffffffffff021916908373ffffffffffffffffffffffffffffffffffffffff160217905550600073ffffffffffffffffffffffffffffffffffffffff166001826040518082805190602001908083835b60208310151561174f57805182525b602082019150602081019050602083039250611729565b6001836020036101000a038019825116818451168082178552505050505050905001915050908152602001604051809103902060009054906101000a900473ffffffffffffffffffffffffffffffffffffffff1673ffffffffffffffffffffffffffffffffffffffff161415156117c557600080fd5b806000803373ffffffffffffffffffffffffffffffffffffffff1673ffffffffffffffffffffffffffffffffffffffff168152602001908152602001600020600001908051906020019061181a929190612bd0565b505b50565b60006001826040518082805190602001908083835b60208310151561185a57805182525b602082019150602081019050602083039250611834565b6001836020036101000a038019825116818451168082178552505050505050905001915050908152602001604051809103902060009054906101000a900473ffffffffffffffffffffffffffffffffffffffff1690505b919050565b600080600460003373ffffffffffffffffffffffffffffffffffffffff1673ffffffffffffffffffffffffffffffffffffffff16815260200190815260200160002060009054906101000a900460ff16151561191157600080fd5b600b60008573ffffffffffffffffffffffffffffffffffffffff1673ffffffffffffffffffffffffffffffffffffffff16815260200190815260200160002060009054906101000a900460ff16806119b25750600c60008573ffffffffffffffffffffffffffffffffffffffff1673ffffffffffffffffffffffffffffffffffffffff16815260200190815260200160002060009054906101000a900460ff165b15156119bd57600080fd5b600760008573ffffffffffffffffffffffffffffffffffffffff1673ffffffffffffffffffffffffffffffffffffffff16815260200190815260200160002060003373ffffffffffffffffffffffffffffffffffffffff1673ffffffffffffffffffffffffffffffffffffffff16815260200190815260200160002060009054906101000a900460ff168015611a51575082155b15611aa5576001600860008673ffffffffffffffffffffffffffffffffffffffff1673ffffffffffffffffffffffffffffffffffffffff168152602001908152602001600020600082825403925050819055505b600760008573ffffffffffffffffffffffffffffffffffffffff1673ffffffffffffffffffffffffffffffffffffffff16815260200190815260200160002060003373ffffffffffffffffffffffffffffffffffffffff1673ffffffffffffffffffffffffffffffffffffffff16815260200190815260200160002060009054906101000a900460ff16158015611b395750825b15611b8d576001600860008673ffffffffffffffffffffffffffffffffffffffff1673ffffffffffffffffffffffffffffffffffffffff168152602001908152602001600020600082825401925050819055505b82600760008673ffffffffffffffffffffffffffffffffffffffff1673ffffffffffffffffffffffffffffffffffffffff16815260200190815260200160002060003373ffffffffffffffffffffffffffffffffffffffff1673ffffffffffffffffffffffffffffffffffffffff16815260200190815260200160002060006101000a81548160ff021916908315150217905550600660008573ffffffffffffffffffffffffffffffffffffffff1673ffffffffffffffffffffffffffffffffffffffff16815260200190815260200160002060003373ffffffffffffffffffffffffffffffffffffffff1673ffffffffffffffffffffffffffffffffffffffff16815260200190815260200160002060009054906101000a900460ff161515611d5357600560008573ffffffffffffffffffffffffffffffffffffffff1673ffffffffffffffffffffffffffffffffffffffff1681526020019081526020016000208054806001018281611d029190612c50565b916000526020600020900160005b33909190916101000a81548173ffffffffffffffffffffffffffffffffffffffff021916908373ffffffffffffffffffffffffffffffffffffffff160217905550505b6001600660008673ffffffffffffffffffffffffffffffffffffffff1673ffffffffffffffffffffffffffffffffffffffff16815260200190815260200160002060003373ffffffffffffffffffffffffffffffffffffffff1673ffffffffffffffffffffffffffffffffffffffff16815260200190815260200160002060006101000a81548160ff021916908315150217905550821515611df4576121e6565b6002600160038054905001811515611e0857fe5b04600860008673ffffffffffffffffffffffffffffffffffffffff1673ffffffffffffffffffffffffffffffffffffffff168152602001908152602001600020541015611e54576121e6565b600c60008573ffffffffffffffffffffffffffffffffffffffff1673ffffffffffffffffffffffffffffffffffffffff16815260200190815260200160002060009054906101000a900460ff16156120dc5760009150600090505b600380549050811015611fdd578115611f5b57600381815481101515611ed157fe5b906000526020600020900160005b9054906101000a900473ffffffffffffffffffffffffffffffffffffffff16600360018303815481101515611f1057fe5b906000526020600020900160005b6101000a81548173ffffffffffffffffffffffffffffffffffffffff021916908373ffffffffffffffffffffffffffffffffffffffff1602179055505b8373ffffffffffffffffffffffffffffffffffffffff16600382815481101515611f8157fe5b906000526020600020900160005b9054906101000a900473ffffffffffffffffffffffffffffffffffffffff1673ffffffffffffffffffffffffffffffffffffffff161415611fcf57600191505b5b8080600101915050611eaf565b6003600160038054905003815481101515611ff457fe5b906000526020600020900160005b6101000a81549073ffffffffffffffffffffffffffffffffffffffff0219169055600160038181805490500391508161203b9190612c7c565b506000600460008673ffffffffffffffffffffffffffffffffffffffff1673ffffffffffffffffffffffffffffffffffffffff16815260200190815260200160002060006101000a81548160ff0219169083151502179055508373ffffffffffffffffffffffffffffffffffffffff167f1803740ef72fc16e647c10fe2d31cf61a1578081960c2e3fb7f5aa957e82f55060405160405180910390a26121dc565b600380548060010182816120f09190612c50565b916000526020600020900160005b86909190916101000a81548173ffffffffffffffffffffffffffffffffffffffff021916908373ffffffffffffffffffffffffffffffffffffffff160217905550506001600460008673ffffffffffffffffffffffffffffffffffffffff1673ffffffffffffffffffffffffffffffffffffffff16815260200190815260200160002060006101000a81548160ff0219169083151502179055508373ffffffffffffffffffffffffffffffffffffffff167f637c77a2d598a51d085d4a2413332c45a235a25ee855bf3dfcdc2c8fcf02860f60405160405180910390a25b6121e584612440565b5b5b50505050565b6121f5612bbc565b6000808373ffffffffffffffffffffffffffffffffffffffff1673ffffffffffffffffffffffffffffffffffffffff1681526020019081526020016000206000018054600181600116156101000203166002900480601f0160208091040260200160405190810160405280929190818152602001828054600181600116156101000203166002900480156122ca5780601f1061229f576101008083540402835291602001916122ca565b820191906000526020600020905b8154815290600101906020018083116122ad57829003601f168201915b505050505090505b919050565b6000600860008373ffffffffffffffffffffffffffffffffffffffff1673ffffffffffffffffffffffffffffffffffffffff1681526020019081526020016000205490505b919050565b6000600560008473ffffffffffffffffffffffffffffffffffffffff1673ffffffffffffffffffffffffffffffffffffffff1681526020019081526020016000208281548110151561236f57fe5b906000526020600020900160005b9054906101000a900473ffffffffffffffffffffffffffffffffffffffff1690505b92915050565b60026020528060005260406000206000915054906101000a900473ffffffffffffffffffffffffffffffffffffffff1681565b600060098054905090505b90565b806000803373ffffffffffffffffffffffffffffffffffffffff1673ffffffffffffffffffffffffffffffffffffffff168152602001908152602001600020600201908051906020019061243b929190612bd0565b505b50565b600080600091505b600560008473ffffffffffffffffffffffffffffffffffffffff1673ffffffffffffffffffffffffffffffffffffffff168152602001908152602001600020805490508210156126a857600760008473ffffffffffffffffffffffffffffffffffffffff1673ffffffffffffffffffffffffffffffffffffffff1681526020019081526020016000206000600560008673ffffffffffffffffffffffffffffffffffffffff1673ffffffffffffffffffffffffffffffffffffffff1681526020019081526020016000208481548110151561251f57fe5b906000526020600020900160005b9054906101000a900473ffffffffffffffffffffffffffffffffffffffff1673ffffffffffffffffffffffffffffffffffffffff1673ffffffffffffffffffffffffffffffffffffffff16815260200190815260200160002060006101000a81549060ff0219169055600660008473ffffffffffffffffffffffffffffffffffffffff1673ffffffffffffffffffffffffffffffffffffffff1681526020019081526020016000206000600560008673ffffffffffffffffffffffffffffffffffffffff1673ffffffffffffffffffffffffffffffffffffffff1681526020019081526020016000208481548110151561262357fe5b906000526020600020900160005b9054906101000a900473ffffffffffffffffffffffffffffffffffffffff1673ffffffffffffffffffffffffffffffffffffffff1673ffffffffffffffffffffffffffffffffffffffff16815260200190815260200160002060006101000a81549060ff02191690555b8180600101925050612448565b600560008473ffffffffffffffffffffffffffffffffffffffff1673ffffffffffffffffffffffffffffffffffffffff16815260200190815260200160002060006126f39190612ca8565b600d60008473ffffffffffffffffffffffffffffffffffffffff1673ffffffffffffffffffffffffffffffffffffffff16815260200190815260200160002060006101000a81549073ffffffffffffffffffffffffffffffffffffffff0219169055600860008473ffffffffffffffffffffffffffffffffffffffff1673ffffffffffffffffffffffffffffffffffffffff1681526020019081526020016000206000905560009050600b60008473ffffffffffffffffffffffffffffffffffffffff1673ffffffffffffffffffffffffffffffffffffffff16815260200190815260200160002060009054906101000a900460ff16156129d457600b60008473ffffffffffffffffffffffffffffffffffffffff1673ffffffffffffffffffffffffffffffffffffffff16815260200190815260200160002060006101000a81549060ff0219169055600091505b6009805490508210156129705780156128ee5760098281548110151561286457fe5b906000526020600020900160005b9054906101000a900473ffffffffffffffffffffffffffffffffffffffff166009600184038154811015156128a357fe5b906000526020600020900160005b6101000a81548173ffffffffffffffffffffffffffffffffffffffff021916908373ffffffffffffffffffffffffffffffffffffffff1602179055505b8273ffffffffffffffffffffffffffffffffffffffff1660098381548110151561291457fe5b906000526020600020900160005b9054906101000a900473ffffffffffffffffffffffffffffffffffffffff1673ffffffffffffffffffffffffffffffffffffffff16141561296257600190505b5b8180600101925050612842565b600960016009805490500381548110151561298757fe5b906000526020600020900160005b6101000a81549073ffffffffffffffffffffffffffffffffffffffff021916905560016009818180549050039150816129ce9190612c7c565b50612bb6565b600c60008473ffffffffffffffffffffffffffffffffffffffff1673ffffffffffffffffffffffffffffffffffffffff16815260200190815260200160002060006101000a81549060ff0219169055600091505b600a80549050821015612b56578015612ad457600a82815481101515612a4a57fe5b906000526020600020900160005b9054906101000a900473ffffffffffffffffffffffffffffffffffffffff16600a60018403815481101515612a8957fe5b906000526020600020900160005b6101000a81548173ffffffffffffffffffffffffffffffffffffffff021916908373ffffffffffffffffffffffffffffffffffffffff1602179055505b8273ffffffffffffffffffffffffffffffffffffffff16600a83815481101515612afa57fe5b906000526020600020900160005b9054906101000a900473ffffffffffffffffffffffffffffffffffffffff1673ffffffffffffffffffffffffffffffffffffffff161415612b4857600190505b5b8180600101925050612a28565b600a6001600a8054905003815481101515612b6d57fe5b906000526020600020900160005b6101000a81549073ffffffffffffffffffffffffffffffffffffffff02191690556001600a81818054905003915081612bb49190612c7c565b505b5b505050565b602060405190810160405280600081525090565b828054600181600116156101000203166002900490600052602060002090601f016020900481019282601f10612c1157805160ff1916838001178555612c3f565b82800160010185558215612c3f579182015b82811115612c3e578251825591602001919060010190612c23565b5b509050612c4c9190612cca565b5090565b815481835581811511612c7757818360005260206000209182019101612c769190612cca565b5b505050565b815481835581811511612ca357818360005260206000209182019101612ca29190612cca565b5b505050565b5080546000825590600052602060002090810190612cc69190612cca565b5b50565b612cec91905b80821115612ce8576000816000905550600101612cd0565b5090565b905600a165627a7a72305820d923ea28faa1b8f808248e0206d10d85994472e492a6147db1cb41ec709f3cf60029",
  "source": "pragma solidity ^0.4.15;\n\n//Contains\ncontract AgentRegistry {\n  struct Agent {\n    string name;\n    address contractAddr;\n    string host;\n  }\n  mapping(address => Agent) agentInfo;\n  mapping(string => address) agentByName;\n  mapping(address => address) public agentFromContract;\n\n  //the current set of signers\n  address[] signers;\n  mapping(address => bool) public isSigner;\n  //keeps track of votes per signer and the yay count\n  mapping( address => address[]) voters;\n  mapping( address => mapping(address => bool)) hasVoted;\n  mapping( address => mapping(address => bool)) voteInfo;\n  mapping( address => uint) yayVotes;\n  //prospectives is a list of all prospective waiting to be voted\n  address[] prospectives;\n  //kicked is a list of all signers on the chopping block to be voted out\n  address[] kicked;\n  mapping(address => bool) public  isProspective;\n  mapping(address => bool) public  isKicked;\n  //keeps track of who's idea each proposal was\n  mapping(address => address) proposer;\n\n  event AddSigner(address indexed addr);\n  event RemoveSigner(address indexed addr);\n\n  modifier onlySigners() {\n    require(isSigner[msg.sender]);\n    _;\n  }\n\n  function AgentRegistry(string name, address contractAddr, string host) public {\n    signers.push(msg.sender);\n    agentInfo[msg.sender] = Agent(name, contractAddr, host);\n    agentByName[name] = msg.sender;\n    agentFromContract[contractAddr] = msg.sender;\n    isSigner[msg.sender] = true;\n  }\n\n  // to prevent fraud only signers are allowed to set a name\n  function setAgentName(string name) onlySigners() public {\n      //throw if the proposed name is already taken\n      require(agentByName[name] == address(0));\n\n      agentInfo[msg.sender].name = name;\n      agentByName[name] = msg.sender;\n  }\n\n  function setAgentContractAddr(address contractAddr) public {\n      agentInfo[msg.sender].contractAddr = contractAddr;\n      agentFromContract[contractAddr] = msg.sender;\n  }\n\n  function setAgentHost(string host) public {\n      agentInfo[msg.sender].host = host;\n  }\n\n  //the caller proposes to add themself to the set of signers\n  //the name is used to identify the new signer\n  function propose(string name) public {\n    require(!isSigner[msg.sender]);\n    require(!isProspective[msg.sender]);\n\n    prospectives.push(msg.sender);\n    isProspective[msg.sender] = true;\n    proposer[msg.sender] = msg.sender;\n\n    //throw if the proposed name is already taken\n    require(agentByName[name] == address(0));\n    agentInfo[msg.sender].name = name;\n  }\n\n  //propose a signer to be kicked\n  function kick (address rip) public onlySigners {\n    require(isSigner[msg.sender]);\n    require(!isKicked[rip]);\n    //the blockchain cannot survive with less than 2 signers\n    require(signers.length > 2);\n\n    kicked.push(rip);\n    isKicked[rip] = true;\n    proposer[rip] = msg.sender;\n    vote(rip, true);\n  }\n\n  //the caller recinds their proposal, deleting all cast votes\n  function rescind (address prospective) public {\n    require(proposer[prospective] == msg.sender);\n    clearVotes(prospective);\n  }\n\n  function clearVotes(address prospective) internal {\n    uint i;\n    for(i = 0; i < voters[prospective].length; i++) {\n      delete voteInfo[prospective][voters[prospective][i]];\n      delete hasVoted[prospective][voters[prospective][i]];\n    }\n    delete voters[prospective];\n    delete proposer[prospective];\n    delete yayVotes[prospective];\n\n    bool overwrite = false;\n    if(isProspective[prospective]) {\n      delete isProspective[prospective];\n      for(i = 0; i < prospectives.length; i++) {\n        if(overwrite) {\n          prospectives[i - 1] = prospectives[i];\n        }\n        if(prospectives[i] == prospective) {\n          overwrite = true;\n        }\n      }\n      delete(prospectives[prospectives.length-1]);\n      prospectives.length -= 1;\n    } else {\n      delete isKicked[prospective];\n      for(i = 0; i < kicked.length; i++) {\n        if(overwrite) {\n          kicked[i - 1] = kicked[i];\n        }\n        if(kicked[i] == prospective) {\n          overwrite = true;\n        }\n      }\n      delete(kicked[kicked.length-1]);\n      kicked.length -= 1;\n    }\n  }\n\n  //an existing singer can vote or revote on an existing proposal\n  function vote(address prospective, bool value) public onlySigners() {\n    require(isProspective[prospective] || isKicked[prospective]);\n\n    //if the signer voted yes before and votes no now remove their old vote\n    if(voteInfo[prospective][msg.sender] && !value) {\n      yayVotes[prospective] -= 1;\n    }\n    //if the signer is voting yes and hadn't before add a yay vote\n    if(!voteInfo[prospective][msg.sender] && value) {\n      yayVotes[prospective] += 1;\n    }\n    voteInfo[prospective][msg.sender] = value;\n    if(!hasVoted[prospective][msg.sender]) {\n      voters[prospective].push(msg.sender);\n    }\n    hasVoted[prospective][msg.sender] = true;\n\n    //if this was a no vote it won't trigger anything and no further processing is needed\n    if(!value) return;\n    //if there aren't enought votes for a majority nothing more to do\n    if(yayVotes[prospective] < (signers.length+1)/2) return;\n\n    if(isKicked[prospective]) {\n      bool overwrite = false;\n      for(uint i = 0; i < signers.length; i++) {\n        if(overwrite) {\n          signers[i - 1] = signers[i];\n        }\n        if(signers[i] == prospective) {\n          overwrite = true;\n        }\n      }\n      delete(signers[signers.length-1]);\n      signers.length -= 1;\n      isSigner[prospective] = false;\n      RemoveSigner(prospective);\n    } else {\n      signers.push(prospective);\n      isSigner[prospective] = true;\n      AddSigner(prospective);\n    }\n\n    clearVotes(prospective);\n  }\n\n  function getAgentByName(string name) public constant returns (address) {\n    return agentByName[name];\n  }\n\n  function getAgentName(address addr) public constant returns (string) {\n    return agentInfo[addr].name;\n  }\n\n  function getAgentContractAddr(address addr) public constant returns (address) {\n    return agentInfo[addr].contractAddr;\n  }\n\n  function getAgentHost(address addr) public constant returns (string) {\n    return agentInfo[addr].host;\n  }\n\n  function getNumSigners() public constant returns (uint) {\n    return signers.length;\n  }\n\n  function getSigner(uint idx) public constant returns (address) {\n    return signers[idx];\n  }\n\n  function getNumVoters(address prospective) public constant returns (uint) {\n    return voters[prospective].length;\n  }\n\n  function getVoter(address prospective, uint idx) public constant returns (address) {\n    return voters[prospective][idx];\n  }\n\n  function getVoteInfo(address prospective, address signer) public constant returns (bool) {\n    return voteInfo[prospective][signer];\n  }\n\n  function getNumYayVotes(address prospective) public constant returns (uint) {\n    return yayVotes[prospective];\n  }\n\n  function getNumProspectives() public constant returns (uint) {\n    return prospectives.length;\n  }\n\n  function getProspective(uint idx) public constant returns (address) {\n    return prospectives[idx];\n  }\n\n  function getNumKicked() public constant returns (uint) {\n    return kicked.length;\n  }\n\n  function getKicked(uint idx) public constant returns (address) {\n    return kicked[idx];\n  }\n\n  function getProposer(address prospective) public constant returns (address) {\n    return proposer[prospective];\n  }\n}\n",
  "sourcePath": "/Users/zhenliang/Documents/23spring/bcc/truffle/contracts/AgentRegistry.sol",
  "compiler": {
    "name": "solc",
    "version": "0.4.15+commit.bbb8e64f.Emscripten.clang"
  },
  "schemaVersion": "3.4.13",
  "updatedAt": "2023-05-08T00:25:04.536Z",
  "networkType": "ethereum",
  "devdoc": {
    "methods": {}
  },
  "userdoc": {
    "methods": {}
  }
}