{
  "contractName": "Agent",
  "abi": [
    {
      "constant": true,
      "inputs": [
        {
          "name": "",
          "type": "uint256"
        }
      ],
      "name": "custodianEnabled",
      "outputs": [
        {
          "name": "",
          "type": "bool"
        }
      ],
      "payable": false,
      "type": "function"
    },
    {
      "constant": true,
      "inputs": [
        {
          "name": "",
          "type": "uint256"
        }
      ],
      "name": "custodians",
      "outputs": [
        {
          "name": "",
          "type": "address"
        }
      ],
      "payable": false,
      "type": "function"
    },
    {
      "constant": true,
      "inputs": [
        {
          "name": "",
          "type": "uint256"
        }
      ],
      "name": "relationships",
      "outputs": [
        {
          "name": "",
          "type": "address"
        }
      ],
      "payable": false,
      "type": "function"
    },
    {
      "constant": true,
      "inputs": [],
      "name": "agentEnabled",
      "outputs": [
        {
          "name": "",
          "type": "bool"
        }
      ],
      "payable": false,
      "type": "function"
    },
    {
      "constant": true,
      "inputs": [],
      "name": "agent",
      "outputs": [
        {
          "name": "",
          "type": "address"
        }
      ],
      "payable": false,
      "type": "function"
    },
    {
      "inputs": [],
      "payable": false,
      "type": "constructor"
    },
    {
      "constant": false,
      "inputs": [
        {
          "name": "addr",
          "type": "address"
        }
      ],
      "name": "setAgent",
      "outputs": [],
      "payable": false,
      "type": "function"
    },
    {
      "constant": false,
      "inputs": [
        {
          "name": "enable",
          "type": "bool"
        }
      ],
      "name": "enableAgent",
      "outputs": [],
      "payable": false,
      "type": "function"
    },
    {
      "constant": false,
      "inputs": [
        {
          "name": "addr",
          "type": "address"
        }
      ],
      "name": "addCustodian",
      "outputs": [],
      "payable": false,
      "type": "function"
    },
    {
      "constant": false,
      "inputs": [
        {
          "name": "addr",
          "type": "address"
        }
      ],
      "name": "removeCustodian",
      "outputs": [],
      "payable": false,
      "type": "function"
    },
    {
      "constant": false,
      "inputs": [
        {
          "name": "addr",
          "type": "address"
        },
        {
          "name": "enable",
          "type": "bool"
        }
      ],
      "name": "enableCustodian",
      "outputs": [],
      "payable": false,
      "type": "function"
    },
    {
      "constant": false,
      "inputs": [
        {
          "name": "r",
          "type": "address"
        }
      ],
      "name": "addRelationship",
      "outputs": [],
      "payable": false,
      "type": "function"
    },
    {
      "constant": true,
      "inputs": [],
      "name": "getNumRelationships",
      "outputs": [
        {
          "name": "",
          "type": "uint256"
        }
      ],
      "payable": false,
      "type": "function"
    },
    {
      "constant": true,
      "inputs": [],
      "name": "getNumEnabledOwners",
      "outputs": [
        {
          "name": "",
          "type": "uint256"
        }
      ],
      "payable": false,
      "type": "function"
    },
    {
      "constant": true,
      "inputs": [],
      "name": "getNumCustodians",
      "outputs": [
        {
          "name": "",
          "type": "uint256"
        }
      ],
      "payable": false,
      "type": "function"
    }
  ],
  "bytecode": "0x6060604052341561000f57600080fd5b5b336000806101000a81548173ffffffffffffffffffffffffffffffffffffffff021916908373ffffffffffffffffffffffffffffffffffffffff1602179055506001600060146101000a81548160ff0219169083151502179055505b5b61125c8061007c6000396000f300606060405236156100ce576000357c0100000000000000000000000000000000000000000000000000000000900463ffffffff1680630f12a66a146100d3578063108fd0cc1461010c5780632299bda6146101475780632788aa71146101aa5780636ca9677a146101cf57806379bda9371461021357806385d95b811461024c57806394aa27181461028557806399d29e71146102e8578063bcf685ed14610315578063c23a0d281461034e578063e968177e14610377578063f5ff5c76146103a0578063faea7b2c146103f5575b600080fd5b34156100de57600080fd5b61010a600480803573ffffffffffffffffffffffffffffffffffffffff1690602001909190505061041e565b005b341561011757600080fd5b61012d60048080359060200190919050506107e2565b604051808215151515815260200191505060405180910390f35b341561015257600080fd5b6101686004808035906020019091905050610816565b604051808273ffffffffffffffffffffffffffffffffffffffff1673ffffffffffffffffffffffffffffffffffffffff16815260200191505060405180910390f35b34156101b557600080fd5b6101cd60048080351515906020019091905050610856565b005b34156101da57600080fd5b610211600480803573ffffffffffffffffffffffffffffffffffffffff1690602001909190803515159060200190919050506109de565b005b341561021e57600080fd5b61024a600480803573ffffffffffffffffffffffffffffffffffffffff16906020019091905050610ac9565b005b341561025757600080fd5b610283600480803573ffffffffffffffffffffffffffffffffffffffff16906020019091905050610c85565b005b341561029057600080fd5b6102a66004808035906020019091905050610e86565b604051808273ffffffffffffffffffffffffffffffffffffffff1673ffffffffffffffffffffffffffffffffffffffff16815260200191505060405180910390f35b34156102f357600080fd5b6102fb610ec6565b604051808215151515815260200191505060405180910390f35b341561032057600080fd5b61034c600480803573ffffffffffffffffffffffffffffffffffffffff16906020019091905050610ed9565b005b341561035957600080fd5b610361611071565b6040518082815260200191505060405180910390f35b341561038257600080fd5b61038a6110fe565b6040518082815260200191505060405180910390f35b34156103ab57600080fd5b6103b361110c565b604051808273ffffffffffffffffffffffffffffffffffffffff1673ffffffffffffffffffffffffffffffffffffffff16815260200191505060405180910390f35b341561040057600080fd5b610408611131565b6040518082815260200191505060405180910390f35b600080600080600060149054906101000a900460ff16801561048c57506000809054906101000a900473ffffffffffffffffffffffffffffffffffffffff1673ffffffffffffffffffffffffffffffffffffffff163373ffffffffffffffffffffffffffffffffffffffff16145b1561049657600191505b600090505b600180549050811015610566576002818154811015156104b757fe5b90600052602060002090602091828204019190065b9054906101000a900460ff16801561054a57506001818154811015156104ee57fe5b906000526020600020900160005b9054906101000a900473ffffffffffffffffffffffffffffffffffffffff1673ffffffffffffffffffffffffffffffffffffffff163373ffffffffffffffffffffffffffffffffffffffff16145b156105585760019150610566565b5b808060010191505061049b565b81151561057257600080fd5b60009350600092505b6001805490508310156107145783156106925760018381548110151561059d57fe5b906000526020600020900160005b9054906101000a900473ffffffffffffffffffffffffffffffffffffffff1660018085038154811015156105db57fe5b906000526020600020900160005b6101000a81548173ffffffffffffffffffffffffffffffffffffffff021916908373ffffffffffffffffffffffffffffffffffffffff16021790555060028381548110151561063457fe5b90600052602060002090602091828204019190065b9054906101000a900460ff1660026001850381548110151561066757fe5b90600052602060002090602091828204019190065b6101000a81548160ff0219169083151502179055505b8473ffffffffffffffffffffffffffffffffffffffff166001848154811015156106b857fe5b906000526020600020900160005b9054906101000a900473ffffffffffffffffffffffffffffffffffffffff1673ffffffffffffffffffffffffffffffffffffffff16141561070657600193505b5b828060010193505061057b565b60018080805490500381548110151561072957fe5b906000526020600020900160005b6101000a81549073ffffffffffffffffffffffffffffffffffffffff0219169055600260016002805490500381548110151561076f57fe5b90600052602060002090602091828204019190065b6101000a81549060ff0219169055600180818180549050039150816107a9919061113f565b5060016002818180549050039150816107c2919061116b565b5060006107cd611071565b1115156107d957600080fd5b5b5b5050505050565b6002818154811015156107f157fe5b90600052602060002090602091828204019190065b915054906101000a900460ff1681565b60018181548110151561082557fe5b906000526020600020900160005b915054906101000a900473ffffffffffffffffffffffffffffffffffffffff1681565b600080600060149054906101000a900460ff1680156108c157506000809054906101000a900473ffffffffffffffffffffffffffffffffffffffff1673ffffffffffffffffffffffffffffffffffffffff163373ffffffffffffffffffffffffffffffffffffffff16145b156108cb57600191505b600090505b60018054905081101561099b576002818154811015156108ec57fe5b90600052602060002090602091828204019190065b9054906101000a900460ff16801561097f575060018181548110151561092357fe5b906000526020600020900160005b9054906101000a900473ffffffffffffffffffffffffffffffffffffffff1673ffffffffffffffffffffffffffffffffffffffff163373ffffffffffffffffffffffffffffffffffffffff16145b1561098d576001915061099b565b5b80806001019150506108d0565b8115156109a757600080fd5b82600060146101000a81548160ff02191690831515021790555060006109cb611071565b1115156109d757600080fd5b5b5b505050565b60008090505b600180549050811015610aad578273ffffffffffffffffffffffffffffffffffffffff16600182815481101515610a1757fe5b906000526020600020900160005b9054906101000a900473ffffffffffffffffffffffffffffffffffffffff1673ffffffffffffffffffffffffffffffffffffffff161415610a9f5781600282815481101515610a7057fe5b90600052602060002090602091828204019190065b6101000a81548160ff021916908315150217905550610aad565b5b80806001019150506109e4565b6000610ab7611071565b111515610ac357600080fd5b5b505050565b600080600060149054906101000a900460ff168015610b3457506000809054906101000a900473ffffffffffffffffffffffffffffffffffffffff1673ffffffffffffffffffffffffffffffffffffffff163373ffffffffffffffffffffffffffffffffffffffff16145b15610b3e57600191505b600090505b600180549050811015610c0e57600281815481101515610b5f57fe5b90600052602060002090602091828204019190065b9054906101000a900460ff168015610bf25750600181815481101515610b9657fe5b906000526020600020900160005b9054906101000a900473ffffffffffffffffffffffffffffffffffffffff1673ffffffffffffffffffffffffffffffffffffffff163373ffffffffffffffffffffffffffffffffffffffff16145b15610c005760019150610c0e565b5b8080600101915050610b43565b811515610c1a57600080fd5b60038054806001018281610c2e91906111a5565b916000526020600020900160005b85909190916101000a81548173ffffffffffffffffffffffffffffffffffffffff021916908373ffffffffffffffffffffffffffffffffffffffff160217905550505b5b505050565b600080600060149054906101000a900460ff168015610cf057506000809054906101000a900473ffffffffffffffffffffffffffffffffffffffff1673ffffffffffffffffffffffffffffffffffffffff163373ffffffffffffffffffffffffffffffffffffffff16145b15610cfa57600191505b600090505b600180549050811015610dca57600281815481101515610d1b57fe5b90600052602060002090602091828204019190065b9054906101000a900460ff168015610dae5750600181815481101515610d5257fe5b906000526020600020900160005b9054906101000a900473ffffffffffffffffffffffffffffffffffffffff1673ffffffffffffffffffffffffffffffffffffffff163373ffffffffffffffffffffffffffffffffffffffff16145b15610dbc5760019150610dca565b5b8080600101915050610cff565b811515610dd657600080fd5b60018054806001018281610dea91906111a5565b916000526020600020900160005b85909190916101000a81548173ffffffffffffffffffffffffffffffffffffffff021916908373ffffffffffffffffffffffffffffffffffffffff1602179055505060028054806001018281610e4e91906111d1565b91600052602060002090602091828204019190065b6001909190916101000a81548160ff021916908315150217905550505b5b505050565b600381815481101515610e9557fe5b906000526020600020900160005b915054906101000a900473ffffffffffffffffffffffffffffffffffffffff1681565b600060149054906101000a900460ff1681565b600080600060149054906101000a900460ff168015610f4457506000809054906101000a900473ffffffffffffffffffffffffffffffffffffffff1673ffffffffffffffffffffffffffffffffffffffff163373ffffffffffffffffffffffffffffffffffffffff16145b15610f4e57600191505b600090505b60018054905081101561101e57600281815481101515610f6f57fe5b90600052602060002090602091828204019190065b9054906101000a900460ff1680156110025750600181815481101515610fa657fe5b906000526020600020900160005b9054906101000a900473ffffffffffffffffffffffffffffffffffffffff1673ffffffffffffffffffffffffffffffffffffffff163373ffffffffffffffffffffffffffffffffffffffff16145b15611010576001915061101e565b5b8080600101915050610f53565b81151561102a57600080fd5b826000806101000a81548173ffffffffffffffffffffffffffffffffffffffff021916908373ffffffffffffffffffffffffffffffffffffffff1602179055505b5b505050565b6000806000809150600060149054906101000a900460ff16156110975781806001019250505b600090505b6002805490508110156110f5576002818154811015156110b857fe5b90600052602060002090602091828204019190065b9054906101000a900460ff16156110e75781806001019250505b5b808060010191505061109c565b8192505b505090565b600060038054905090505b90565b6000809054906101000a900473ffffffffffffffffffffffffffffffffffffffff1681565b600060018054905090505b90565b81548183558181151161116657818360005260206000209182019101611165919061120b565b5b505050565b8154818355818115116111a057601f016020900481601f0160209004836000526020600020918201910161119f919061120b565b5b505050565b8154818355818115116111cc578183600052602060002091820191016111cb919061120b565b5b505050565b81548183558181151161120657601f016020900481601f01602090048360005260206000209182019101611205919061120b565b5b505050565b61122d91905b80821115611229576000816000905550600101611211565b5090565b905600a165627a7a723058203d95e1dc42391010dad974216c735ebeae327a971a9547da0e02451550d05b6d0029",
  "source": "pragma solidity ^0.4.15;\n\n//Represents both a Patient and a Provider,\n//Patients list of relationships with different Providers\ncontract Agent {\n  address public agent;\n  bool public agentEnabled;\n  address[] public custodians;\n  bool[] public custodianEnabled;\n  address[] public relationships; //list of Relationship contract addresses\n  uint256[] owned_records;  //list of Records for payments\n  uint256[] shared_records; //list of anonymous Records\n\n  modifier isOwner() {\n    bool enable;\n    if(agentEnabled && msg.sender == agent) enable = true;\n    for(uint i = 0; i < custodians.length; i++) {\n      if(custodianEnabled[i] && msg.sender == custodians[i]) {\n        enable = true;\n        break;\n      }\n    }\n    if(!enable) revert();\n    _;\n  }\n\n  function Agent() public {\n    agent = msg.sender;\n    agentEnabled = true;\n  }\n\n  function setAgent(address addr) public isOwner {\n    agent = addr;\n  }\n\n  function enableAgent(bool enable) public isOwner {\n    agentEnabled = enable;\n    require(getNumEnabledOwners() > 0);\n  }\n\n  function addCustodian(address addr) public isOwner {\n    custodians.push(addr);\n    custodianEnabled.push(true);\n  }\n\n  function removeCustodian(address addr) public isOwner {\n    bool overwrite = false;\n    for(uint i = 0; i < custodians.length; i++) {\n      if(overwrite) {\n        custodians[i - 1] = custodians[i];\n        custodianEnabled[i-1] = custodianEnabled[i];\n      }\n      if(custodians[i] == addr) {\n        overwrite = true;\n      }\n    }\n    delete(custodians[custodians.length-1]);\n    delete(custodianEnabled[custodianEnabled.length-1]);\n    custodians.length -= 1;\n    custodianEnabled.length -= 1;\n    require(getNumEnabledOwners() > 0);\n  }\n\n  function enableCustodian(address addr, bool enable) public {\n    for(uint i = 0; i < custodians.length; i++) {\n      if(custodians[i] == addr) {\n        custodianEnabled[i] = enable;\n        break;\n      }\n    }\n    require(getNumEnabledOwners() > 0);\n  }\n\n  function addRelationship(address r) public isOwner {\n    relationships.push(r);\n  }\n\n  function getNumRelationships() public constant returns (uint) {\n    return relationships.length;\n  }\n\n  function getNumEnabledOwners() public constant returns (uint) {\n    uint num = 0;\n    if(agentEnabled) num++;\n    for(uint i = 0; i < custodianEnabled.length; i++) {\n      if(custodianEnabled[i]) num++;\n    }\n    return num;\n  }\n\n  function getNumCustodians() public constant returns (uint) {\n    return custodians.length;\n  }\n}\n",
  "sourcePath": "/Users/zhenliang/Documents/23spring/bcc/truffle/contracts/Agent.sol",
  "compiler": {
    "name": "solc",
    "version": "0.4.15+commit.bbb8e64f.Emscripten.clang"
  },
  "schemaVersion": "3.4.13",
  "updatedAt": "2023-05-06T22:04:38.120Z",
  "networkType": "ethereum",
  "devdoc": {
    "methods": {}
  },
  "userdoc": {
    "methods": {}
  }
}