{
  "contractName": "Agent",
  "abi": [
    {
      "constant": true,
      "inputs": [
        {
          "name": "",
          "type": "uint256"
        }
      ],
      "name": "custodianEnabled",
      "outputs": [
        {
          "name": "",
          "type": "bool"
        }
      ],
      "payable": false,
      "stateMutability": "view",
      "type": "function"
    },
    {
      "constant": true,
      "inputs": [
        {
          "name": "",
          "type": "uint256"
        }
      ],
      "name": "custodians",
      "outputs": [
        {
          "name": "",
          "type": "address"
        }
      ],
      "payable": false,
      "stateMutability": "view",
      "type": "function"
    },
    {
      "constant": true,
      "inputs": [
        {
          "name": "",
          "type": "uint256"
        }
      ],
      "name": "relationships",
      "outputs": [
        {
          "name": "",
          "type": "address"
        }
      ],
      "payable": false,
      "stateMutability": "view",
      "type": "function"
    },
    {
      "constant": true,
      "inputs": [],
      "name": "agentEnabled",
      "outputs": [
        {
          "name": "",
          "type": "bool"
        }
      ],
      "payable": false,
      "stateMutability": "view",
      "type": "function"
    },
    {
      "constant": true,
      "inputs": [],
      "name": "agent",
      "outputs": [
        {
          "name": "",
          "type": "address"
        }
      ],
      "payable": false,
      "stateMutability": "view",
      "type": "function"
    },
    {
      "inputs": [],
      "payable": false,
      "stateMutability": "nonpayable",
      "type": "constructor"
    },
    {
      "constant": false,
      "inputs": [
        {
          "name": "addr",
          "type": "address"
        }
      ],
      "name": "setAgent",
      "outputs": [],
      "payable": false,
      "stateMutability": "nonpayable",
      "type": "function"
    },
    {
      "constant": false,
      "inputs": [
        {
          "name": "enable",
          "type": "bool"
        }
      ],
      "name": "enableAgent",
      "outputs": [],
      "payable": false,
      "stateMutability": "nonpayable",
      "type": "function"
    },
    {
      "constant": false,
      "inputs": [
        {
          "name": "r",
          "type": "address"
        }
      ],
      "name": "addRelationship",
      "outputs": [],
      "payable": false,
      "stateMutability": "nonpayable",
      "type": "function"
    },
    {
      "constant": true,
      "inputs": [],
      "name": "getNumRelationships",
      "outputs": [
        {
          "name": "",
          "type": "uint256"
        }
      ],
      "payable": false,
      "stateMutability": "view",
      "type": "function"
    },
    {
      "constant": true,
      "inputs": [],
      "name": "getNumEnabledOwners",
      "outputs": [
        {
          "name": "",
          "type": "uint256"
        }
      ],
      "payable": false,
      "stateMutability": "view",
      "type": "function"
    },
    {
      "constant": true,
      "inputs": [],
      "name": "getNumCustodians",
      "outputs": [
        {
          "name": "",
          "type": "uint256"
        }
      ],
      "payable": false,
      "stateMutability": "view",
      "type": "function"
    }
  ],
  "bytecode": "0x608060405234801561001057600080fd5b50336000806101000a81548173ffffffffffffffffffffffffffffffffffffffff021916908373ffffffffffffffffffffffffffffffffffffffff1602179055506001600060146101000a81548160ff0219169083151502179055506108c38061007b6000396000f3006080604052600436106100af576000357c0100000000000000000000000000000000000000000000000000000000900463ffffffff168063108fd0cc146100b45780632299bda6146100f95780632788aa711461016657806379bda9371461019557806394aa2718146101d857806399d29e7114610245578063bcf685ed14610274578063c23a0d28146102b7578063e968177e146102e2578063f5ff5c761461030d578063faea7b2c14610364575b600080fd5b3480156100c057600080fd5b506100df6004803603810190808035906020019092919050505061038f565b604051808215151515815260200191505060405180910390f35b34801561010557600080fd5b50610124600480360381019080803590602001909291905050506103c2565b604051808273ffffffffffffffffffffffffffffffffffffffff1673ffffffffffffffffffffffffffffffffffffffff16815260200191505060405180910390f35b34801561017257600080fd5b50610193600480360381019080803515159060200190929190505050610400565b005b3480156101a157600080fd5b506101d6600480360381019080803573ffffffffffffffffffffffffffffffffffffffff169060200190929190505050610582565b005b3480156101e457600080fd5b50610203600480360381019080803590602001909291905050506105eb565b604051808273ffffffffffffffffffffffffffffffffffffffff1673ffffffffffffffffffffffffffffffffffffffff16815260200191505060405180910390f35b34801561025157600080fd5b5061025a610629565b604051808215151515815260200191505060405180910390f35b34801561028057600080fd5b506102b5600480360381019080803573ffffffffffffffffffffffffffffffffffffffff16906020019092919050505061063c565b005b3480156102c357600080fd5b506102cc6107ce565b6040518082815260200191505060405180910390f35b3480156102ee57600080fd5b506102f7610858565b6040518082815260200191505060405180910390f35b34801561031957600080fd5b50610322610865565b604051808273ffffffffffffffffffffffffffffffffffffffff1673ffffffffffffffffffffffffffffffffffffffff16815260200191505060405180910390f35b34801561037057600080fd5b5061037961088a565b6040518082815260200191505060405180910390f35b60028181548110151561039e57fe5b9060005260206000209060209182820401919006915054906101000a900460ff1681565b6001818154811015156103d157fe5b906000526020600020016000915054906101000a900473ffffffffffffffffffffffffffffffffffffffff1681565b600080600060149054906101000a900460ff16801561046b57506000809054906101000a900473ffffffffffffffffffffffffffffffffffffffff1673ffffffffffffffffffffffffffffffffffffffff163373ffffffffffffffffffffffffffffffffffffffff16145b1561047557600191505b600090505b6001805490508110156105415760028181548110151561049657fe5b90600052602060002090602091828204019190069054906101000a900460ff16801561052657506001818154811015156104cc57fe5b9060005260206000200160009054906101000a900473ffffffffffffffffffffffffffffffffffffffff1673ffffffffffffffffffffffffffffffffffffffff163373ffffffffffffffffffffffffffffffffffffffff16145b156105345760019150610541565b808060010191505061047a565b81151561054d57600080fd5b82600060146101000a81548160ff02191690831515021790555060006105716107ce565b11151561057d57600080fd5b505050565b60038190806001815401808255809150509060018203906000526020600020016000909192909190916101000a81548173ffffffffffffffffffffffffffffffffffffffff021916908373ffffffffffffffffffffffffffffffffffffffff1602179055505050565b6003818154811015156105fa57fe5b906000526020600020016000915054906101000a900473ffffffffffffffffffffffffffffffffffffffff1681565b600060149054906101000a900460ff1681565b600080600060149054906101000a900460ff1680156106a757506000809054906101000a900473ffffffffffffffffffffffffffffffffffffffff1673ffffffffffffffffffffffffffffffffffffffff163373ffffffffffffffffffffffffffffffffffffffff16145b156106b157600191505b600090505b60018054905081101561077d576002818154811015156106d257fe5b90600052602060002090602091828204019190069054906101000a900460ff168015610762575060018181548110151561070857fe5b9060005260206000200160009054906101000a900473ffffffffffffffffffffffffffffffffffffffff1673ffffffffffffffffffffffffffffffffffffffff163373ffffffffffffffffffffffffffffffffffffffff16145b15610770576001915061077d565b80806001019150506106b6565b81151561078957600080fd5b826000806101000a81548173ffffffffffffffffffffffffffffffffffffffff021916908373ffffffffffffffffffffffffffffffffffffffff160217905550505050565b6000806000809150600060149054906101000a900460ff16156107f45781806001019250505b600090505b6002805490508110156108505760028181548110151561081557fe5b90600052602060002090602091828204019190069054906101000a900460ff16156108435781806001019250505b80806001019150506107f9565b819250505090565b6000600380549050905090565b6000809054906101000a900473ffffffffffffffffffffffffffffffffffffffff1681565b60006001805490509050905600a165627a7a72305820fcf2144bc5e663e377f824eee8704905f7feb73ac119cfb813efd9dccf76f1e70029",
  "source": "pragma solidity ^0.4.22;\n\n//Represents both a Patient and a Provider,\n//Patients list of relationships with different Providers\ncontract Agent {\n  address public agent;\n  bool public agentEnabled;\n  address[] public custodians; // to be deleted\n  bool[] public custodianEnabled; //to be deleted\n  address[] public relationships; //list of Relationship contract addresses\n  \n\n  modifier isOwner() {\n    bool enable;\n    if(agentEnabled && msg.sender == agent) enable = true;\n    for(uint i = 0; i < custodians.length; i++) {\n      if(custodianEnabled[i] && msg.sender == custodians[i]) {\n        enable = true;\n        break;\n      }\n    }\n    if(!enable) revert();\n    _;\n  }\n\n  function Agent() public {\n    agent = msg.sender;\n    agentEnabled = true;\n  }\n\n  function setAgent(address addr) public isOwner {\n    agent = addr;\n  }\n\n  function enableAgent(bool enable) public isOwner {\n    agentEnabled = enable;\n    require(getNumEnabledOwners() > 0);\n  }\n\n\n  function addRelationship(address r) public {\n    relationships.push(r);\n  }\n\n  function getNumRelationships() public constant returns (uint) {\n    return relationships.length;\n  }\n\n  function getNumEnabledOwners() public constant returns (uint) {\n    uint num = 0;\n    if(agentEnabled) num++;\n    for(uint i = 0; i < custodianEnabled.length; i++) {\n      if(custodianEnabled[i]) num++;\n    }\n    return num;\n  }\n\n  function getNumCustodians() public constant returns (uint) {\n    return custodians.length;\n  }\n}\n",
  "sourcePath": "/Users/zhenliang/Documents/23spring/bcc/truffle/contracts/Agent.sol",
  "compiler": {
    "name": "solc",
    "version": "0.4.22+commit.4cb486ee.Emscripten.clang"
  },
  "schemaVersion": "3.4.13",
  "updatedAt": "2023-05-10T22:51:09.694Z",
  "networkType": "ethereum",
  "devdoc": {
    "methods": {}
  },
  "userdoc": {
    "methods": {}
  }
}