{
  "contractName": "AllAccessRelationship",
  "abi": [
    {
      "constant": true,
      "inputs": [],
      "name": "providerName",
      "outputs": [
        {
          "name": "",
          "type": "string"
        }
      ],
      "payable": false,
      "type": "function"
    },
    {
      "constant": true,
      "inputs": [],
      "name": "provider",
      "outputs": [
        {
          "name": "",
          "type": "address"
        }
      ],
      "payable": false,
      "type": "function"
    },
    {
      "constant": true,
      "inputs": [],
      "name": "patron",
      "outputs": [
        {
          "name": "",
          "type": "address"
        }
      ],
      "payable": false,
      "type": "function"
    },
    {
      "constant": true,
      "inputs": [
        {
          "name": "",
          "type": "address"
        }
      ],
      "name": "isViewer",
      "outputs": [
        {
          "name": "",
          "type": "bool"
        }
      ],
      "payable": false,
      "type": "function"
    },
    {
      "constant": true,
      "inputs": [
        {
          "name": "",
          "type": "uint256"
        }
      ],
      "name": "viewers",
      "outputs": [
        {
          "name": "",
          "type": "address"
        }
      ],
      "payable": false,
      "type": "function"
    },
    {
      "constant": false,
      "inputs": [
        {
          "name": "_provider",
          "type": "address"
        }
      ],
      "name": "Relationship",
      "outputs": [],
      "payable": false,
      "type": "function"
    },
    {
      "constant": false,
      "inputs": [
        {
          "name": "name",
          "type": "string"
        }
      ],
      "name": "setProviderName",
      "outputs": [],
      "payable": false,
      "type": "function"
    },
    {
      "constant": false,
      "inputs": [
        {
          "name": "name",
          "type": "string"
        },
        {
          "name": "viewer",
          "type": "address"
        }
      ],
      "name": "addViewer",
      "outputs": [],
      "payable": false,
      "type": "function"
    },
    {
      "constant": false,
      "inputs": [
        {
          "name": "viewer",
          "type": "address"
        }
      ],
      "name": "removeViewer",
      "outputs": [],
      "payable": false,
      "type": "function"
    },
    {
      "constant": true,
      "inputs": [],
      "name": "getNumViewers",
      "outputs": [
        {
          "name": "",
          "type": "uint256"
        }
      ],
      "payable": false,
      "type": "function"
    },
    {
      "constant": true,
      "inputs": [
        {
          "name": "name",
          "type": "string"
        }
      ],
      "name": "getViewerByName",
      "outputs": [
        {
          "name": "",
          "type": "address"
        }
      ],
      "payable": false,
      "type": "function"
    },
    {
      "constant": true,
      "inputs": [
        {
          "name": "addr",
          "type": "address"
        }
      ],
      "name": "getViewerName",
      "outputs": [
        {
          "name": "",
          "type": "string"
        }
      ],
      "payable": false,
      "type": "function"
    },
    {
      "constant": false,
      "inputs": [],
      "name": "terminate",
      "outputs": [],
      "payable": false,
      "type": "function"
    }
  ],
  "bytecode": "0x6060604052341561000f57600080fd5b5b6111228061001f6000396000f300606060405236156100c2576000357c0100000000000000000000000000000000000000000000000000000000900463ffffffff168062dad7d4146100c7578063046f3ab714610156578063085d48831461017f57806309c0974f146101d45780630ba32b27146102505780630c08bf88146102a55780632bba6fb7146102ba578063322eb71d1461030b578063444ee902146103be5780635155cb161461041b5780639abdc7a21461047e578063bc1d7087146104b7578063d1d9891414610554575b600080fd5b34156100d257600080fd5b6100da61058d565b6040518080602001828103825283818151815260200191508051906020019080838360005b8381101561011b5780820151818401525b6020810190506100ff565b50505050905090810190601f1680156101485780820380516001836020036101000a031916815260200191505b509250505060405180910390f35b341561016157600080fd5b61016961062b565b6040518082815260200191505060405180910390f35b341561018a57600080fd5b610192610639565b604051808273ffffffffffffffffffffffffffffffffffffffff1673ffffffffffffffffffffffffffffffffffffffff16815260200191505060405180910390f35b34156101df57600080fd5b61024e600480803590602001908201803590602001908080601f0160208091040260200160405190810160405280939291908181526020018383808284378201915050505050509190803573ffffffffffffffffffffffffffffffffffffffff1690602001909190505061065f565b005b341561025b57600080fd5b6102636108a6565b604051808273ffffffffffffffffffffffffffffffffffffffff1673ffffffffffffffffffffffffffffffffffffffff16815260200191505060405180910390f35b34156102b057600080fd5b6102b86108cb565b005b34156102c557600080fd5b6102f1600480803573ffffffffffffffffffffffffffffffffffffffff169060200190919050506109bc565b604051808215151515815260200191505060405180910390f35b341561031657600080fd5b610342600480803573ffffffffffffffffffffffffffffffffffffffff169060200190919050506109dc565b6040518080602001828103825283818151815260200191508051906020019080838360005b838110156103835780820151818401525b602081019050610367565b50505050905090810190601f1680156103b05780820380516001836020036101000a031916815260200191505b509250505060405180910390f35b34156103c957600080fd5b610419600480803590602001908201803590602001908080601f01602080910402602001604051908101604052809392919081815260200183838082843782019150505050505091905050610ac7565b005b341561042657600080fd5b61043c6004808035906020019091905050610ae2565b604051808273ffffffffffffffffffffffffffffffffffffffff1673ffffffffffffffffffffffffffffffffffffffff16815260200191505060405180910390f35b341561048957600080fd5b6104b5600480803573ffffffffffffffffffffffffffffffffffffffff16906020019091905050610b22565b005b34156104c257600080fd5b610512600480803590602001908201803590602001908080601f01602080910402602001604051908101604052809392919081815260200183838082843782019150505050505091905050610ba7565b604051808273ffffffffffffffffffffffffffffffffffffffff1673ffffffffffffffffffffffffffffffffffffffff16815260200191505060405180910390f35b341561055f57600080fd5b61058b600480803573ffffffffffffffffffffffffffffffffffffffff16906020019091905050610c3e565b005b60028054600181600116156101000203166002900480601f0160208091040260200160405190810160405280929190818152602001828054600181600116156101000203166002900480156106235780601f106105f857610100808354040283529160200191610623565b820191906000526020600020905b81548152906001019060200180831161060657829003601f168201915b505050505081565b600060038054905090505b90565b600160009054906101000a900473ffffffffffffffffffffffffffffffffffffffff1681565b6000809054906101000a900473ffffffffffffffffffffffffffffffffffffffff1673ffffffffffffffffffffffffffffffffffffffff163373ffffffffffffffffffffffffffffffffffffffff161415156106ba57600080fd5b600460008273ffffffffffffffffffffffffffffffffffffffff1673ffffffffffffffffffffffffffffffffffffffff16815260200190815260200160002060009054906101000a900460ff1615151561071357600080fd5b6001600460008373ffffffffffffffffffffffffffffffffffffffff1673ffffffffffffffffffffffffffffffffffffffff16815260200190815260200160002060006101000a81548160ff0219169083151502179055506003805480600101828161077f9190610f49565b916000526020600020900160005b83909190916101000a81548173ffffffffffffffffffffffffffffffffffffffff021916908373ffffffffffffffffffffffffffffffffffffffff1602179055505060408051908101604052808381526020018273ffffffffffffffffffffffffffffffffffffffff16815250600560008373ffffffffffffffffffffffffffffffffffffffff1673ffffffffffffffffffffffffffffffffffffffff1681526020019081526020016000206000820151816000019080519060200190610855929190610f75565b5060208201518160010160006101000a81548173ffffffffffffffffffffffffffffffffffffffff021916908373ffffffffffffffffffffffffffffffffffffffff1602179055509050505b5b5050565b6000809054906101000a900473ffffffffffffffffffffffffffffffffffffffff1681565b6000809054906101000a900473ffffffffffffffffffffffffffffffffffffffff1673ffffffffffffffffffffffffffffffffffffffff163373ffffffffffffffffffffffffffffffffffffffff16141580156109765750600160009054906101000a900473ffffffffffffffffffffffffffffffffffffffff1673ffffffffffffffffffffffffffffffffffffffff163373ffffffffffffffffffffffffffffffffffffffff1614155b1561098057600080fd5b6000809054906101000a900473ffffffffffffffffffffffffffffffffffffffff1673ffffffffffffffffffffffffffffffffffffffff16ff5b565b60046020528060005260406000206000915054906101000a900460ff1681565b6109e4610ff5565b600560008373ffffffffffffffffffffffffffffffffffffffff1673ffffffffffffffffffffffffffffffffffffffff1681526020019081526020016000206000018054600181600116156101000203166002900480601f016020809104026020016040519081016040528092919081815260200182805460018160011615610100020316600290048015610aba5780601f10610a8f57610100808354040283529160200191610aba565b820191906000526020600020905b815481529060010190602001808311610a9d57829003601f168201915b505050505090505b919050565b8060029080519060200190610add929190611009565b505b50565b600381815481101515610af157fe5b906000526020600020900160005b915054906101000a900473ffffffffffffffffffffffffffffffffffffffff1681565b336000806101000a81548173ffffffffffffffffffffffffffffffffffffffff021916908373ffffffffffffffffffffffffffffffffffffffff16021790555080600160006101000a81548173ffffffffffffffffffffffffffffffffffffffff021916908373ffffffffffffffffffffffffffffffffffffffff1602179055505b50565b60006006826040518082805190602001908083835b602083101515610be257805182525b602082019150602081019050602083039250610bbc565b6001836020036101000a038019825116818451168082178552505050505050905001915050908152602001604051809103902060009054906101000a900473ffffffffffffffffffffffffffffffffffffffff1690505b919050565b6000806000809054906101000a900473ffffffffffffffffffffffffffffffffffffffff1673ffffffffffffffffffffffffffffffffffffffff163373ffffffffffffffffffffffffffffffffffffffff16141515610c9c57600080fd5b600460008473ffffffffffffffffffffffffffffffffffffffff1673ffffffffffffffffffffffffffffffffffffffff16815260200190815260200160002060009054906101000a900460ff161515610cf457600080fd5b6000600460008573ffffffffffffffffffffffffffffffffffffffff1673ffffffffffffffffffffffffffffffffffffffff16815260200190815260200160002060006101000a81548160ff02191690831515021790555060009150600090505b600380549050811015610e83578115610e0157600381815481101515610d7757fe5b906000526020600020900160005b9054906101000a900473ffffffffffffffffffffffffffffffffffffffff16600360018303815481101515610db657fe5b906000526020600020900160005b6101000a81548173ffffffffffffffffffffffffffffffffffffffff021916908373ffffffffffffffffffffffffffffffffffffffff1602179055505b8273ffffffffffffffffffffffffffffffffffffffff16600382815481101515610e2757fe5b906000526020600020900160005b9054906101000a900473ffffffffffffffffffffffffffffffffffffffff1673ffffffffffffffffffffffffffffffffffffffff161415610e7557600191505b5b8080600101915050610d55565b6003600160038054905003815481101515610e9a57fe5b906000526020600020900160005b6101000a81549073ffffffffffffffffffffffffffffffffffffffff0219169055600560008473ffffffffffffffffffffffffffffffffffffffff1673ffffffffffffffffffffffffffffffffffffffff16815260200190815260200160002060008082016000610f199190611089565b6001820160006101000a81549073ffffffffffffffffffffffffffffffffffffffff021916905550505b5b505050565b815481835581811511610f7057818360005260206000209182019101610f6f91906110d1565b5b505050565b828054600181600116156101000203166002900490600052602060002090601f016020900481019282601f10610fb657805160ff1916838001178555610fe4565b82800160010185558215610fe4579182015b82811115610fe3578251825591602001919060010190610fc8565b5b509050610ff191906110d1565b5090565b602060405190810160405280600081525090565b828054600181600116156101000203166002900490600052602060002090601f016020900481019282601f1061104a57805160ff1916838001178555611078565b82800160010185558215611078579182015b8281111561107757825182559160200191906001019061105c565b5b50905061108591906110d1565b5090565b50805460018160011615610100020316600290046000825580601f106110af57506110ce565b601f0160209004906000526020600020908101906110cd91906110d1565b5b50565b6110f391905b808211156110ef5760008160009055506001016110d7565b5090565b905600a165627a7a723058205327813f98710f34f88dcfcca29b0ffe901daf1dfc3a19c87ab8820c0ea79abe0029",
  "source": "pragma solidity ^0.4.15;\n\ncontract AllAccessRelationship {\n  address public patron;\n  address public provider;\n  string public providerName;\n\n  struct Viewer {\n    string name;\n    address addr;\n  }\n\n  address[] public viewers;\n  mapping(address => bool) public isViewer;\n  mapping(address => Viewer) viewerInfo;\n  mapping(string => address) viewerByName;\n\n  uint256 constant UINT256_MAX = ~uint256(0);\n\n  modifier isPatron() {\n    if(msg.sender != patron) revert();\n    _;\n  }\n\n  function Relationship(address _provider) public {\n    patron = msg.sender;\n    provider = _provider;\n  }\n\n  /****These functions should be left commented out until a use case for them arises\n  function setPatron(address addr) isPatron {\n    patron = addr;\n  }\n  function setProvider(address addr) isPatron {\n    provider = addr;\n  }\n  ******************/\n\n  function setProviderName(string name) public {\n    providerName = name;\n  }\n\n  function addViewer(string name, address viewer) public isPatron {\n    require(!isViewer[viewer]);\n\n    isViewer[viewer] = true;\n    viewers.push(viewer);\n    viewerInfo[viewer] = Viewer(name, viewer);\n  }\n\n  function removeViewer(address viewer) public isPatron {\n    require(isViewer[viewer]);\n\n    isViewer[viewer] = false;\n    bool overwrite = false;\n    for(uint i = 0; i < viewers.length; i++) {\n      if(overwrite) {\n        viewers[i - 1] = viewers[i];\n      }\n      if(viewers[i] == viewer) {\n        overwrite = true;\n      }\n    }\n    delete(viewers[viewers.length-1]);\n    delete(viewerInfo[viewer]);\n  }\n\n  function getNumViewers() public constant returns(uint) {\n    return viewers.length;\n  }\n\n  function getViewerByName(string name) public constant returns(address) {\n    return viewerByName[name];\n  }\n\n  function getViewerName(address addr) public constant returns(string) {\n    return viewerInfo[addr].name;\n  }\n\n  function terminate() public {\n      if(msg.sender != patron && msg.sender != provider) revert();\n      selfdestruct(patron);\n  }\n}\n",
  "sourcePath": "/Users/zhenliang/Documents/23spring/bcc/truffle/contracts/AllAccessRelationship.sol",
  "compiler": {
    "name": "solc",
    "version": "0.4.15+commit.bbb8e64f.Emscripten.clang"
  },
  "schemaVersion": "3.4.13",
  "updatedAt": "2023-04-17T19:28:16.163Z",
  "devdoc": {
    "methods": {}
  },
  "userdoc": {
    "methods": {
      "setProviderName(string)": {
        "notice": "**These functions should be left commented out until a use case for them arises function setPatron(address addr) isPatron { patron = addr; } function setProvider(address addr) isPatron { provider = addr; }*****************"
      }
    }
  }
}