{
  "contractName": "DeadmanSwitch",
  "abi": [
    {
      "constant": true,
      "inputs": [],
      "name": "lastTouch",
      "outputs": [
        {
          "name": "",
          "type": "uint256"
        }
      ],
      "payable": false,
      "type": "function"
    },
    {
      "constant": true,
      "inputs": [],
      "name": "timeout",
      "outputs": [
        {
          "name": "",
          "type": "uint256"
        }
      ],
      "payable": false,
      "type": "function"
    },
    {
      "constant": true,
      "inputs": [
        {
          "name": "",
          "type": "uint256"
        }
      ],
      "name": "relationships",
      "outputs": [
        {
          "name": "",
          "type": "address"
        }
      ],
      "payable": false,
      "type": "function"
    },
    {
      "constant": true,
      "inputs": [],
      "name": "agent",
      "outputs": [
        {
          "name": "",
          "type": "address"
        }
      ],
      "payable": false,
      "type": "function"
    },
    {
      "inputs": [],
      "payable": false,
      "type": "constructor"
    },
    {
      "constant": false,
      "inputs": [
        {
          "name": "addr",
          "type": "address"
        }
      ],
      "name": "setAgent",
      "outputs": [],
      "payable": false,
      "type": "function"
    },
    {
      "constant": false,
      "inputs": [
        {
          "name": "r",
          "type": "address"
        }
      ],
      "name": "addRelationship",
      "outputs": [],
      "payable": false,
      "type": "function"
    },
    {
      "constant": true,
      "inputs": [],
      "name": "getNumRelationships",
      "outputs": [
        {
          "name": "",
          "type": "uint256"
        }
      ],
      "payable": false,
      "type": "function"
    },
    {
      "constant": false,
      "inputs": [],
      "name": "touch",
      "outputs": [],
      "payable": false,
      "type": "function"
    },
    {
      "constant": false,
      "inputs": [
        {
          "name": "_timeout",
          "type": "uint256"
        }
      ],
      "name": "setTimeout",
      "outputs": [],
      "payable": false,
      "type": "function"
    },
    {
      "constant": true,
      "inputs": [],
      "name": "isAlive",
      "outputs": [
        {
          "name": "",
          "type": "bool"
        }
      ],
      "payable": false,
      "type": "function"
    }
  ],
  "bytecode": "0x6060604052341561000f57600080fd5b5b336000806101000a81548173ffffffffffffffffffffffffffffffffffffffff021916908373ffffffffffffffffffffffffffffffffffffffff1602179055505b5b6105f0806100616000396000f300606060405236156100a2576000357c0100000000000000000000000000000000000000000000000000000000900463ffffffff16806333403002146100a75780634136aa35146100d057806370dea79a146100fd57806379bda9371461012657806394aa27181461015f578063a55526db146101c2578063bcf685ed146101d7578063c58a34cc14610210578063e968177e14610233578063f5ff5c761461025c575b600080fd5b34156100b257600080fd5b6100ba6102b1565b6040518082815260200191505060405180910390f35b34156100db57600080fd5b6100e36102b7565b604051808215151515815260200191505060405180910390f35b341561010857600080fd5b6101106102c9565b6040518082815260200191505060405180910390f35b341561013157600080fd5b61015d600480803573ffffffffffffffffffffffffffffffffffffffff169060200190919050506102cf565b005b341561016a57600080fd5b6101806004808035906020019091905050610393565b604051808273ffffffffffffffffffffffffffffffffffffffff1673ffffffffffffffffffffffffffffffffffffffff16815260200191505060405180910390f35b34156101cd57600080fd5b6101d56103d3565b005b34156101e257600080fd5b61020e600480803573ffffffffffffffffffffffffffffffffffffffff16906020019091905050610439565b005b341561021b57600080fd5b61023160048080359060200190919050506104d9565b005b341561023e57600080fd5b610246610540565b6040518082815260200191505060405180910390f35b341561026757600080fd5b61026f61054e565b604051808273ffffffffffffffffffffffffffffffffffffffff1673ffffffffffffffffffffffffffffffffffffffff16815260200191505060405180910390f35b60025481565b60006003546002540142111590505b90565b60035481565b6000809054906101000a900473ffffffffffffffffffffffffffffffffffffffff1673ffffffffffffffffffffffffffffffffffffffff163373ffffffffffffffffffffffffffffffffffffffff1614151561032a57600080fd5b6001805480600101828161033e9190610573565b916000526020600020900160005b83909190916101000a81548173ffffffffffffffffffffffffffffffffffffffff021916908373ffffffffffffffffffffffffffffffffffffffff160217905550505b5b50565b6001818154811015156103a257fe5b906000526020600020900160005b915054906101000a900473ffffffffffffffffffffffffffffffffffffffff1681565b6000809054906101000a900473ffffffffffffffffffffffffffffffffffffffff1673ffffffffffffffffffffffffffffffffffffffff163373ffffffffffffffffffffffffffffffffffffffff1614151561042e57600080fd5b426002819055505b5b565b6000809054906101000a900473ffffffffffffffffffffffffffffffffffffffff1673ffffffffffffffffffffffffffffffffffffffff163373ffffffffffffffffffffffffffffffffffffffff1614151561049457600080fd5b806000806101000a81548173ffffffffffffffffffffffffffffffffffffffff021916908373ffffffffffffffffffffffffffffffffffffffff1602179055505b5b50565b6000809054906101000a900473ffffffffffffffffffffffffffffffffffffffff1673ffffffffffffffffffffffffffffffffffffffff163373ffffffffffffffffffffffffffffffffffffffff1614151561053457600080fd5b806003819055505b5b50565b600060018054905090505b90565b6000809054906101000a900473ffffffffffffffffffffffffffffffffffffffff1681565b81548183558181151161059a57818360005260206000209182019101610599919061059f565b5b505050565b6105c191905b808211156105bd5760008160009055506001016105a5565b5090565b905600a165627a7a723058208e2044a59d7a2ff6965c77759314f3d547ddf0f249e55a3b30588b83d68c0ede0029",
  "source": "pragma solidity ^0.4.15;\n\ncontract DeadmanSwitch {\n  address public agent;\n  address[] public relationships; //list of Relationship contract addresses\n  uint public lastTouch; // gets updated whenever the owner touches this switch\n  uint public timeout; //minimum time in miliseconds between touches\n\n  modifier isOwner() {\n    if(msg.sender != agent) revert();\n    _;\n  }\n\n  function DeadmanSwitch() public {\n    agent = msg.sender;\n  }\n\n  function setAgent(address addr) public isOwner {\n    agent = addr;\n  }\n\n  function addRelationship(address r) public isOwner {\n    relationships.push(r);\n  }\n\n  function getNumRelationships() public constant returns (uint) {\n    return relationships.length;\n  }\n\n  function touch() public isOwner {\n      lastTouch = now;\n  }\n\n  function setTimeout(uint _timeout) public isOwner {\n      timeout = _timeout;\n  }\n\n  function isAlive() public constant returns (bool){\n      return now <= lastTouch + timeout;\n  }\n}\n",
  "sourcePath": "/Users/zhenliang/Documents/23spring/bcc/truffle/contracts/DeadmanSwitch.sol",
  "compiler": {
    "name": "solc",
    "version": "0.4.15+commit.bbb8e64f.Emscripten.clang"
  },
  "schemaVersion": "3.4.13",
  "updatedAt": "2023-04-17T19:28:16.164Z",
  "devdoc": {
    "methods": {}
  },
  "userdoc": {
    "methods": {}
  }
}