{
  "contractName": "Ledger",
  "abi": [
    {
      "constant": true,
      "inputs": [],
      "name": "coinbase",
      "outputs": [
        {
          "name": "",
          "type": "address"
        }
      ],
      "payable": false,
      "type": "function"
    },
    {
      "constant": false,
      "inputs": [
        {
          "name": "_relationship",
          "type": "address"
        }
      ],
      "name": "addReference",
      "outputs": [],
      "payable": false,
      "type": "function"
    },
    {
      "constant": true,
      "inputs": [
        {
          "name": "_validator",
          "type": "address"
        },
        {
          "name": "_id",
          "type": "uint256"
        }
      ],
      "name": "addPayment",
      "outputs": [
        {
          "name": "",
          "type": "bool"
        }
      ],
      "payable": false,
      "type": "function"
    },
    {
      "constant": true,
      "inputs": [
        {
          "name": "_id",
          "type": "uint256"
        },
        {
          "name": "_viewer",
          "type": "address"
        }
      ],
      "name": "viewRecord",
      "outputs": [
        {
          "name": "",
          "type": "bool"
        }
      ],
      "payable": false,
      "type": "function"
    },
    {
      "constant": true,
      "inputs": [
        {
          "name": "_id",
          "type": "uint256"
        }
      ],
      "name": "getRelationship",
      "outputs": [
        {
          "name": "",
          "type": "address"
        }
      ],
      "payable": false,
      "type": "function"
    },
    {
      "constant": true,
      "inputs": [],
      "name": "getCoinbase",
      "outputs": [
        {
          "name": "",
          "type": "address"
        }
      ],
      "payable": false,
      "type": "function"
    },
    {
      "constant": true,
      "inputs": [],
      "name": "getOwnedRecordReferences",
      "outputs": [
        {
          "name": "",
          "type": "uint256[]"
        }
      ],
      "payable": false,
      "type": "function"
    },
    {
      "constant": true,
      "inputs": [],
      "name": "getSharedRecordReferences",
      "outputs": [
        {
          "name": "",
          "type": "uint256[]"
        }
      ],
      "payable": false,
      "type": "function"
    },
    {
      "constant": false,
      "inputs": [
        {
          "name": "_relationship",
          "type": "address"
        }
      ],
      "name": "addOwnedRecordReference",
      "outputs": [],
      "payable": false,
      "type": "function"
    },
    {
      "constant": false,
      "inputs": [
        {
          "name": "_relationship",
          "type": "address"
        }
      ],
      "name": "removeOwnedRecordReference",
      "outputs": [],
      "payable": false,
      "type": "function"
    },
    {
      "constant": false,
      "inputs": [
        {
          "name": "_id",
          "type": "uint256"
        },
        {
          "name": "_owner",
          "type": "address"
        }
      ],
      "name": "removeSharedRecordReference",
      "outputs": [],
      "payable": false,
      "type": "function"
    }
  ],
  "bytecode": "0x6060604052341561000f57600080fd5b5b61191e8061001f6000396000f300606060405236156100ad576000357c0100000000000000000000000000000000000000000000000000000000900463ffffffff1680630c5be0ff146100b25780630fb3395c1461011d578063322e41b51461015657806381cf7903146101b957806385bac23714610224578063a6ae0aac1461027e578063c2d74425146102d3578063c5bf2c5b1461030c578063d1a82a9d14610366578063d759ca33146103bb578063fc011860146103fd575b600080fd5b34156100bd57600080fd5b6100c5610436565b6040518080602001828103825283818151815260200191508051906020019060200280838360005b838110156101095780820151818401525b6020810190506100ed565b505050509050019250505060405180910390f35b341561012857600080fd5b610154600480803573ffffffffffffffffffffffffffffffffffffffff169060200190919050506104d2565b005b341561016157600080fd5b61017760048080359060200190919050506108c9565b604051808273ffffffffffffffffffffffffffffffffffffffff1673ffffffffffffffffffffffffffffffffffffffff16815260200191505060405180910390f35b34156101c457600080fd5b6101cc610909565b6040518080602001828103825283818151815260200191508051906020019060200280838360005b838110156102105780820151818401525b6020810190506101f4565b505050509050019250505060405180910390f35b341561022f57600080fd5b610264600480803573ffffffffffffffffffffffffffffffffffffffff169060200190919080359060200190919050506109a5565b604051808215151515815260200191505060405180910390f35b341561028957600080fd5b61029161107c565b604051808273ffffffffffffffffffffffffffffffffffffffff1673ffffffffffffffffffffffffffffffffffffffff16815260200191505060405180910390f35b34156102de57600080fd5b61030a600480803573ffffffffffffffffffffffffffffffffffffffff169060200190919050506110a2565b005b341561031757600080fd5b61034c600480803590602001909190803573ffffffffffffffffffffffffffffffffffffffff1690602001909190505061122c565b604051808215151515815260200191505060405180910390f35b341561037157600080fd5b610379611390565b604051808273ffffffffffffffffffffffffffffffffffffffff1673ffffffffffffffffffffffffffffffffffffffff16815260200191505060405180910390f35b34156103c657600080fd5b6103fb600480803590602001909190803573ffffffffffffffffffffffffffffffffffffffff169060200190919050506113bb565b005b341561040857600080fd5b610434600480803573ffffffffffffffffffffffffffffffffffffffff16906020019091905050611595565b005b61043e61188d565b600160003373ffffffffffffffffffffffffffffffffffffffff1673ffffffffffffffffffffffffffffffffffffffff1681526020019081526020016000208054806020026020016040519081016040528092919081815260200182805480156104c757602002820191906000526020600020905b8154815260200190600101908083116104b3575b505050505090505b90565b60008060008060008073ffffffffffffffffffffffffffffffffffffffff168673ffffffffffffffffffffffffffffffffffffffff161415151561051557600080fd5b8594503273ffffffffffffffffffffffffffffffffffffffff168573ffffffffffffffffffffffffffffffffffffffff16630ba32b276000604051602001526040518163ffffffff167c0100000000000000000000000000000000000000000000000000000000028152600401602060405180830381600087803b151561059b57600080fd5b6102c65a03f115156105ac57600080fd5b5050506040518051905073ffffffffffffffffffffffffffffffffffffffff161415156105d857600080fd5b85604051808273ffffffffffffffffffffffffffffffffffffffff1673ffffffffffffffffffffffffffffffffffffffff166c010000000000000000000000000281526014019150506040518091039020600190049350600073ffffffffffffffffffffffffffffffffffffffff1660008086815260200190815260200160002060000160009054906101000a900473ffffffffffffffffffffffffffffffffffffffff1673ffffffffffffffffffffffffffffffffffffffff1614151561069f57600080fd5b600160003273ffffffffffffffffffffffffffffffffffffffff1673ffffffffffffffffffffffffffffffffffffffff168152602001908152602001600020925060009150600090505b82805490508110156108595783838281548110151561070457fe5b906000526020600020900160005b5054141561084b5760019150600160003273ffffffffffffffffffffffffffffffffffffffff1673ffffffffffffffffffffffffffffffffffffffff168152602001908152602001600020600184805490500381548110151561077157fe5b906000526020600020900160005b5054600160003273ffffffffffffffffffffffffffffffffffffffff1673ffffffffffffffffffffffffffffffffffffffff168152602001908152602001600020828154811015156107cd57fe5b906000526020600020900160005b5081905550600160003273ffffffffffffffffffffffffffffffffffffffff1673ffffffffffffffffffffffffffffffffffffffff168152602001908152602001600020600184805490500381548110151561083357fe5b906000526020600020900160005b5060009055610859565b5b80806001019150506106e9565b6001151582151514151561086c57600080fd5b8560008086815260200190815260200160002060000160006101000a81548173ffffffffffffffffffffffffffffffffffffffff021916908373ffffffffffffffffffffffffffffffffffffffff1602179055505b505050505050565b600080600083815260200190815260200160002060000160009054906101000a900473ffffffffffffffffffffffffffffffffffffffff1690505b919050565b61091161188d565b600260003373ffffffffffffffffffffffffffffffffffffffff1673ffffffffffffffffffffffffffffffffffffffff16815260200190815260200160002080548060200260200160405190810160405280929190818152602001828054801561099a57602002820191906000526020600020905b815481526020019060010190808311610986575b505050505090505b90565b600080600080600080600073ffffffffffffffffffffffffffffffffffffffff1660008089815260200190815260200160002060000160009054906101000a900473ffffffffffffffffffffffffffffffffffffffff1673ffffffffffffffffffffffffffffffffffffffff1614151515610a1f57600080fd5b6000151560008089815260200190815260200160002060010160008a73ffffffffffffffffffffffffffffffffffffffff1673ffffffffffffffffffffffffffffffffffffffff16815260200190815260200160002060009054906101000a900460ff161515141515610a9157600080fd5b3294506001151560008089815260200190815260200160002060010160008773ffffffffffffffffffffffffffffffffffffffff1673ffffffffffffffffffffffffffffffffffffffff16815260200190815260200160002060009054906101000a900460ff1615151415610c9157610b0a87866113bb565b600260008973ffffffffffffffffffffffffffffffffffffffff1673ffffffffffffffffffffffffffffffffffffffff1681526020019081526020016000208054806001018281610b5b91906118a1565b916000526020600020900160005b8990919091505550600080600089815260200190815260200160002060010160008773ffffffffffffffffffffffffffffffffffffffff1673ffffffffffffffffffffffffffffffffffffffff16815260200190815260200160002060006101000a81548160ff021916908315150217905550600160008089815260200190815260200160002060010160008a73ffffffffffffffffffffffffffffffffffffffff1673ffffffffffffffffffffffffffffffffffffffff16815260200190815260200160002060006101000a81548160ff02191690831515021790555087600360006101000a81548173ffffffffffffffffffffffffffffffffffffffff021916908373ffffffffffffffffffffffffffffffffffffffff16021790555060019550611071565b60008088815260200190815260200160002060000160009054906101000a900473ffffffffffffffffffffffffffffffffffffffff1693508473ffffffffffffffffffffffffffffffffffffffff168473ffffffffffffffffffffffffffffffffffffffff16630ba32b276000604051602001526040518163ffffffff167c0100000000000000000000000000000000000000000000000000000000028152600401602060405180830381600087803b1515610d4c57600080fd5b6102c65a03f11515610d5d57600080fd5b5050506040518051905073ffffffffffffffffffffffffffffffffffffffff16141561106c57600160008673ffffffffffffffffffffffffffffffffffffffff1673ffffffffffffffffffffffffffffffffffffffff168152602001908152602001600020925060009150600090505b8280549050811015610f3d57868382815481101515610de857fe5b906000526020600020900160005b50541415610f2f5760019150600160008673ffffffffffffffffffffffffffffffffffffffff1673ffffffffffffffffffffffffffffffffffffffff1681526020019081526020016000206001848054905003815481101515610e5557fe5b906000526020600020900160005b5054600160008773ffffffffffffffffffffffffffffffffffffffff1673ffffffffffffffffffffffffffffffffffffffff16815260200190815260200160002082815481101515610eb157fe5b906000526020600020900160005b5081905550600160008673ffffffffffffffffffffffffffffffffffffffff1673ffffffffffffffffffffffffffffffffffffffff1681526020019081526020016000206001848054905003815481101515610f1757fe5b906000526020600020900160005b5060009055610f3d565b5b8080600101915050610dcd565b60011515821515141515610f5057600080fd5b600260008973ffffffffffffffffffffffffffffffffffffffff1673ffffffffffffffffffffffffffffffffffffffff1681526020019081526020016000208054806001018281610fa191906118a1565b916000526020600020900160005b8990919091505550600160008089815260200190815260200160002060010160008a73ffffffffffffffffffffffffffffffffffffffff1673ffffffffffffffffffffffffffffffffffffffff16815260200190815260200160002060006101000a81548160ff02191690831515021790555087600360006101000a81548173ffffffffffffffffffffffffffffffffffffffff021916908373ffffffffffffffffffffffffffffffffffffffff16021790555060019550611071565b600095505b505050505092915050565b600360009054906101000a900473ffffffffffffffffffffffffffffffffffffffff1681565b6000808291503373ffffffffffffffffffffffffffffffffffffffff168273ffffffffffffffffffffffffffffffffffffffff16630ba32b276000604051602001526040518163ffffffff167c0100000000000000000000000000000000000000000000000000000000028152600401602060405180830381600087803b151561112b57600080fd5b6102c65a03f1151561113c57600080fd5b5050506040518051905073ffffffffffffffffffffffffffffffffffffffff1614151561116857600080fd5b82604051808273ffffffffffffffffffffffffffffffffffffffff1673ffffffffffffffffffffffffffffffffffffffff166c010000000000000000000000000281526014019150506040518091039020600190049050600160003373ffffffffffffffffffffffffffffffffffffffff1673ffffffffffffffffffffffffffffffffffffffff168152602001908152602001600020805480600101828161121091906118a1565b916000526020600020900160005b83909190915055505b505050565b60008073ffffffffffffffffffffffffffffffffffffffff1660008085815260200190815260200160002060000160009054906101000a900473ffffffffffffffffffffffffffffffffffffffff1673ffffffffffffffffffffffffffffffffffffffff161415151561129e57600080fd5b6001151560008085815260200190815260200160002060010160008473ffffffffffffffffffffffffffffffffffffffff1673ffffffffffffffffffffffffffffffffffffffff16815260200190815260200160002060009054906101000a900460ff16151514151561131057600080fd5b61131a83836113bb565b600080600085815260200190815260200160002060010160008473ffffffffffffffffffffffffffffffffffffffff1673ffffffffffffffffffffffffffffffffffffffff16815260200190815260200160002060006101000a81548160ff021916908315150217905550600190505b92915050565b6000600360009054906101000a900473ffffffffffffffffffffffffffffffffffffffff1690505b90565b6000806000600260008573ffffffffffffffffffffffffffffffffffffffff1673ffffffffffffffffffffffffffffffffffffffff168152602001908152602001600020925060009150600090505b828054905081101561157a5784838281548110151561142557fe5b906000526020600020900160005b5054141561156c5760019150600260008573ffffffffffffffffffffffffffffffffffffffff1673ffffffffffffffffffffffffffffffffffffffff168152602001908152602001600020600184805490500381548110151561149257fe5b906000526020600020900160005b5054600260008673ffffffffffffffffffffffffffffffffffffffff1673ffffffffffffffffffffffffffffffffffffffff168152602001908152602001600020828154811015156114ee57fe5b906000526020600020900160005b5081905550600260008573ffffffffffffffffffffffffffffffffffffffff1673ffffffffffffffffffffffffffffffffffffffff168152602001908152602001600020600184805490500381548110151561155457fe5b906000526020600020900160005b506000905561157a565b5b808060010191505061140a565b6001151582151514151561158d57600080fd5b5b5050505050565b60008060008060008594503373ffffffffffffffffffffffffffffffffffffffff168573ffffffffffffffffffffffffffffffffffffffff16630ba32b276000604051602001526040518163ffffffff167c0100000000000000000000000000000000000000000000000000000000028152600401602060405180830381600087803b151561162357600080fd5b6102c65a03f1151561163457600080fd5b5050506040518051905073ffffffffffffffffffffffffffffffffffffffff1614151561166057600080fd5b85604051808273ffffffffffffffffffffffffffffffffffffffff1673ffffffffffffffffffffffffffffffffffffffff166c010000000000000000000000000281526014019150506040518091039020600190049350600160003373ffffffffffffffffffffffffffffffffffffffff1673ffffffffffffffffffffffffffffffffffffffff168152602001908152602001600020925060009150600090505b82805490508110156118715783838281548110151561171c57fe5b906000526020600020900160005b505414156118635760019150600160003373ffffffffffffffffffffffffffffffffffffffff1673ffffffffffffffffffffffffffffffffffffffff168152602001908152602001600020600184805490500381548110151561178957fe5b906000526020600020900160005b5054600160003373ffffffffffffffffffffffffffffffffffffffff1673ffffffffffffffffffffffffffffffffffffffff168152602001908152602001600020828154811015156117e557fe5b906000526020600020900160005b5081905550600160003373ffffffffffffffffffffffffffffffffffffffff1673ffffffffffffffffffffffffffffffffffffffff168152602001908152602001600020600184805490500381548110151561184b57fe5b906000526020600020900160005b5060009055611871565b5b8080600101915050611701565b6001151582151514151561188457600080fd5b5b505050505050565b602060405190810160405280600081525090565b8154818355818115116118c8578183600052602060002091820191016118c791906118cd565b5b505050565b6118ef91905b808211156118eb5760008160009055506001016118d3565b5090565b905600a165627a7a72305820de28f6983f67167d6e6ab7e63bc42b717e42014b8214f2dd4d269a612a8fc8ea0029",
  "source": "pragma solidity ^0.4.15;\n\nimport \"./Relationship.sol\";\n\ncontract Ledger {\n    struct reference {\n        address relationship;\n        mapping(address => bool) payment;// the address of the validaters\n    }\n\n    // mapping( => bool) public isReference;\n    mapping(uint256 => reference) references; // the references of the payments\n\n    mapping(address => uint256[]) ownedRecordReferences; // the references of the owned records\n    mapping(address => uint256[]) sharedRecordReferences; // records rewarded from others\n\n    address public coinbase;\n\n    function addReference(address _relationship) public {\n        // check the reference legality(exist in the sender's relationship)\n        // check whether the sender is the patron of the relationship\n        require(_relationship != address(0));\n        Relationship relationship = Relationship(_relationship);\n        require(relationship.patron() == tx.origin);\n\n        //check whether the hash of the relastionship is already in the references\n        uint256 _relationshipHash = uint256(keccak256(_relationship));\n        require(references[_relationshipHash].relationship == address(0));\n        \n        //check whether the relationship exists in ownedRecordReferences, if yes, remove it\n        uint256[] ownedRecords = ownedRecordReferences[tx.origin];\n        bool exist = false;\n        for(uint256 i = 0; i < ownedRecords.length; i++){\n            if(ownedRecords[i] == _relationshipHash){\n                exist = true;\n                // remove the reference from ownedRecordReferences\n                ownedRecordReferences[tx.origin][i] = ownedRecordReferences[tx.origin][ownedRecords.length - 1];\n                delete ownedRecordReferences[tx.origin][ownedRecords.length - 1];\n                break;\n            }\n        }\n        require(exist == true);\n        // add the reference\n        references[_relationshipHash].relationship = _relationship;\n    }\n\n    function addPayment(address _validator, uint256 _id) public constant returns (bool) {\n        \n        // check whether the validator in the references\n        require(references[_id].relationship != address(0));\n        require(references[_id].payment[_validator] == false);\n\n        address payer = tx.origin;\n\n        if(references[_id].payment[payer] == true){\n            //pay from shared records\n            //remove _id from sharedRecordReferences, and add it to validator's sharedRecordReferences\n            removeSharedRecordReference(_id, payer);\n            sharedRecordReferences[_validator].push(_id);\n\n            references[_id].payment[payer] = false;\n            references[_id].payment[_validator] = true;\n            coinbase = _validator;\n            return true;\n        }\n        Relationship relationship = Relationship(references[_id].relationship);\n        if(relationship.patron() == payer){\n            //pay from owned records\n            //remove _id from ownedRecordReferences, and add it to validator's sharedRecordReferences\n            uint256[] ownedRecords = ownedRecordReferences[payer];\n            bool exist = false;\n            for(uint256 i = 0; i < ownedRecords.length; i++){\n                if(ownedRecords[i] == _id){\n                    exist = true;\n                    // remove the reference from ownedRecordReferences\n                    ownedRecordReferences[payer][i] = ownedRecordReferences[payer][ownedRecords.length - 1];\n                    delete ownedRecordReferences[payer][ownedRecords.length - 1];\n                    break;\n                }\n            }\n            require(exist == true);\n            sharedRecordReferences[_validator].push(_id);\n\n            references[_id].payment[_validator] = true;\n            coinbase = _validator;\n            return true;\n        }\n        return false;\n    }\n\n    function viewRecord(uint256 _id, address _viewer) public constant returns (bool) {\n        // check whether the validator in the references\n        require(references[_id].relationship != address(0));\n        require(references[_id].payment[_viewer] == true);\n\n        //remove _id from getSharedRecordReferences\n        removeSharedRecordReference(_id, _viewer);\n        //to-do: send transaction to relationship\n\n        references[_id].payment[_viewer] = false;\n        return true;\n    }\n\n    function getRelationship(uint256 _id) public constant returns (address) {\n        return references[_id].relationship;\n    }\n\n    function getCoinbase() public constant returns (address) {\n        return coinbase;\n    }\n\n    function getOwnedRecordReferences() public constant returns (uint256[]) {\n        return ownedRecordReferences[msg.sender];\n    }\n    \n    function getSharedRecordReferences() public constant returns (uint256[]) {\n        return sharedRecordReferences[msg.sender];\n    }\n\n    function addOwnedRecordReference(address _relationship) public {\n        Relationship relationship = Relationship(_relationship);\n        require(relationship.patron() == msg.sender);\n\n        uint256 _id = uint256(keccak256(_relationship));\n        ownedRecordReferences[msg.sender].push(_id);\n    }\n\n    function removeOwnedRecordReference(address _relationship) public {\n        Relationship relationship = Relationship(_relationship);\n        require(relationship.patron() == msg.sender);\n\n        uint256 _id = uint256(keccak256(_relationship));\n        uint256[] ownedRecords = ownedRecordReferences[msg.sender];\n        bool exist = false;\n        for(uint256 i = 0; i < ownedRecords.length; i++){\n            if(ownedRecords[i] == _id){\n                exist = true;\n                // remove the reference from ownedRecordReferences\n                ownedRecordReferences[msg.sender][i] = ownedRecordReferences[msg.sender][ownedRecords.length - 1];\n                delete ownedRecordReferences[msg.sender][ownedRecords.length - 1];\n                break;\n            }\n        }\n        require(exist == true);\n    }\n\n    function removeSharedRecordReference(uint256 _id, address _owner) {\n        uint256[] sharedRecords = sharedRecordReferences[_owner];\n        bool exist = false;\n        for(uint256 i = 0; i < sharedRecords.length; i++){\n            if(sharedRecords[i] == _id){\n                exist = true;\n                // remove the reference from ownedRecordReferences\n                sharedRecordReferences[_owner][i] = sharedRecordReferences[_owner][sharedRecords.length - 1];\n                delete sharedRecordReferences[_owner][sharedRecords.length - 1];\n                break;\n            }\n        }\n        require(exist == true);\n    }\n}",
  "sourcePath": "/Users/zhenliang/Documents/23spring/bcc/truffle/contracts/Ledger.sol",
  "compiler": {
    "name": "solc",
    "version": "0.4.15+commit.bbb8e64f.Emscripten.clang"
  },
  "schemaVersion": "3.4.13",
  "updatedAt": "2023-05-08T17:56:25.628Z",
  "devdoc": {
    "methods": {}
  },
  "userdoc": {
    "methods": {}
  }
}