{
  "contractName": "Ledger",
  "abi": [
    {
      "constant": true,
      "inputs": [],
      "name": "coinbase",
      "outputs": [
        {
          "name": "",
          "type": "address"
        }
      ],
      "payable": false,
      "stateMutability": "view",
      "type": "function"
    },
    {
      "constant": false,
      "inputs": [
        {
          "name": "_relationship",
          "type": "address"
        }
      ],
      "name": "addReference",
      "outputs": [],
      "payable": false,
      "stateMutability": "nonpayable",
      "type": "function"
    },
    {
      "constant": true,
      "inputs": [
        {
          "name": "_validator",
          "type": "address"
        },
        {
          "name": "_id",
          "type": "uint256"
        }
      ],
      "name": "addPayment",
      "outputs": [
        {
          "name": "",
          "type": "bool"
        }
      ],
      "payable": false,
      "stateMutability": "view",
      "type": "function"
    },
    {
      "constant": false,
      "inputs": [
        {
          "name": "_id",
          "type": "uint256"
        }
      ],
      "name": "viewRecord",
      "outputs": [],
      "payable": false,
      "stateMutability": "nonpayable",
      "type": "function"
    },
    {
      "constant": true,
      "inputs": [
        {
          "name": "_id",
          "type": "uint256"
        }
      ],
      "name": "getRelationship",
      "outputs": [
        {
          "name": "",
          "type": "address"
        }
      ],
      "payable": false,
      "stateMutability": "view",
      "type": "function"
    },
    {
      "constant": true,
      "inputs": [],
      "name": "getCoinbase",
      "outputs": [
        {
          "name": "",
          "type": "address"
        }
      ],
      "payable": false,
      "stateMutability": "view",
      "type": "function"
    },
    {
      "constant": false,
      "inputs": [
        {
          "name": "_id",
          "type": "uint256"
        },
        {
          "name": "target",
          "type": "address"
        }
      ],
      "name": "checkTargetRecordValidator",
      "outputs": [
        {
          "name": "",
          "type": "bool"
        }
      ],
      "payable": false,
      "stateMutability": "nonpayable",
      "type": "function"
    },
    {
      "constant": true,
      "inputs": [],
      "name": "getSharedRecordReferences",
      "outputs": [
        {
          "name": "",
          "type": "uint256[]"
        }
      ],
      "payable": false,
      "stateMutability": "view",
      "type": "function"
    },
    {
      "constant": false,
      "inputs": [
        {
          "name": "_id",
          "type": "uint256"
        },
        {
          "name": "_owner",
          "type": "address"
        }
      ],
      "name": "removeSharedRecordReference",
      "outputs": [],
      "payable": false,
      "stateMutability": "nonpayable",
      "type": "function"
    }
  ],
  "bytecode": "0x608060405234801561001057600080fd5b506110d6806100206000396000f300608060405260043610610099576000357c0100000000000000000000000000000000000000000000000000000000900463ffffffff1680630800399f1461009e5780630fb3395c14610103578063322e41b51461014657806364b5a925146101b357806381cf7903146101e057806385bac2371461024c578063a6ae0aac146102b1578063d1a82a9d14610308578063d759ca331461035f575b600080fd5b3480156100aa57600080fd5b506100e960048036038101908080359060200190929190803573ffffffffffffffffffffffffffffffffffffffff1690602001909291905050506103ac565b604051808215151515815260200191505060405180910390f35b34801561010f57600080fd5b50610144600480360381019080803573ffffffffffffffffffffffffffffffffffffffff169060200190929190505050610416565b005b34801561015257600080fd5b5061017160048036038101908080359060200190929190505050610650565b604051808273ffffffffffffffffffffffffffffffffffffffff1673ffffffffffffffffffffffffffffffffffffffff16815260200191505060405180910390f35b3480156101bf57600080fd5b506101de6004803603810190808035906020019092919050505061068f565b005b3480156101ec57600080fd5b506101f56108e3565b6040518080602001828103825283818151815260200191508051906020019060200280838360005b8381101561023857808201518184015260208101905061021d565b505050509050019250505060405180910390f35b34801561025857600080fd5b50610297600480360381019080803573ffffffffffffffffffffffffffffffffffffffff16906020019092919080359060200190929190505050610978565b604051808215151515815260200191505060405180910390f35b3480156102bd57600080fd5b506102c6610e96565b604051808273ffffffffffffffffffffffffffffffffffffffff1673ffffffffffffffffffffffffffffffffffffffff16815260200191505060405180910390f35b34801561031457600080fd5b5061031d610ebc565b604051808273ffffffffffffffffffffffffffffffffffffffff1673ffffffffffffffffffffffffffffffffffffffff16815260200191505060405180910390f35b34801561036b57600080fd5b506103aa60048036038101908080359060200190929190803573ffffffffffffffffffffffffffffffffffffffff169060200190929190505050610ee6565b005b600080600084815260200190815260200160002060010160008373ffffffffffffffffffffffffffffffffffffffff1673ffffffffffffffffffffffffffffffffffffffff16815260200190815260200160002060009054906101000a900460ff16905092915050565b600080600073ffffffffffffffffffffffffffffffffffffffff168373ffffffffffffffffffffffffffffffffffffffff161415151561045557600080fd5b8291503273ffffffffffffffffffffffffffffffffffffffff168273ffffffffffffffffffffffffffffffffffffffff16630ba32b276040518163ffffffff167c0100000000000000000000000000000000000000000000000000000000028152600401602060405180830381600087803b1580156104d357600080fd5b505af11580156104e7573d6000803e3d6000fd5b505050506040513d60208110156104fd57600080fd5b810190808051906020019092919050505073ffffffffffffffffffffffffffffffffffffffff1614151561053057600080fd5b82604051808273ffffffffffffffffffffffffffffffffffffffff1673ffffffffffffffffffffffffffffffffffffffff166c010000000000000000000000000281526014019150506040518091039020600190049050600073ffffffffffffffffffffffffffffffffffffffff1660008083815260200190815260200160002060000160009054906101000a900473ffffffffffffffffffffffffffffffffffffffff1673ffffffffffffffffffffffffffffffffffffffff161415156105f757600080fd5b8260008083815260200190815260200160002060000160006101000a81548173ffffffffffffffffffffffffffffffffffffffff021916908373ffffffffffffffffffffffffffffffffffffffff160217905550505050565b600080600083815260200190815260200160002060000160009054906101000a900473ffffffffffffffffffffffffffffffffffffffff169050919050565b6000806000339250600073ffffffffffffffffffffffffffffffffffffffff1660008086815260200190815260200160002060000160009054906101000a900473ffffffffffffffffffffffffffffffffffffffff1673ffffffffffffffffffffffffffffffffffffffff161415151561070857600080fd5b6001151560008086815260200190815260200160002060010160008573ffffffffffffffffffffffffffffffffffffffff1673ffffffffffffffffffffffffffffffffffffffff16815260200190815260200160002060009054906101000a900460ff16151514151561077a57600080fd5b6107848484610ee6565b60008085815260200190815260200160002060000160009054906101000a900473ffffffffffffffffffffffffffffffffffffffff1691508190508073ffffffffffffffffffffffffffffffffffffffff16632f286c12336040518263ffffffff167c0100000000000000000000000000000000000000000000000000000000028152600401808273ffffffffffffffffffffffffffffffffffffffff1673ffffffffffffffffffffffffffffffffffffffff168152602001915050600060405180830381600087803b15801561085a57600080fd5b505af115801561086e573d6000803e3d6000fd5b50505050600080600086815260200190815260200160002060010160008573ffffffffffffffffffffffffffffffffffffffff1673ffffffffffffffffffffffffffffffffffffffff16815260200190815260200160002060006101000a81548160ff02191690831515021790555050505050565b6060600160003373ffffffffffffffffffffffffffffffffffffffff1673ffffffffffffffffffffffffffffffffffffffff16815260200190815260200160002080548060200260200160405190810160405280929190818152602001828054801561096e57602002820191906000526020600020905b81548152602001906001019080831161095a575b5050505050905090565b60008060008073ffffffffffffffffffffffffffffffffffffffff1660008086815260200190815260200160002060000160009054906101000a900473ffffffffffffffffffffffffffffffffffffffff1673ffffffffffffffffffffffffffffffffffffffff16141515156109ed57600080fd5b6000151560008086815260200190815260200160002060010160008773ffffffffffffffffffffffffffffffffffffffff1673ffffffffffffffffffffffffffffffffffffffff16815260200190815260200160002060009054906101000a900460ff161515141515610a5f57600080fd5b3291506001151560008086815260200190815260200160002060010160008473ffffffffffffffffffffffffffffffffffffffff1673ffffffffffffffffffffffffffffffffffffffff16815260200190815260200160002060009054906101000a900460ff1615151415610c6157610ad88483610ee6565b600160008673ffffffffffffffffffffffffffffffffffffffff1673ffffffffffffffffffffffffffffffffffffffff168152602001908152602001600020849080600181540180825580915050906001820390600052602060002001600090919290919091505550600080600086815260200190815260200160002060010160008473ffffffffffffffffffffffffffffffffffffffff1673ffffffffffffffffffffffffffffffffffffffff16815260200190815260200160002060006101000a81548160ff021916908315150217905550600160008086815260200190815260200160002060010160008773ffffffffffffffffffffffffffffffffffffffff1673ffffffffffffffffffffffffffffffffffffffff16815260200190815260200160002060006101000a81548160ff02191690831515021790555084600260006101000a81548173ffffffffffffffffffffffffffffffffffffffff021916908373ffffffffffffffffffffffffffffffffffffffff16021790555060019250610e8e565b60008085815260200190815260200160002060000160009054906101000a900473ffffffffffffffffffffffffffffffffffffffff1690508173ffffffffffffffffffffffffffffffffffffffff168173ffffffffffffffffffffffffffffffffffffffff16630ba32b276040518163ffffffff167c0100000000000000000000000000000000000000000000000000000000028152600401602060405180830381600087803b158015610d1457600080fd5b505af1158015610d28573d6000803e3d6000fd5b505050506040513d6020811015610d3e57600080fd5b810190808051906020019092919050505073ffffffffffffffffffffffffffffffffffffffff161415610e8957600160008673ffffffffffffffffffffffffffffffffffffffff1673ffffffffffffffffffffffffffffffffffffffff168152602001908152602001600020849080600181540180825580915050906001820390600052602060002001600090919290919091505550600160008086815260200190815260200160002060010160008773ffffffffffffffffffffffffffffffffffffffff1673ffffffffffffffffffffffffffffffffffffffff16815260200190815260200160002060006101000a81548160ff02191690831515021790555084600260006101000a81548173ffffffffffffffffffffffffffffffffffffffff021916908373ffffffffffffffffffffffffffffffffffffffff16021790555060019250610e8e565b600092505b505092915050565b600260009054906101000a900473ffffffffffffffffffffffffffffffffffffffff1681565b6000600260009054906101000a900473ffffffffffffffffffffffffffffffffffffffff16905090565b6000806000600160008573ffffffffffffffffffffffffffffffffffffffff1673ffffffffffffffffffffffffffffffffffffffff168152602001908152602001600020925060009150600090505b828054905081101561109057848382815481101515610f5057fe5b906000526020600020015414156110835760019150600160008573ffffffffffffffffffffffffffffffffffffffff1673ffffffffffffffffffffffffffffffffffffffff1681526020019081526020016000206001848054905003815481101515610fb857fe5b9060005260206000200154600160008673ffffffffffffffffffffffffffffffffffffffff1673ffffffffffffffffffffffffffffffffffffffff1681526020019081526020016000208281548110151561100f57fe5b9060005260206000200181905550600160008573ffffffffffffffffffffffffffffffffffffffff1673ffffffffffffffffffffffffffffffffffffffff168152602001908152602001600020600184805490500381548110151561107057fe5b9060005260206000200160009055611090565b8080600101915050610f35565b600115158215151415156110a357600080fd5b50505050505600a165627a7a72305820659b5e9fdb9d49d2da3521008796618178980a4a85c22c672b84498043d94e500029",
  "source": "pragma solidity ^0.4.22;\n\nimport \"./Relationship.sol\";\n\ncontract Ledger {\n    struct reference {\n        address relationship;\n        mapping(address => bool) payment;// the address of the validaters\n    }\n\n    // mapping( => bool) public isReference;\n    mapping(uint256 => reference) references; // the references of the payments\n\n    // mapping(address => uint256[]) ownedRecordReferences; // the references of the owned records\n    mapping(address => uint256[]) sharedRecordReferences; // records rewarded from others\n\n    address public coinbase;\n\n    function addReference(address _relationship) public {\n        // check the reference legality(exist in the sender's relationship)\n        // check whether the sender is the patron of the relationship\n        require(_relationship != address(0));\n        Relationship relationship = Relationship(_relationship);\n        require(relationship.patron() == tx.origin);\n\n        //check whether the hash of the relastionship is already in the references\n        uint256 _relationshipHash = uint256(keccak256(_relationship));\n        require(references[_relationshipHash].relationship == address(0));\n        \n        // add the reference\n        references[_relationshipHash].relationship = _relationship;\n    }\n\n    function addPayment(address _validator, uint256 _id) public constant returns (bool) {\n        \n        // check whether the validator in the references\n        require(references[_id].relationship != address(0));\n        require(references[_id].payment[_validator] == false);\n        \n        address payer = tx.origin;\n\n        if(references[_id].payment[payer] == true){\n            //pay from shared records\n            //remove _id from sharedRecordReferences, and add it to validator's sharedRecordReferences\n            removeSharedRecordReference(_id, payer);\n            sharedRecordReferences[_validator].push(_id);\n\n            references[_id].payment[payer] = false;\n            references[_id].payment[_validator] = true;\n            coinbase = _validator;\n            return true;\n        }\n        Relationship relationship = Relationship(references[_id].relationship);\n        if(relationship.patron() == payer){\n            //pay from owned records\n            sharedRecordReferences[_validator].push(_id);\n\n            references[_id].payment[_validator] = true;\n            coinbase = _validator;\n            return true;\n        }\n        return false;\n    }\n\n    function viewRecord(uint256 _id) public {\n        // check whether the validator in the references\n        address _viewer = msg.sender;\n        require(references[_id].relationship != address(0));\n        require(references[_id].payment[_viewer] == true);\n\n        // remove _id from getSharedRecordReferences\n        removeSharedRecordReference(_id, _viewer);\n        // send transaction to relationship\n        address targetAddr = references[_id].relationship;\n        Relationship TargetR = Relationship(targetAddr);\n        TargetR.addAnonymousViewer(msg.sender);\n\n        references[_id].payment[_viewer] = false;\n    }\n\n    function getRelationship(uint256 _id) public constant returns (address) {\n        return references[_id].relationship;\n    }\n\n    function getCoinbase() public constant returns (address) {\n        return coinbase;\n    }\n\n    function checkTargetRecordValidator(uint256 _id, address target) returns (bool){\n        return references[_id].payment[target];\n    }\n    \n    function getSharedRecordReferences() public constant returns (uint256[]) {\n        return sharedRecordReferences[msg.sender];\n    }\n\n    function removeSharedRecordReference(uint256 _id, address _owner) public {\n        uint256[] sharedRecords = sharedRecordReferences[_owner];\n        bool exist = false;\n        for(uint256 i = 0; i < sharedRecords.length; i++){\n            if(sharedRecords[i] == _id){\n                exist = true;\n                // remove the reference from ownedRecordReferences\n                sharedRecordReferences[_owner][i] = sharedRecordReferences[_owner][sharedRecords.length - 1];\n                delete sharedRecordReferences[_owner][sharedRecords.length - 1];\n                break;\n            }\n        }\n        require(exist == true);\n    }\n}",
  "sourcePath": "/Users/zhenliang/Documents/23spring/bcc/truffle/contracts/Ledger.sol",
  "compiler": {
    "name": "solc",
    "version": "0.4.22+commit.4cb486ee.Emscripten.clang"
  },
  "schemaVersion": "3.4.13",
  "updatedAt": "2023-05-11T09:13:26.836Z",
  "devdoc": {
    "methods": {}
  },
  "userdoc": {
    "methods": {}
  }
}