{
  "contractName": "Ledger",
  "abi": [
    {
      "constant": true,
      "inputs": [
        {
          "name": "",
          "type": "uint256"
        }
      ],
      "name": "references",
      "outputs": [
        {
          "name": "relationship",
          "type": "address"
        }
      ],
      "payable": false,
      "type": "function"
    },
    {
      "constant": false,
      "inputs": [
        {
          "name": "_relationship",
          "type": "address"
        }
      ],
      "name": "addReference",
      "outputs": [],
      "payable": false,
      "type": "function"
    },
    {
      "constant": false,
      "inputs": [
        {
          "name": "_validator",
          "type": "address"
        },
        {
          "name": "_id",
          "type": "uint256"
        },
        {
          "name": "_payer",
          "type": "address"
        }
      ],
      "name": "addPayment",
      "outputs": [
        {
          "name": "",
          "type": "bool"
        }
      ],
      "payable": false,
      "type": "function"
    },
    {
      "constant": false,
      "inputs": [
        {
          "name": "_id",
          "type": "uint256"
        },
        {
          "name": "_viewer",
          "type": "address"
        }
      ],
      "name": "viewRecord",
      "outputs": [
        {
          "name": "",
          "type": "bool"
        }
      ],
      "payable": false,
      "type": "function"
    }
  ],
  "bytecode": "0x6060604052341561000f57600080fd5b5b6109598061001f6000396000f30060606040526000357c0100000000000000000000000000000000000000000000000000000000900463ffffffff16806304866b901461005f5780630fb3395c146100c2578063c5bf2c5b146100fb578063fdd1187d14610155575b600080fd5b341561006a57600080fd5b61008060048080359060200190919050506101ce565b604051808273ffffffffffffffffffffffffffffffffffffffff1673ffffffffffffffffffffffffffffffffffffffff16815260200191505060405180910390f35b34156100cd57600080fd5b6100f9600480803573ffffffffffffffffffffffffffffffffffffffff1690602001909190505061020c565b005b341561010657600080fd5b61013b600480803590602001909190803573ffffffffffffffffffffffffffffffffffffffff1690602001909190505061042f565b604051808215151515815260200191505060405180910390f35b341561016057600080fd5b6101b4600480803573ffffffffffffffffffffffffffffffffffffffff1690602001909190803590602001909190803573ffffffffffffffffffffffffffffffffffffffff16906020019091905050610589565b604051808215151515815260200191505060405180910390f35b60006020528060005260406000206000915090508060000160009054906101000a900473ffffffffffffffffffffffffffffffffffffffff16905081565b600080600073ffffffffffffffffffffffffffffffffffffffff168373ffffffffffffffffffffffffffffffffffffffff161415151561024b57600080fd5b8291503273ffffffffffffffffffffffffffffffffffffffff168273ffffffffffffffffffffffffffffffffffffffff16630ba32b276000604051602001526040518163ffffffff167c0100000000000000000000000000000000000000000000000000000000028152600401602060405180830381600087803b15156102d157600080fd5b6102c65a03f115156102e257600080fd5b5050506040518051905073ffffffffffffffffffffffffffffffffffffffff1614151561030e57600080fd5b82604051808273ffffffffffffffffffffffffffffffffffffffff1673ffffffffffffffffffffffffffffffffffffffff166c010000000000000000000000000281526014019150506040518091039020600190049050600073ffffffffffffffffffffffffffffffffffffffff1660008083815260200190815260200160002060000160009054906101000a900473ffffffffffffffffffffffffffffffffffffffff1673ffffffffffffffffffffffffffffffffffffffff161415156103d557600080fd5b8260008083815260200190815260200160002060000160006101000a81548173ffffffffffffffffffffffffffffffffffffffff021916908373ffffffffffffffffffffffffffffffffffffffff1602179055505b505050565b60008073ffffffffffffffffffffffffffffffffffffffff1660008085815260200190815260200160002060000160009054906101000a900473ffffffffffffffffffffffffffffffffffffffff1673ffffffffffffffffffffffffffffffffffffffff16141515156104a157600080fd5b6001151560008085815260200190815260200160002060010160008473ffffffffffffffffffffffffffffffffffffffff1673ffffffffffffffffffffffffffffffffffffffff16815260200190815260200160002060009054906101000a900460ff16151514151561051357600080fd5b600080600085815260200190815260200160002060010160008473ffffffffffffffffffffffffffffffffffffffff1673ffffffffffffffffffffffffffffffffffffffff16815260200190815260200160002060006101000a81548160ff021916908315150217905550600190505b92915050565b600080600073ffffffffffffffffffffffffffffffffffffffff1660008086815260200190815260200160002060000160009054906101000a900473ffffffffffffffffffffffffffffffffffffffff1673ffffffffffffffffffffffffffffffffffffffff16141515156105fd57600080fd5b6000151560008086815260200190815260200160002060010160008773ffffffffffffffffffffffffffffffffffffffff1673ffffffffffffffffffffffffffffffffffffffff16815260200190815260200160002060009054906101000a900460ff16151514151561066f57600080fd5b6001151560008086815260200190815260200160002060010160008573ffffffffffffffffffffffffffffffffffffffff1673ffffffffffffffffffffffffffffffffffffffff16815260200190815260200160002060009054906101000a900460ff16151514156107ba57600080600086815260200190815260200160002060010160008573ffffffffffffffffffffffffffffffffffffffff1673ffffffffffffffffffffffffffffffffffffffff16815260200190815260200160002060006101000a81548160ff021916908315150217905550600160008086815260200190815260200160002060010160008773ffffffffffffffffffffffffffffffffffffffff1673ffffffffffffffffffffffffffffffffffffffff16815260200190815260200160002060006101000a81548160ff02191690831515021790555060019150610925565b60008085815260200190815260200160002060000160009054906101000a900473ffffffffffffffffffffffffffffffffffffffff1690508273ffffffffffffffffffffffffffffffffffffffff168173ffffffffffffffffffffffffffffffffffffffff16630ba32b276000604051602001526040518163ffffffff167c0100000000000000000000000000000000000000000000000000000000028152600401602060405180830381600087803b151561087557600080fd5b6102c65a03f1151561088657600080fd5b5050506040518051905073ffffffffffffffffffffffffffffffffffffffff16141561092057600160008086815260200190815260200160002060010160008773ffffffffffffffffffffffffffffffffffffffff1673ffffffffffffffffffffffffffffffffffffffff16815260200190815260200160002060006101000a81548160ff02191690831515021790555060019150610925565b600091505b5093925050505600a165627a7a7230582069f6aa6415b05bd1a68d6adbd14f1c957789bbee2185b8dcddc27d32cf0f8a8e0029",
  "source": "pragma solidity ^0.4.15;\n\nimport \"./Relationship.sol\";\n\ncontract Ledger {\n    struct reference {\n        address relationship;\n        mapping(address => bool) payment;// the address of the validaters\n    }\n\n    // mapping( => bool) public isReference;\n    mapping(uint256 => reference) public references; // the references of the payments\n\n    function addReference(address _relationship) public {\n        // check the reference legality(exist in the sender's relationship)\n        // check whether the sender is the patron of the relationship\n        require(_relationship != address(0));\n        Relationship relationship = Relationship(_relationship);\n        require(relationship.patron() == tx.origin);\n        //check whether the hash of the relastionship is already in the references\n        uint256 _relationshipHash = uint256(keccak256(_relationship));\n        require(references[_relationshipHash].relationship == address(0));\n        \n        // add the reference\n        references[_relationshipHash].relationship = _relationship;\n    }\n\n    function addPayment(address _validator, uint256 _id, address _payer) public returns (bool) {\n        // check whether the validator in the references\n        require(references[_id].relationship != address(0));\n        require(references[_id].payment[_validator] == false);\n        if(references[_id].payment[_payer] == true){\n            references[_id].payment[_payer] = false;\n            references[_id].payment[_validator] = true;\n            return true;\n        }\n        Relationship relationship = Relationship(references[_id].relationship);\n        if(relationship.patron() == _payer){\n            references[_id].payment[_validator] = true;\n            return true;\n        }\n        return false;\n    }\n\n    function viewRecord(uint256 _id, address _viewer) public returns (bool) {\n        // check whether the validator in the references\n        require(references[_id].relationship != address(0));\n        require(references[_id].payment[_viewer] == true);\n        //to-do: send transaction to relationship\n\n        references[_id].payment[_viewer] = false;\n        return true;\n    }\n}",
  "sourcePath": "/Users/zhenliang/Documents/23spring/bcc/truffle/contracts/Ledger.sol",
  "compiler": {
    "name": "solc",
    "version": "0.4.15+commit.bbb8e64f.Emscripten.clang"
  },
  "schemaVersion": "3.4.13",
  "updatedAt": "2023-05-06T22:50:00.168Z",
  "devdoc": {
    "methods": {}
  },
  "userdoc": {
    "methods": {}
  }
}