{
  "contractName": "Ledger",
  "abi": [
    {
      "constant": true,
      "inputs": [],
      "name": "coinbase",
      "outputs": [
        {
          "name": "",
          "type": "address"
        }
      ],
      "payable": false,
      "type": "function"
    },
    {
      "constant": false,
      "inputs": [
        {
          "name": "_relationship",
          "type": "address"
        }
      ],
      "name": "addReference",
      "outputs": [],
      "payable": false,
      "type": "function"
    },
    {
      "constant": true,
      "inputs": [
        {
          "name": "_validator",
          "type": "address"
        },
        {
          "name": "_id",
          "type": "uint256"
        }
      ],
      "name": "addPayment",
      "outputs": [
        {
          "name": "",
          "type": "bool"
        }
      ],
      "payable": false,
      "type": "function"
    },
    {
      "constant": true,
      "inputs": [
        {
          "name": "_id",
          "type": "uint256"
        },
        {
          "name": "_viewer",
          "type": "address"
        }
      ],
      "name": "viewRecord",
      "outputs": [
        {
          "name": "",
          "type": "bool"
        }
      ],
      "payable": false,
      "type": "function"
    },
    {
      "constant": true,
      "inputs": [
        {
          "name": "_id",
          "type": "uint256"
        }
      ],
      "name": "getRelationship",
      "outputs": [
        {
          "name": "",
          "type": "address"
        }
      ],
      "payable": false,
      "type": "function"
    },
    {
      "constant": true,
      "inputs": [],
      "name": "getCoinbase",
      "outputs": [
        {
          "name": "",
          "type": "address"
        }
      ],
      "payable": false,
      "type": "function"
    },
    {
      "constant": false,
      "inputs": [
        {
          "name": "_id",
          "type": "uint256"
        },
        {
          "name": "target",
          "type": "address"
        }
      ],
      "name": "checkTargetRecordValidator",
      "outputs": [
        {
          "name": "",
          "type": "bool"
        }
      ],
      "payable": false,
      "type": "function"
    },
    {
      "constant": true,
      "inputs": [],
      "name": "getSharedRecordReferences",
      "outputs": [
        {
          "name": "",
          "type": "uint256[]"
        }
      ],
      "payable": false,
      "type": "function"
    },
    {
      "constant": false,
      "inputs": [
        {
          "name": "_id",
          "type": "uint256"
        },
        {
          "name": "_owner",
          "type": "address"
        }
      ],
      "name": "removeSharedRecordReference",
      "outputs": [],
      "payable": false,
      "type": "function"
    }
  ],
  "bytecode": "0x6060604052341561000f57600080fd5b5b6111178061001f6000396000f30060606040523615610097576000357c0100000000000000000000000000000000000000000000000000000000900463ffffffff1680630800399f1461009c5780630fb3395c146100f6578063322e41b51461012f57806381cf79031461019257806385bac237146101fd578063a6ae0aac14610257578063c5bf2c5b146102ac578063d1a82a9d14610306578063d759ca331461035b575b600080fd5b34156100a757600080fd5b6100dc600480803590602001909190803573ffffffffffffffffffffffffffffffffffffffff1690602001909190505061039d565b604051808215151515815260200191505060405180910390f35b341561010157600080fd5b61012d600480803573ffffffffffffffffffffffffffffffffffffffff16906020019091905050610408565b005b341561013a57600080fd5b610150600480803590602001909190505061062b565b604051808273ffffffffffffffffffffffffffffffffffffffff1673ffffffffffffffffffffffffffffffffffffffff16815260200191505060405180910390f35b341561019d57600080fd5b6101a561066b565b6040518080602001828103825283818151815260200191508051906020019060200280838360005b838110156101e95780820151818401525b6020810190506101cd565b505050509050019250505060405180910390f35b341561020857600080fd5b61023d600480803573ffffffffffffffffffffffffffffffffffffffff16906020019091908035906020019091905050610707565b604051808215151515815260200191505060405180910390f35b341561026257600080fd5b61026a610c09565b604051808273ffffffffffffffffffffffffffffffffffffffff1673ffffffffffffffffffffffffffffffffffffffff16815260200191505060405180910390f35b34156102b757600080fd5b6102ec600480803590602001909190803573ffffffffffffffffffffffffffffffffffffffff16906020019091905050610c2f565b604051808215151515815260200191505060405180910390f35b341561031157600080fd5b610319610e81565b604051808273ffffffffffffffffffffffffffffffffffffffff1673ffffffffffffffffffffffffffffffffffffffff16815260200191505060405180910390f35b341561036657600080fd5b61039b600480803590602001909190803573ffffffffffffffffffffffffffffffffffffffff16906020019091905050610eac565b005b600080600084815260200190815260200160002060010160008373ffffffffffffffffffffffffffffffffffffffff1673ffffffffffffffffffffffffffffffffffffffff16815260200190815260200160002060009054906101000a900460ff1690505b92915050565b600080600073ffffffffffffffffffffffffffffffffffffffff168373ffffffffffffffffffffffffffffffffffffffff161415151561044757600080fd5b8291503273ffffffffffffffffffffffffffffffffffffffff168273ffffffffffffffffffffffffffffffffffffffff16630ba32b276000604051602001526040518163ffffffff167c0100000000000000000000000000000000000000000000000000000000028152600401602060405180830381600087803b15156104cd57600080fd5b6102c65a03f115156104de57600080fd5b5050506040518051905073ffffffffffffffffffffffffffffffffffffffff1614151561050a57600080fd5b82604051808273ffffffffffffffffffffffffffffffffffffffff1673ffffffffffffffffffffffffffffffffffffffff166c010000000000000000000000000281526014019150506040518091039020600190049050600073ffffffffffffffffffffffffffffffffffffffff1660008083815260200190815260200160002060000160009054906101000a900473ffffffffffffffffffffffffffffffffffffffff1673ffffffffffffffffffffffffffffffffffffffff161415156105d157600080fd5b8260008083815260200190815260200160002060000160006101000a81548173ffffffffffffffffffffffffffffffffffffffff021916908373ffffffffffffffffffffffffffffffffffffffff1602179055505b505050565b600080600083815260200190815260200160002060000160009054906101000a900473ffffffffffffffffffffffffffffffffffffffff1690505b919050565b610673611086565b600160003373ffffffffffffffffffffffffffffffffffffffff1673ffffffffffffffffffffffffffffffffffffffff1681526020019081526020016000208054806020026020016040519081016040528092919081815260200182805480156106fc57602002820191906000526020600020905b8154815260200190600101908083116106e8575b505050505090505b90565b60008060008073ffffffffffffffffffffffffffffffffffffffff1660008086815260200190815260200160002060000160009054906101000a900473ffffffffffffffffffffffffffffffffffffffff1673ffffffffffffffffffffffffffffffffffffffff161415151561077c57600080fd5b6000151560008086815260200190815260200160002060010160008773ffffffffffffffffffffffffffffffffffffffff1673ffffffffffffffffffffffffffffffffffffffff16815260200190815260200160002060009054906101000a900460ff1615151415156107ee57600080fd5b3291506001151560008086815260200190815260200160002060010160008473ffffffffffffffffffffffffffffffffffffffff1673ffffffffffffffffffffffffffffffffffffffff16815260200190815260200160002060009054906101000a900460ff16151514156109ee576108678483610eac565b600160008673ffffffffffffffffffffffffffffffffffffffff1673ffffffffffffffffffffffffffffffffffffffff16815260200190815260200160002080548060010182816108b8919061109a565b916000526020600020900160005b8690919091505550600080600086815260200190815260200160002060010160008473ffffffffffffffffffffffffffffffffffffffff1673ffffffffffffffffffffffffffffffffffffffff16815260200190815260200160002060006101000a81548160ff021916908315150217905550600160008086815260200190815260200160002060010160008773ffffffffffffffffffffffffffffffffffffffff1673ffffffffffffffffffffffffffffffffffffffff16815260200190815260200160002060006101000a81548160ff02191690831515021790555084600260006101000a81548173ffffffffffffffffffffffffffffffffffffffff021916908373ffffffffffffffffffffffffffffffffffffffff16021790555060019250610c01565b60008085815260200190815260200160002060000160009054906101000a900473ffffffffffffffffffffffffffffffffffffffff1690508173ffffffffffffffffffffffffffffffffffffffff168173ffffffffffffffffffffffffffffffffffffffff16630ba32b276000604051602001526040518163ffffffff167c0100000000000000000000000000000000000000000000000000000000028152600401602060405180830381600087803b1515610aa957600080fd5b6102c65a03f11515610aba57600080fd5b5050506040518051905073ffffffffffffffffffffffffffffffffffffffff161415610bfc57600160008673ffffffffffffffffffffffffffffffffffffffff1673ffffffffffffffffffffffffffffffffffffffff1681526020019081526020016000208054806001018281610b31919061109a565b916000526020600020900160005b8690919091505550600160008086815260200190815260200160002060010160008773ffffffffffffffffffffffffffffffffffffffff1673ffffffffffffffffffffffffffffffffffffffff16815260200190815260200160002060006101000a81548160ff02191690831515021790555084600260006101000a81548173ffffffffffffffffffffffffffffffffffffffff021916908373ffffffffffffffffffffffffffffffffffffffff16021790555060019250610c01565b600092505b505092915050565b600260009054906101000a900473ffffffffffffffffffffffffffffffffffffffff1681565b60008060008073ffffffffffffffffffffffffffffffffffffffff1660008087815260200190815260200160002060000160009054906101000a900473ffffffffffffffffffffffffffffffffffffffff1673ffffffffffffffffffffffffffffffffffffffff1614151515610ca457600080fd5b6001151560008087815260200190815260200160002060010160008673ffffffffffffffffffffffffffffffffffffffff1673ffffffffffffffffffffffffffffffffffffffff16815260200190815260200160002060009054906101000a900460ff161515141515610d1657600080fd5b610d208585610eac565b60008086815260200190815260200160002060000160009054906101000a900473ffffffffffffffffffffffffffffffffffffffff1691508190508073ffffffffffffffffffffffffffffffffffffffff16632f286c12336040518263ffffffff167c0100000000000000000000000000000000000000000000000000000000028152600401808273ffffffffffffffffffffffffffffffffffffffff1673ffffffffffffffffffffffffffffffffffffffff168152602001915050600060405180830381600087803b1515610df557600080fd5b6102c65a03f11515610e0657600080fd5b505050600080600087815260200190815260200160002060010160008673ffffffffffffffffffffffffffffffffffffffff1673ffffffffffffffffffffffffffffffffffffffff16815260200190815260200160002060006101000a81548160ff021916908315150217905550600192505b505092915050565b6000600260009054906101000a900473ffffffffffffffffffffffffffffffffffffffff1690505b90565b6000806000600160008573ffffffffffffffffffffffffffffffffffffffff1673ffffffffffffffffffffffffffffffffffffffff168152602001908152602001600020925060009150600090505b828054905081101561106b57848382815481101515610f1657fe5b906000526020600020900160005b5054141561105d5760019150600160008573ffffffffffffffffffffffffffffffffffffffff1673ffffffffffffffffffffffffffffffffffffffff1681526020019081526020016000206001848054905003815481101515610f8357fe5b906000526020600020900160005b5054600160008673ffffffffffffffffffffffffffffffffffffffff1673ffffffffffffffffffffffffffffffffffffffff16815260200190815260200160002082815481101515610fdf57fe5b906000526020600020900160005b5081905550600160008573ffffffffffffffffffffffffffffffffffffffff1673ffffffffffffffffffffffffffffffffffffffff168152602001908152602001600020600184805490500381548110151561104557fe5b906000526020600020900160005b506000905561106b565b5b8080600101915050610efb565b6001151582151514151561107e57600080fd5b5b5050505050565b602060405190810160405280600081525090565b8154818355818115116110c1578183600052602060002091820191016110c091906110c6565b5b505050565b6110e891905b808211156110e45760008160009055506001016110cc565b5090565b905600a165627a7a7230582056faa39fac0821d3bf80293d55acd3a50ec637abf712cbd70362520ec76571110029",
  "source": "pragma solidity ^0.4.15;\n\nimport \"./Relationship.sol\";\n\ncontract Ledger {\n    struct reference {\n        address relationship;\n        mapping(address => bool) payment;// the address of the validaters\n    }\n\n    // mapping( => bool) public isReference;\n    mapping(uint256 => reference) references; // the references of the payments\n\n    // mapping(address => uint256[]) ownedRecordReferences; // the references of the owned records\n    mapping(address => uint256[]) sharedRecordReferences; // records rewarded from others\n\n    address public coinbase;\n\n    function addReference(address _relationship) public {\n        // check the reference legality(exist in the sender's relationship)\n        // check whether the sender is the patron of the relationship\n        require(_relationship != address(0));\n        Relationship relationship = Relationship(_relationship);\n        require(relationship.patron() == tx.origin);\n\n        //check whether the hash of the relastionship is already in the references\n        uint256 _relationshipHash = uint256(keccak256(_relationship));\n        require(references[_relationshipHash].relationship == address(0));\n        \n        // add the reference\n        references[_relationshipHash].relationship = _relationship;\n    }\n\n    function addPayment(address _validator, uint256 _id) public constant returns (bool) {\n        \n        // check whether the validator in the references\n        require(references[_id].relationship != address(0));\n        require(references[_id].payment[_validator] == false);\n        \n        address payer = tx.origin;\n\n        if(references[_id].payment[payer] == true){\n            //pay from shared records\n            //remove _id from sharedRecordReferences, and add it to validator's sharedRecordReferences\n            removeSharedRecordReference(_id, payer);\n            sharedRecordReferences[_validator].push(_id);\n\n            references[_id].payment[payer] = false;\n            references[_id].payment[_validator] = true;\n            coinbase = _validator;\n            return true;\n        }\n        Relationship relationship = Relationship(references[_id].relationship);\n        if(relationship.patron() == payer){\n            //pay from owned records\n            sharedRecordReferences[_validator].push(_id);\n\n            references[_id].payment[_validator] = true;\n            coinbase = _validator;\n            return true;\n        }\n        return false;\n    }\n\n    function viewRecord(uint256 _id, address _viewer) public constant returns (bool) {\n        // check whether the validator in the references\n        require(references[_id].relationship != address(0));\n        require(references[_id].payment[_viewer] == true);\n\n        // remove _id from getSharedRecordReferences\n        removeSharedRecordReference(_id, _viewer);\n        // send transaction to relationship\n        address targetAddr = references[_id].relationship;\n        Relationship TargetR = Relationship(targetAddr);\n        TargetR.addAnonymousViewer(msg.sender);\n\n        references[_id].payment[_viewer] = false;\n        return true;\n    }\n\n    function getRelationship(uint256 _id) public constant returns (address) {\n        return references[_id].relationship;\n    }\n\n    function getCoinbase() public constant returns (address) {\n        return coinbase;\n    }\n\n    function checkTargetRecordValidator(uint256 _id, address target) returns (bool){\n        return references[_id].payment[target];\n    }\n    \n    function getSharedRecordReferences() public constant returns (uint256[]) {\n        return sharedRecordReferences[msg.sender];\n    }\n\n    function removeSharedRecordReference(uint256 _id, address _owner) {\n        uint256[] sharedRecords = sharedRecordReferences[_owner];\n        bool exist = false;\n        for(uint256 i = 0; i < sharedRecords.length; i++){\n            if(sharedRecords[i] == _id){\n                exist = true;\n                // remove the reference from ownedRecordReferences\n                sharedRecordReferences[_owner][i] = sharedRecordReferences[_owner][sharedRecords.length - 1];\n                delete sharedRecordReferences[_owner][sharedRecords.length - 1];\n                break;\n            }\n        }\n        require(exist == true);\n    }\n}",
  "sourcePath": "/Users/zhenliang/Documents/23spring/bcc/truffle/contracts/Ledger.sol",
  "compiler": {
    "name": "solc",
    "version": "0.4.15+commit.bbb8e64f.Emscripten.clang"
  },
  "schemaVersion": "3.4.13",
  "updatedAt": "2023-05-10T04:09:30.961Z",
  "devdoc": {
    "methods": {}
  },
  "userdoc": {
    "methods": {}
  }
}