{
  "contractName": "Relationship",
  "abi": [
    {
      "constant": true,
      "inputs": [],
      "name": "providerName",
      "outputs": [
        {
          "name": "",
          "type": "string"
        }
      ],
      "payable": false,
      "type": "function"
    },
    {
      "constant": true,
      "inputs": [],
      "name": "provider",
      "outputs": [
        {
          "name": "",
          "type": "address"
        }
      ],
      "payable": false,
      "type": "function"
    },
    {
      "constant": true,
      "inputs": [],
      "name": "patron",
      "outputs": [
        {
          "name": "",
          "type": "address"
        }
      ],
      "payable": false,
      "type": "function"
    },
    {
      "constant": true,
      "inputs": [],
      "name": "providerAddr",
      "outputs": [
        {
          "name": "",
          "type": "string"
        }
      ],
      "payable": false,
      "type": "function"
    },
    {
      "constant": true,
      "inputs": [
        {
          "name": "",
          "type": "address"
        }
      ],
      "name": "isViewer",
      "outputs": [
        {
          "name": "",
          "type": "bool"
        }
      ],
      "payable": false,
      "type": "function"
    },
    {
      "constant": true,
      "inputs": [],
      "name": "recordId",
      "outputs": [
        {
          "name": "",
          "type": "string"
        }
      ],
      "payable": false,
      "type": "function"
    },
    {
      "inputs": [
        {
          "name": "_provider",
          "type": "address"
        },
        {
          "name": "_id",
          "type": "string"
        }
      ],
      "payable": false,
      "type": "constructor"
    },
    {
      "constant": false,
      "inputs": [
        {
          "name": "addr",
          "type": "string"
        }
      ],
      "name": "setProviderAddress",
      "outputs": [],
      "payable": false,
      "type": "function"
    },
    {
      "constant": false,
      "inputs": [
        {
          "name": "name",
          "type": "string"
        }
      ],
      "name": "setProviderName",
      "outputs": [],
      "payable": false,
      "type": "function"
    },
    {
      "constant": false,
      "inputs": [],
      "name": "addViewerGroup",
      "outputs": [],
      "payable": false,
      "type": "function"
    },
    {
      "constant": false,
      "inputs": [
        {
          "name": "viewerGroup",
          "type": "uint256"
        }
      ],
      "name": "removeViewerGroup",
      "outputs": [],
      "payable": false,
      "type": "function"
    },
    {
      "constant": false,
      "inputs": [
        {
          "name": "name",
          "type": "string"
        },
        {
          "name": "viewerGroup",
          "type": "uint256"
        },
        {
          "name": "viewer",
          "type": "address"
        },
        {
          "name": "provAddr",
          "type": "string"
        }
      ],
      "name": "addViewer",
      "outputs": [],
      "payable": false,
      "type": "function"
    },
    {
      "constant": false,
      "inputs": [
        {
          "name": "viewerGroup",
          "type": "uint256"
        },
        {
          "name": "viewer",
          "type": "address"
        }
      ],
      "name": "removeViewer",
      "outputs": [],
      "payable": false,
      "type": "function"
    },
    {
      "constant": true,
      "inputs": [],
      "name": "getNumViewerGroups",
      "outputs": [
        {
          "name": "",
          "type": "uint256"
        }
      ],
      "payable": false,
      "type": "function"
    },
    {
      "constant": true,
      "inputs": [
        {
          "name": "group",
          "type": "uint256"
        }
      ],
      "name": "getNumViewers",
      "outputs": [
        {
          "name": "",
          "type": "uint256"
        }
      ],
      "payable": false,
      "type": "function"
    },
    {
      "constant": true,
      "inputs": [
        {
          "name": "group",
          "type": "uint256"
        },
        {
          "name": "index",
          "type": "uint256"
        }
      ],
      "name": "getViewer",
      "outputs": [
        {
          "name": "",
          "type": "address"
        }
      ],
      "payable": false,
      "type": "function"
    },
    {
      "constant": true,
      "inputs": [
        {
          "name": "name",
          "type": "string"
        }
      ],
      "name": "getViewerByName",
      "outputs": [
        {
          "name": "",
          "type": "address"
        }
      ],
      "payable": false,
      "type": "function"
    },
    {
      "constant": true,
      "inputs": [
        {
          "name": "addr",
          "type": "address"
        }
      ],
      "name": "getViewerName",
      "outputs": [
        {
          "name": "",
          "type": "string"
        }
      ],
      "payable": false,
      "type": "function"
    },
    {
      "constant": false,
      "inputs": [],
      "name": "terminate",
      "outputs": [],
      "payable": false,
      "type": "function"
    }
  ],
  "bytecode": "0x606060405234156200001057600080fd5b60405162001a6c38038062001a6c833981016040528080519060200190919080518201919050505b336000806101000a81548173ffffffffffffffffffffffffffffffffffffffff021916908373ffffffffffffffffffffffffffffffffffffffff16021790555081600160006101000a81548173ffffffffffffffffffffffffffffffffffffffff021916908373ffffffffffffffffffffffffffffffffffffffff1602179055508060049080519060200190620000d1929190620000db565b505b50506200018a565b828054600181600116156101000203166002900490600052602060002090601f016020900481019282601f106200011e57805160ff19168380011785556200014f565b828001600101855582156200014f579182015b828111156200014e57825182559160200191906001019062000131565b5b5090506200015e919062000162565b5090565b6200018791905b808211156200018357600081600090555060010162000169565b5090565b90565b6118d2806200019a6000396000f300606060405236156100f9576000357c0100000000000000000000000000000000000000000000000000000000900463ffffffff168062dad7d4146100fe578063019d8d5f1461018d578063085d4883146102555780630ba32b27146102aa5780630c08bf88146102ff578063231505bd146103145780632a7a832d146103a35780632bba6fb7146103da5780632f35de611461042b578063322eb71d146104545780633d2c886114610507578063444ee902146105645780637e26ea63146105c1578063a9ef01901461062d578063bc1d708714610642578063d97034d5146106df578063e267eea014610702578063f7dfe22b14610744575b600080fd5b341561010957600080fd5b6101116107d3565b6040518080602001828103825283818151815260200191508051906020019080838360005b838110156101525780820151818401525b602081019050610136565b50505050905090810190601f16801561017f5780820380516001836020036101000a031916815260200191505b509250505060405180910390f35b341561019857600080fd5b610253600480803590602001908201803590602001908080601f0160208091040260200160405190810160405280939291908181526020018383808284378201915050505050509190803590602001909190803573ffffffffffffffffffffffffffffffffffffffff1690602001909190803590602001908201803590602001908080601f01602080910402602001604051908101604052809392919081815260200183838082843782019150505050505091905050610871565b005b341561026057600080fd5b610268610a96565b604051808273ffffffffffffffffffffffffffffffffffffffff1673ffffffffffffffffffffffffffffffffffffffff16815260200191505060405180910390f35b34156102b557600080fd5b6102bd610abc565b604051808273ffffffffffffffffffffffffffffffffffffffff1673ffffffffffffffffffffffffffffffffffffffff16815260200191505060405180910390f35b341561030a57600080fd5b610312610ae1565b005b341561031f57600080fd5b610327610bd2565b6040518080602001828103825283818151815260200191508051906020019080838360005b838110156103685780820151818401525b60208101905061034c565b50505050905090810190601f1680156103955780820380516001836020036101000a031916815260200191505b509250505060405180910390f35b34156103ae57600080fd5b6103c46004808035906020019091905050610c70565b6040518082815260200191505060405180910390f35b34156103e557600080fd5b610411600480803573ffffffffffffffffffffffffffffffffffffffff16906020019091905050610c9c565b604051808215151515815260200191505060405180910390f35b341561043657600080fd5b61043e610cbc565b6040518082815260200191505060405180910390f35b341561045f57600080fd5b61048b600480803573ffffffffffffffffffffffffffffffffffffffff16906020019091905050610cca565b6040518080602001828103825283818151815260200191508051906020019080838360005b838110156104cc5780820151818401525b6020810190506104b0565b50505050905090810190601f1680156104f95780820380516001836020036101000a031916815260200191505b509250505060405180910390f35b341561051257600080fd5b610562600480803590602001908201803590602001908080601f01602080910402602001604051908101604052809392919081815260200183838082843782019150505050505091905050610db5565b005b341561056f57600080fd5b6105bf600480803590602001908201803590602001908080601f01602080910402602001604051908101604052809392919081815260200183838082843782019150505050505091905050610dd0565b005b34156105cc57600080fd5b6105eb6004808035906020019091908035906020019091905050610deb565b604051808273ffffffffffffffffffffffffffffffffffffffff1673ffffffffffffffffffffffffffffffffffffffff16815260200191505060405180910390f35b341561063857600080fd5b610640610e4e565b005b341561064d57600080fd5b61069d600480803590602001908201803590602001908080601f01602080910402602001604051908101604052809392919081815260200183838082843782019150505050505091905050610ec6565b604051808273ffffffffffffffffffffffffffffffffffffffff1673ffffffffffffffffffffffffffffffffffffffff16815260200191505060405180910390f35b34156106ea57600080fd5b6107006004808035906020019091905050610f5d565b005b341561070d57600080fd5b610742600480803590602001909190803573ffffffffffffffffffffffffffffffffffffffff16906020019091905050611169565b005b341561074f57600080fd5b610757611520565b6040518080602001828103825283818151815260200191508051906020019080838360005b838110156107985780820151818401525b60208101905061077c565b50505050905090810190601f1680156107c55780820380516001836020036101000a031916815260200191505b509250505060405180910390f35b60038054600181600116156101000203166002900480601f0160208091040260200160405190810160405280929190818152602001828054600181600116156101000203166002900480156108695780601f1061083e57610100808354040283529160200191610869565b820191906000526020600020905b81548152906001019060200180831161084c57829003601f168201915b505050505081565b6000809054906101000a900473ffffffffffffffffffffffffffffffffffffffff1673ffffffffffffffffffffffffffffffffffffffff163373ffffffffffffffffffffffffffffffffffffffff161415156108cc57600080fd5b600660008373ffffffffffffffffffffffffffffffffffffffff1673ffffffffffffffffffffffffffffffffffffffff16815260200190815260200160002060009054906101000a900460ff1615151561092557600080fd5b6001600660008473ffffffffffffffffffffffffffffffffffffffff1673ffffffffffffffffffffffffffffffffffffffff16815260200190815260200160002060006101000a81548160ff02191690831515021790555060058381548110151561098c57fe5b906000526020600020900160005b5080548060010182816109ad91906115be565b916000526020600020900160005b84909190916101000a81548173ffffffffffffffffffffffffffffffffffffffff021916908373ffffffffffffffffffffffffffffffffffffffff16021790555050604080519081016040528085815260200182815250600760008473ffffffffffffffffffffffffffffffffffffffff1673ffffffffffffffffffffffffffffffffffffffff1681526020019081526020016000206000820151816000019080519060200190610a6d9291906115ea565b506020820151816001019080519060200190610a8a9291906115ea565b509050505b5b50505050565b600160009054906101000a900473ffffffffffffffffffffffffffffffffffffffff1681565b6000809054906101000a900473ffffffffffffffffffffffffffffffffffffffff1681565b6000809054906101000a900473ffffffffffffffffffffffffffffffffffffffff1673ffffffffffffffffffffffffffffffffffffffff163373ffffffffffffffffffffffffffffffffffffffff1614158015610b8c5750600160009054906101000a900473ffffffffffffffffffffffffffffffffffffffff1673ffffffffffffffffffffffffffffffffffffffff163373ffffffffffffffffffffffffffffffffffffffff1614155b15610b9657600080fd5b6000809054906101000a900473ffffffffffffffffffffffffffffffffffffffff1673ffffffffffffffffffffffffffffffffffffffff16ff5b565b60028054600181600116156101000203166002900480601f016020809104026020016040519081016040528092919081815260200182805460018160011615610100020316600290048015610c685780601f10610c3d57610100808354040283529160200191610c68565b820191906000526020600020905b815481529060010190602001808311610c4b57829003601f168201915b505050505081565b6000600582815481101515610c8157fe5b906000526020600020900160005b508054905090505b919050565b60066020528060005260406000206000915054906101000a900460ff1681565b600060058054905090505b90565b610cd261166a565b600760008373ffffffffffffffffffffffffffffffffffffffff1673ffffffffffffffffffffffffffffffffffffffff1681526020019081526020016000206000018054600181600116156101000203166002900480601f016020809104026020016040519081016040528092919081815260200182805460018160011615610100020316600290048015610da85780601f10610d7d57610100808354040283529160200191610da8565b820191906000526020600020905b815481529060010190602001808311610d8b57829003601f168201915b505050505090505b919050565b8060029080519060200190610dcb92919061167e565b505b50565b8060039080519060200190610de692919061167e565b505b50565b6000600583815481101515610dfc57fe5b906000526020600020900160005b5082815481101515610e1857fe5b906000526020600020900160005b9054906101000a900473ffffffffffffffffffffffffffffffffffffffff1690505b92915050565b6000809054906101000a900473ffffffffffffffffffffffffffffffffffffffff1673ffffffffffffffffffffffffffffffffffffffff163373ffffffffffffffffffffffffffffffffffffffff16141515610ea957600080fd5b6001600581818054905001915081610ec191906116fe565b505b5b565b60006008826040518082805190602001908083835b602083101515610f0157805182525b602082019150602081019050602083039250610edb565b6001836020036101000a038019825116818451168082178552505050505050905001915050908152602001604051809103902060009054906101000a900473ffffffffffffffffffffffffffffffffffffffff1690505b919050565b60008060008060009054906101000a900473ffffffffffffffffffffffffffffffffffffffff1673ffffffffffffffffffffffffffffffffffffffff163373ffffffffffffffffffffffffffffffffffffffff16141515610fbd57600080fd5b600584815481101515610fcc57fe5b906000526020600020900160005b50805490509250600091505b828210156110ab5760006006600060058781548110151561100357fe5b906000526020600020900160005b508581548110151561101f57fe5b906000526020600020900160005b9054906101000a900473ffffffffffffffffffffffffffffffffffffffff1673ffffffffffffffffffffffffffffffffffffffff1673ffffffffffffffffffffffffffffffffffffffff16815260200190815260200160002060006101000a81548160ff0219169083151502179055505b8180600101925050610fe6565b60058054905090506001840191505b8082101561111e576005828154811015156110d157fe5b906000526020600020900160005b506005600184038154811015156110f257fe5b906000526020600020900160005b5090805461110f92919061172a565b505b81806001019250506110ba565b60056001820381548110151561113057fe5b906000526020600020900160005b611148919061177c565b600160058181805490500391508161116091906116fe565b505b5b50505050565b60008060008060009054906101000a900473ffffffffffffffffffffffffffffffffffffffff1673ffffffffffffffffffffffffffffffffffffffff163373ffffffffffffffffffffffffffffffffffffffff161415156111c957600080fd5b600660008573ffffffffffffffffffffffffffffffffffffffff1673ffffffffffffffffffffffffffffffffffffffff16815260200190815260200160002060009054906101000a900460ff16151561122157600080fd5b6000600660008673ffffffffffffffffffffffffffffffffffffffff1673ffffffffffffffffffffffffffffffffffffffff16815260200190815260200160002060006101000a81548160ff02191690831515021790555060058581548110151561128857fe5b906000526020600020900160005b5080549050925060009150600090505b82811015611423578115611385576005858154811015156112c357fe5b906000526020600020900160005b50818154811015156112df57fe5b906000526020600020900160005b9054906101000a900473ffffffffffffffffffffffffffffffffffffffff1660058681548110151561131b57fe5b906000526020600020900160005b506001830381548110151561133a57fe5b906000526020600020900160005b6101000a81548173ffffffffffffffffffffffffffffffffffffffff021916908373ffffffffffffffffffffffffffffffffffffffff1602179055505b8373ffffffffffffffffffffffffffffffffffffffff166005868154811015156113ab57fe5b906000526020600020900160005b50828154811015156113c757fe5b906000526020600020900160005b9054906101000a900473ffffffffffffffffffffffffffffffffffffffff1673ffffffffffffffffffffffffffffffffffffffff16141561141557600191505b5b80806001019150506112a6565b60058581548110151561143257fe5b906000526020600020900160005b506001840381548110151561145157fe5b906000526020600020900160005b6101000a81549073ffffffffffffffffffffffffffffffffffffffff0219169055600160058681548110151561149157fe5b906000526020600020900160005b50818180549050039150816114b4919061179e565b50600760008573ffffffffffffffffffffffffffffffffffffffff1673ffffffffffffffffffffffffffffffffffffffff1681526020019081526020016000206000808201600061150591906117ca565b60018201600061151591906117ca565b50505b5b5050505050565b60048054600181600116156101000203166002900480601f0160208091040260200160405190810160405280929190818152602001828054600181600116156101000203166002900480156115b65780601f1061158b576101008083540402835291602001916115b6565b820191906000526020600020905b81548152906001019060200180831161159957829003601f168201915b505050505081565b8154818355818115116115e5578183600052602060002091820191016115e49190611812565b5b505050565b828054600181600116156101000203166002900490600052602060002090601f016020900481019282601f1061162b57805160ff1916838001178555611659565b82800160010185558215611659579182015b8281111561165857825182559160200191906001019061163d565b5b5090506116669190611812565b5090565b602060405190810160405280600081525090565b828054600181600116156101000203166002900490600052602060002090601f016020900481019282601f106116bf57805160ff19168380011785556116ed565b828001600101855582156116ed579182015b828111156116ec5782518255916020019190600101906116d1565b5b5090506116fa9190611812565b5090565b815481835581811511611725578183600052602060002091820191016117249190611837565b5b505050565b82805482825590600052602060002090810192821561176b5760005260206000209182015b8281111561176a57825482559160010191906001019061174f565b5b5090506117789190611863565b5090565b508054600082559060005260206000209081019061179a9190611812565b5b50565b8154818355818115116117c5578183600052602060002091820191016117c49190611812565b5b505050565b50805460018160011615610100020316600290046000825580601f106117f0575061180f565b601f01602090049060005260206000209081019061180e9190611812565b5b50565b61183491905b80821115611830576000816000905550600101611818565b5090565b90565b61186091905b8082111561185c5760008181611853919061177c565b5060010161183d565b5090565b90565b6118a391905b8082111561189f57600081816101000a81549073ffffffffffffffffffffffffffffffffffffffff021916905550600101611869565b5090565b905600a165627a7a723058209c1f92870115cef8c1b1e17dd152088370bb3beaaec6e938a4965c1a21987ccf0029",
  "source": "pragma solidity ^0.4.15;\n\ncontract Relationship {\n    address public patron;\n    address public provider; // this is a unique address for the provider used only for this relationship\n    string public providerAddr; //encrypted provider address\n    string public providerName; //encrypted provider name\n    string public recordId; //mapping to the record in the provider's system\n    \n    struct Viewer {\n        string name;\n        string providerAddr; //the real provider address encypted so only the viewer can read\n    }\n\n    address[][] viewerGroups;\n    mapping(address => bool) public isViewer;\n    mapping(address => Viewer) viewerInfo;\n    mapping(string => address) viewerByName;\n\n    uint256 constant UINT256_MAX = ~uint256(0);\n\n    modifier isPatron() {\n        if(msg.sender != patron) revert();\n        _;\n    }\n\n    function Relationship(address _provider, string _id) public {\n        patron = msg.sender;\n        provider = _provider;\n        recordId = _id;\n    }\n\n/****These functions should be left commented out until a use case for them arises\n  function setPatron(address addr) isPatron {\n    patron = addr;\n  }\n  function setProvider(address addr) isPatron {\n    provider = addr;\n  }\n******************/\n\nfunction setProviderAddress(string addr) public {\n    providerAddr = addr;\n}\n\nfunction setProviderName(string name) public {\n  providerName = name;\n}\n\nfunction addViewerGroup() public isPatron {\n    viewerGroups.length += 1;\n}\n\nfunction removeViewerGroup(uint viewerGroup) public isPatron {\n    uint numViewers = viewerGroups[viewerGroup].length;\n    uint i;\n    for(i = 0; i < numViewers; i++) {\n        isViewer[viewerGroups[viewerGroup][i]] = false;\n    }\n\n    uint numGroups = viewerGroups.length;\n    for(i = viewerGroup+1; i < numGroups; i++) {\n        viewerGroups[i - 1] = viewerGroups[i];\n    }\n    delete(viewerGroups[numGroups-1]);\n    viewerGroups.length -= 1;\n}\n\nfunction addViewer(string name, uint viewerGroup, address viewer, string provAddr) public isPatron {\n    require(!isViewer[viewer]);\n\n    isViewer[viewer] = true;\n    viewerGroups[viewerGroup].push(viewer);\n    viewerInfo[viewer] = Viewer(name, provAddr);\n}\n\nfunction removeViewer(uint viewerGroup, address viewer) public isPatron {\n    require(isViewer[viewer]);\n\n    isViewer[viewer] = false;\n    uint numViewers = viewerGroups[viewerGroup].length;\n    bool overwrite = false;\n    for(uint i = 0; i < numViewers; i++) {\n        if(overwrite) {\n            viewerGroups[viewerGroup][i - 1] = viewerGroups[viewerGroup][i];\n        }\n        if(viewerGroups[viewerGroup][i] == viewer) {\n            overwrite = true;\n        }\n    }\n    delete(viewerGroups[viewerGroup][numViewers-1]);\n    viewerGroups[viewerGroup].length -= 1;\n    delete(viewerInfo[viewer]);\n}\n\nfunction getNumViewerGroups() public constant returns(uint) {\n    return viewerGroups.length;\n}\n\nfunction getNumViewers(uint group) public constant returns(uint) {\n    return viewerGroups[group].length;\n}\n\nfunction getViewer(uint group, uint index) public constant returns(address) {\n  return viewerGroups[group][index];\n}\n\nfunction getViewerByName(string name) public constant returns(address) {\n    return viewerByName[name];\n}\n\nfunction getViewerName(address addr) public constant returns(string) {\n    return viewerInfo[addr].name;\n}\n\nfunction terminate() public {\n    if(msg.sender != patron && msg.sender != provider) revert();\n    selfdestruct(patron);\n}\n}\n",
  "sourcePath": "/Users/zhenliang/Documents/23spring/bcc/truffle/contracts/Relationship.sol",
  "compiler": {
    "name": "solc",
    "version": "0.4.15+commit.bbb8e64f.Emscripten.clang"
  },
  "schemaVersion": "3.4.13",
  "updatedAt": "2023-05-06T22:50:00.176Z",
  "devdoc": {
    "methods": {}
  },
  "userdoc": {
    "methods": {
      "setProviderAddress(string)": {
        "notice": "**These functions should be left commented out until a use case for them arises function setPatron(address addr) isPatron { patron = addr; } function setProvider(address addr) isPatron { provider = addr; }*****************"
      }
    }
  }
}