{
  "contractName": "Relationship",
  "abi": [
    {
      "constant": true,
      "inputs": [],
      "name": "providerName",
      "outputs": [
        {
          "name": "",
          "type": "string"
        }
      ],
      "payable": false,
      "type": "function"
    },
    {
      "constant": true,
      "inputs": [],
      "name": "provider",
      "outputs": [
        {
          "name": "",
          "type": "address"
        }
      ],
      "payable": false,
      "type": "function"
    },
    {
      "constant": true,
      "inputs": [],
      "name": "patron",
      "outputs": [
        {
          "name": "",
          "type": "address"
        }
      ],
      "payable": false,
      "type": "function"
    },
    {
      "constant": true,
      "inputs": [],
      "name": "providerAddr",
      "outputs": [
        {
          "name": "",
          "type": "string"
        }
      ],
      "payable": false,
      "type": "function"
    },
    {
      "constant": true,
      "inputs": [
        {
          "name": "",
          "type": "address"
        }
      ],
      "name": "isViewer",
      "outputs": [
        {
          "name": "",
          "type": "bool"
        }
      ],
      "payable": false,
      "type": "function"
    },
    {
      "constant": true,
      "inputs": [],
      "name": "ledger",
      "outputs": [
        {
          "name": "",
          "type": "address"
        }
      ],
      "payable": false,
      "type": "function"
    },
    {
      "constant": true,
      "inputs": [
        {
          "name": "",
          "type": "address"
        }
      ],
      "name": "isAnonymousViewer",
      "outputs": [
        {
          "name": "",
          "type": "bool"
        }
      ],
      "payable": false,
      "type": "function"
    },
    {
      "constant": true,
      "inputs": [],
      "name": "recordId",
      "outputs": [
        {
          "name": "",
          "type": "string"
        }
      ],
      "payable": false,
      "type": "function"
    },
    {
      "inputs": [
        {
          "name": "_provider",
          "type": "address"
        },
        {
          "name": "_id",
          "type": "string"
        },
        {
          "name": "_ledger",
          "type": "address"
        }
      ],
      "payable": false,
      "type": "constructor"
    },
    {
      "constant": false,
      "inputs": [
        {
          "name": "addr",
          "type": "string"
        }
      ],
      "name": "setProviderAddress",
      "outputs": [],
      "payable": false,
      "type": "function"
    },
    {
      "constant": false,
      "inputs": [
        {
          "name": "name",
          "type": "string"
        }
      ],
      "name": "setProviderName",
      "outputs": [],
      "payable": false,
      "type": "function"
    },
    {
      "constant": false,
      "inputs": [
        {
          "name": "_paymentId",
          "type": "uint256"
        }
      ],
      "name": "payValidator",
      "outputs": [],
      "payable": false,
      "type": "function"
    },
    {
      "constant": false,
      "inputs": [
        {
          "name": "_paymentId",
          "type": "uint256"
        }
      ],
      "name": "addViewerGroup",
      "outputs": [],
      "payable": false,
      "type": "function"
    },
    {
      "constant": false,
      "inputs": [
        {
          "name": "viewerGroup",
          "type": "uint256"
        },
        {
          "name": "_paymentId",
          "type": "uint256"
        }
      ],
      "name": "removeViewerGroup",
      "outputs": [],
      "payable": false,
      "type": "function"
    },
    {
      "constant": false,
      "inputs": [
        {
          "name": "name",
          "type": "string"
        },
        {
          "name": "viewerGroup",
          "type": "uint256"
        },
        {
          "name": "viewer",
          "type": "address"
        },
        {
          "name": "provAddr",
          "type": "string"
        },
        {
          "name": "_paymentId",
          "type": "uint256"
        }
      ],
      "name": "addViewer",
      "outputs": [],
      "payable": false,
      "type": "function"
    },
    {
      "constant": false,
      "inputs": [
        {
          "name": "viewerGroup",
          "type": "uint256"
        },
        {
          "name": "viewer",
          "type": "address"
        },
        {
          "name": "_paymentId",
          "type": "uint256"
        }
      ],
      "name": "removeViewer",
      "outputs": [],
      "payable": false,
      "type": "function"
    },
    {
      "constant": true,
      "inputs": [],
      "name": "getNumViewerGroups",
      "outputs": [
        {
          "name": "",
          "type": "uint256"
        }
      ],
      "payable": false,
      "type": "function"
    },
    {
      "constant": true,
      "inputs": [
        {
          "name": "group",
          "type": "uint256"
        }
      ],
      "name": "getNumViewers",
      "outputs": [
        {
          "name": "",
          "type": "uint256"
        }
      ],
      "payable": false,
      "type": "function"
    },
    {
      "constant": true,
      "inputs": [
        {
          "name": "group",
          "type": "uint256"
        },
        {
          "name": "index",
          "type": "uint256"
        }
      ],
      "name": "getViewer",
      "outputs": [
        {
          "name": "",
          "type": "address"
        }
      ],
      "payable": false,
      "type": "function"
    },
    {
      "constant": true,
      "inputs": [
        {
          "name": "name",
          "type": "string"
        }
      ],
      "name": "getViewerByName",
      "outputs": [
        {
          "name": "",
          "type": "address"
        }
      ],
      "payable": false,
      "type": "function"
    },
    {
      "constant": true,
      "inputs": [
        {
          "name": "addr",
          "type": "address"
        }
      ],
      "name": "getViewerName",
      "outputs": [
        {
          "name": "",
          "type": "string"
        }
      ],
      "payable": false,
      "type": "function"
    },
    {
      "constant": false,
      "inputs": [],
      "name": "terminate",
      "outputs": [],
      "payable": false,
      "type": "function"
    }
  ],
  "bytecode": "0x606060405234156200001057600080fd5b60405162001dad38038062001dad833981016040528080519060200190919080518201919060200180519060200190919050505b336000806101000a81548173ffffffffffffffffffffffffffffffffffffffff021916908373ffffffffffffffffffffffffffffffffffffffff16021790555082600160006101000a81548173ffffffffffffffffffffffffffffffffffffffff021916908373ffffffffffffffffffffffffffffffffffffffff1602179055508160049080519060200190620000dd92919062000129565b5080600560006101000a81548173ffffffffffffffffffffffffffffffffffffffff021916908373ffffffffffffffffffffffffffffffffffffffff1602179055505b505050620001d8565b828054600181600116156101000203166002900490600052602060002090601f016020900481019282601f106200016c57805160ff19168380011785556200019d565b828001600101855582156200019d579182015b828111156200019c5782518255916020019190600101906200017f565b5b509050620001ac9190620001b0565b5090565b620001d591905b80821115620001d1576000816000905550600101620001b7565b5090565b90565b611bc580620001e86000396000f3006060604052361561011a576000357c0100000000000000000000000000000000000000000000000000000000900463ffffffff168062dad7d41461011f578063085d4883146101ae5780630ba32b27146102035780630ba46c92146102585780630c08bf88146102845780630de91ac814610299578063231505bd146102bc5780632a7a832d1461034b5780632bba6fb7146103825780632f35de61146103d3578063322eb71d146103fc5780633d2c8861146104af5780633e92d5dd1461050c578063444ee902146105dd57806356397c351461063a5780637e26ea631461068f57806384c9bb98146106fb57806387619ab11461071e578063bc1d70871461076f578063bdf65f201461080c578063f7dfe22b14610857575b600080fd5b341561012a57600080fd5b6101326108e6565b6040518080602001828103825283818151815260200191508051906020019080838360005b838110156101735780820151818401525b602081019050610157565b50505050905090810190601f1680156101a05780820380516001836020036101000a031916815260200191505b509250505060405180910390f35b34156101b957600080fd5b6101c1610984565b604051808273ffffffffffffffffffffffffffffffffffffffff1673ffffffffffffffffffffffffffffffffffffffff16815260200191505060405180910390f35b341561020e57600080fd5b6102166109aa565b604051808273ffffffffffffffffffffffffffffffffffffffff1673ffffffffffffffffffffffffffffffffffffffff16815260200191505060405180910390f35b341561026357600080fd5b61028260048080359060200190919080359060200190919050506109cf565b005b341561028f57600080fd5b610297610be5565b005b34156102a457600080fd5b6102ba6004808035906020019091905050610cd6565b005b34156102c757600080fd5b6102cf610d58565b6040518080602001828103825283818151815260200191508051906020019080838360005b838110156103105780820151818401525b6020810190506102f4565b50505050905090810190601f16801561033d5780820380516001836020036101000a031916815260200191505b509250505060405180910390f35b341561035657600080fd5b61036c6004808035906020019091905050610df6565b6040518082815260200191505060405180910390f35b341561038d57600080fd5b6103b9600480803573ffffffffffffffffffffffffffffffffffffffff16906020019091905050610e22565b604051808215151515815260200191505060405180910390f35b34156103de57600080fd5b6103e6610e42565b6040518082815260200191505060405180910390f35b341561040757600080fd5b610433600480803573ffffffffffffffffffffffffffffffffffffffff16906020019091905050610e50565b6040518080602001828103825283818151815260200191508051906020019080838360005b838110156104745780820151818401525b602081019050610458565b50505050905090810190601f1680156104a15780820380516001836020036101000a031916815260200191505b509250505060405180910390f35b34156104ba57600080fd5b61050a600480803590602001908201803590602001908080601f01602080910402602001604051908101604052809392919081815260200183838082843782019150505050505091905050610f3b565b005b341561051757600080fd5b6105db600480803590602001908201803590602001908080601f0160208091040260200160405190810160405280939291908181526020018383808284378201915050505050509190803590602001909190803573ffffffffffffffffffffffffffffffffffffffff1690602001909190803590602001908201803590602001908080601f01602080910402602001604051908101604052809392919081815260200183838082843782019150505050505091908035906020019091905050610f56565b005b34156105e857600080fd5b610638600480803590602001908201803590602001908080601f01602080910402602001604051908101604052809392919081815260200183838082843782019150505050505091905050611185565b005b341561064557600080fd5b61064d6111a0565b604051808273ffffffffffffffffffffffffffffffffffffffff1673ffffffffffffffffffffffffffffffffffffffff16815260200191505060405180910390f35b341561069a57600080fd5b6106b960048080359060200190919080359060200190919050506111c6565b604051808273ffffffffffffffffffffffffffffffffffffffff1673ffffffffffffffffffffffffffffffffffffffff16815260200191505060405180910390f35b341561070657600080fd5b61071c6004808035906020019091905050611229565b005b341561072957600080fd5b610755600480803573ffffffffffffffffffffffffffffffffffffffff1690602001909190505061139b565b604051808215151515815260200191505060405180910390f35b341561077a57600080fd5b6107ca600480803590602001908201803590602001908080601f016020809104026020016040519081016040528093929190818152602001838380828437820191505050505050919050506113bb565b604051808273ffffffffffffffffffffffffffffffffffffffff1673ffffffffffffffffffffffffffffffffffffffff16815260200191505060405180910390f35b341561081757600080fd5b610855600480803590602001909190803573ffffffffffffffffffffffffffffffffffffffff16906020019091908035906020019091905050611452565b005b341561086257600080fd5b61086a611813565b6040518080602001828103825283818151815260200191508051906020019080838360005b838110156108ab5780820151818401525b60208101905061088f565b50505050905090810190601f1680156108d85780820380516001836020036101000a031916815260200191505b509250505060405180910390f35b60038054600181600116156101000203166002900480601f01602080910402602001604051908101604052809291908181526020018280546001816001161561010002031660029004801561097c5780601f106109515761010080835404028352916020019161097c565b820191906000526020600020905b81548152906001019060200180831161095f57829003601f168201915b505050505081565b600160009054906101000a900473ffffffffffffffffffffffffffffffffffffffff1681565b6000809054906101000a900473ffffffffffffffffffffffffffffffffffffffff1681565b60008060008060009054906101000a900473ffffffffffffffffffffffffffffffffffffffff1673ffffffffffffffffffffffffffffffffffffffff163373ffffffffffffffffffffffffffffffffffffffff16141515610a2f57600080fd5b600685815481101515610a3e57fe5b906000526020600020900160005b50805490509250600091505b82821015610b1d57600060086000600688815481101515610a7557fe5b906000526020600020900160005b5085815481101515610a9157fe5b906000526020600020900160005b9054906101000a900473ffffffffffffffffffffffffffffffffffffffff1673ffffffffffffffffffffffffffffffffffffffff1673ffffffffffffffffffffffffffffffffffffffff16815260200190815260200160002060006101000a81548160ff0219169083151502179055505b8180600101925050610a58565b60068054905090506001850191505b80821015610b9057600682815481101515610b4357fe5b906000526020600020900160005b50600660018403815481101515610b6457fe5b906000526020600020900160005b50908054610b819291906118b1565b505b8180600101925050610b2c565b600660018203815481101515610ba257fe5b906000526020600020900160005b610bba9190611903565b6001600681818054905003915081610bd29190611925565b50610bdc84611229565b5b5b5050505050565b6000809054906101000a900473ffffffffffffffffffffffffffffffffffffffff1673ffffffffffffffffffffffffffffffffffffffff163373ffffffffffffffffffffffffffffffffffffffff1614158015610c905750600160009054906101000a900473ffffffffffffffffffffffffffffffffffffffff1673ffffffffffffffffffffffffffffffffffffffff163373ffffffffffffffffffffffffffffffffffffffff1614155b15610c9a57600080fd5b6000809054906101000a900473ffffffffffffffffffffffffffffffffffffffff1673ffffffffffffffffffffffffffffffffffffffff16ff5b565b6000809054906101000a900473ffffffffffffffffffffffffffffffffffffffff1673ffffffffffffffffffffffffffffffffffffffff163373ffffffffffffffffffffffffffffffffffffffff16141515610d3157600080fd5b6001600681818054905001915081610d499190611925565b50610d5381611229565b5b5b50565b60028054600181600116156101000203166002900480601f016020809104026020016040519081016040528092919081815260200182805460018160011615610100020316600290048015610dee5780601f10610dc357610100808354040283529160200191610dee565b820191906000526020600020905b815481529060010190602001808311610dd157829003601f168201915b505050505081565b6000600682815481101515610e0757fe5b906000526020600020900160005b508054905090505b919050565b60086020528060005260406000206000915054906101000a900460ff1681565b600060068054905090505b90565b610e58611951565b600960008373ffffffffffffffffffffffffffffffffffffffff1673ffffffffffffffffffffffffffffffffffffffff1681526020019081526020016000206000018054600181600116156101000203166002900480601f016020809104026020016040519081016040528092919081815260200182805460018160011615610100020316600290048015610f2e5780601f10610f0357610100808354040283529160200191610f2e565b820191906000526020600020905b815481529060010190602001808311610f1157829003601f168201915b505050505090505b919050565b8060029080519060200190610f51929190611965565b505b50565b6000809054906101000a900473ffffffffffffffffffffffffffffffffffffffff1673ffffffffffffffffffffffffffffffffffffffff163373ffffffffffffffffffffffffffffffffffffffff16141515610fb157600080fd5b600860008473ffffffffffffffffffffffffffffffffffffffff1673ffffffffffffffffffffffffffffffffffffffff16815260200190815260200160002060009054906101000a900460ff1615151561100a57600080fd5b6001600860008573ffffffffffffffffffffffffffffffffffffffff1673ffffffffffffffffffffffffffffffffffffffff16815260200190815260200160002060006101000a81548160ff02191690831515021790555060068481548110151561107157fe5b906000526020600020900160005b50805480600101828161109291906119e5565b916000526020600020900160005b85909190916101000a81548173ffffffffffffffffffffffffffffffffffffffff021916908373ffffffffffffffffffffffffffffffffffffffff16021790555050604080519081016040528086815260200183815250600960008573ffffffffffffffffffffffffffffffffffffffff1673ffffffffffffffffffffffffffffffffffffffff1681526020019081526020016000206000820151816000019080519060200190611152929190611a11565b50602082015181600101908051906020019061116f929190611a11565b5090505061117c81611229565b5b5b5050505050565b806003908051906020019061119b929190611965565b505b50565b600560009054906101000a900473ffffffffffffffffffffffffffffffffffffffff1681565b60006006838154811015156111d757fe5b906000526020600020900160005b50828154811015156111f357fe5b906000526020600020900160005b9054906101000a900473ffffffffffffffffffffffffffffffffffffffff1690505b92915050565b60008060008060009054906101000a900473ffffffffffffffffffffffffffffffffffffffff1673ffffffffffffffffffffffffffffffffffffffff163373ffffffffffffffffffffffffffffffffffffffff1614151561128957600080fd5b600084141561129757611394565b419250600560009054906101000a900473ffffffffffffffffffffffffffffffffffffffff1691508173ffffffffffffffffffffffffffffffffffffffff166385bac23784866000604051602001526040518363ffffffff167c0100000000000000000000000000000000000000000000000000000000028152600401808373ffffffffffffffffffffffffffffffffffffffff1673ffffffffffffffffffffffffffffffffffffffff16815260200182815260200192505050602060405180830381600087803b151561136a57600080fd5b6102c65a03f1151561137b57600080fd5b50505060405180519050905080151561139357600080fd5b5b5b50505050565b60076020528060005260406000206000915054906101000a900460ff1681565b6000600a826040518082805190602001908083835b6020831015156113f657805182525b6020820191506020810190506020830392506113d0565b6001836020036101000a038019825116818451168082178552505050505050905001915050908152602001604051809103902060009054906101000a900473ffffffffffffffffffffffffffffffffffffffff1690505b919050565b60008060008060009054906101000a900473ffffffffffffffffffffffffffffffffffffffff1673ffffffffffffffffffffffffffffffffffffffff163373ffffffffffffffffffffffffffffffffffffffff161415156114b257600080fd5b600860008673ffffffffffffffffffffffffffffffffffffffff1673ffffffffffffffffffffffffffffffffffffffff16815260200190815260200160002060009054906101000a900460ff16151561150a57600080fd5b6000600860008773ffffffffffffffffffffffffffffffffffffffff1673ffffffffffffffffffffffffffffffffffffffff16815260200190815260200160002060006101000a81548160ff02191690831515021790555060068681548110151561157157fe5b906000526020600020900160005b5080549050925060009150600090505b8281101561170c57811561166e576006868154811015156115ac57fe5b906000526020600020900160005b50818154811015156115c857fe5b906000526020600020900160005b9054906101000a900473ffffffffffffffffffffffffffffffffffffffff1660068781548110151561160457fe5b906000526020600020900160005b506001830381548110151561162357fe5b906000526020600020900160005b6101000a81548173ffffffffffffffffffffffffffffffffffffffff021916908373ffffffffffffffffffffffffffffffffffffffff1602179055505b8473ffffffffffffffffffffffffffffffffffffffff1660068781548110151561169457fe5b906000526020600020900160005b50828154811015156116b057fe5b906000526020600020900160005b9054906101000a900473ffffffffffffffffffffffffffffffffffffffff1673ffffffffffffffffffffffffffffffffffffffff1614156116fe57600191505b5b808060010191505061158f565b60068681548110151561171b57fe5b906000526020600020900160005b506001840381548110151561173a57fe5b906000526020600020900160005b6101000a81549073ffffffffffffffffffffffffffffffffffffffff0219169055600160068781548110151561177a57fe5b906000526020600020900160005b508181805490500391508161179d9190611a91565b50600960008673ffffffffffffffffffffffffffffffffffffffff1673ffffffffffffffffffffffffffffffffffffffff168152602001908152602001600020600080820160006117ee9190611abd565b6001820160006117fe9190611abd565b505061180984611229565b5b5b505050505050565b60048054600181600116156101000203166002900480601f0160208091040260200160405190810160405280929190818152602001828054600181600116156101000203166002900480156118a95780601f1061187e576101008083540402835291602001916118a9565b820191906000526020600020905b81548152906001019060200180831161188c57829003601f168201915b505050505081565b8280548282559060005260206000209081019282156118f25760005260206000209182015b828111156118f15782548255916001019190600101906118d6565b5b5090506118ff9190611b05565b5090565b50805460008255906000526020600020908101906119219190611b48565b5b50565b81548183558181151161194c5781836000526020600020918201910161194b9190611b6d565b5b505050565b602060405190810160405280600081525090565b828054600181600116156101000203166002900490600052602060002090601f016020900481019282601f106119a657805160ff19168380011785556119d4565b828001600101855582156119d4579182015b828111156119d35782518255916020019190600101906119b8565b5b5090506119e19190611b48565b5090565b815481835581811511611a0c57818360005260206000209182019101611a0b9190611b48565b5b505050565b828054600181600116156101000203166002900490600052602060002090601f016020900481019282601f10611a5257805160ff1916838001178555611a80565b82800160010185558215611a80579182015b82811115611a7f578251825591602001919060010190611a64565b5b509050611a8d9190611b48565b5090565b815481835581811511611ab857818360005260206000209182019101611ab79190611b48565b5b505050565b50805460018160011615610100020316600290046000825580601f10611ae35750611b02565b601f016020900490600052602060002090810190611b019190611b48565b5b50565b611b4591905b80821115611b4157600081816101000a81549073ffffffffffffffffffffffffffffffffffffffff021916905550600101611b0b565b5090565b90565b611b6a91905b80821115611b66576000816000905550600101611b4e565b5090565b90565b611b9691905b80821115611b925760008181611b899190611903565b50600101611b73565b5090565b905600a165627a7a723058208743c616d0e44499c2dbd49a576519859ec200c2f9af1105772afe0a670d4b8d0029",
  "source": "pragma solidity ^0.4.15;\n\nimport \"./Ledger.sol\";\ncontract Relationship {\n    address public patron;\n    address public provider; // this is a unique address for the provider used only for this relationship\n    string public providerAddr; //encrypted provider address\n    string public providerName; //encrypted provider name\n    string public recordId; //mapping to the record in the provider's system\n    \n    address public ledger; //the ledger contract address\n\n    struct Viewer {\n        string name;\n        string providerAddr; //the real provider address encypted so only the viewer can read\n    }\n\n    address[][] viewerGroups;\n    \n    mapping(address => bool) public isAnonymousViewer;\n\n    mapping(address => bool) public isViewer;\n    mapping(address => Viewer) viewerInfo;\n    mapping(string => address) viewerByName;\n\n    uint256 constant UINT256_MAX = ~uint256(0);\n\n    modifier isPatron() {\n        if(msg.sender != patron) revert();\n        _;\n    }\n\n    function Relationship(address _provider, string _id, address _ledger) public {\n        patron = msg.sender;\n        provider = _provider;\n        recordId = _id;\n        ledger = _ledger;\n    }   \n    // need tx fee\n\n/****These functions should be left commented out until a use case for them arises\n  function setPatron(address addr) isPatron {\n    patron = addr;\n  }\n  function setProvider(address addr) isPatron {\n    provider = addr;\n  }\n******************/\n\nfunction setProviderAddress(string addr) public {\n    providerAddr = addr;\n}\n\nfunction setProviderName(string name) public {\n  providerName = name;\n}\n\nfunction payValidator(uint256 _paymentId) public isPatron {\n    if (_paymentId == 0 ){\n        return;\n    }\n\n    //pay the validator\n    address validator;\n    validator = block.coinbase;\n\n    Ledger ledgerContract = Ledger(ledger);\n    bool result = ledgerContract.addPayment(validator, _paymentId);\n    require(result);\n}\n\nfunction addViewerGroup(uint256 _paymentId) public isPatron {\n    viewerGroups.length += 1;\n    \n    payValidator(_paymentId);\n}\n// need tx fee\n\nfunction removeViewerGroup(uint viewerGroup, uint256 _paymentId) public isPatron {\n    uint numViewers = viewerGroups[viewerGroup].length;\n    uint i;\n    for(i = 0; i < numViewers; i++) {\n        isViewer[viewerGroups[viewerGroup][i]] = false;\n    }\n\n    uint numGroups = viewerGroups.length;\n    for(i = viewerGroup+1; i < numGroups; i++) {\n        viewerGroups[i - 1] = viewerGroups[i];\n    }\n    delete(viewerGroups[numGroups-1]);\n    viewerGroups.length -= 1;\n\n    payValidator(_paymentId);\n}\n// need tx fee\n\nfunction addViewer(string name, uint viewerGroup, address viewer, string provAddr, uint256 _paymentId) public isPatron {\n    require(!isViewer[viewer]);\n\n    isViewer[viewer] = true;\n    viewerGroups[viewerGroup].push(viewer);\n    viewerInfo[viewer] = Viewer(name, provAddr);\n\n    payValidator(_paymentId);\n}\n// need tx fee\n\nfunction removeViewer(uint viewerGroup, address viewer, uint256 _paymentId) public isPatron {\n    require(isViewer[viewer]);\n\n    isViewer[viewer] = false;\n    uint numViewers = viewerGroups[viewerGroup].length;\n    bool overwrite = false;\n    for(uint i = 0; i < numViewers; i++) {\n        if(overwrite) {\n            viewerGroups[viewerGroup][i - 1] = viewerGroups[viewerGroup][i];\n        }\n        if(viewerGroups[viewerGroup][i] == viewer) {\n            overwrite = true;\n        }\n    }\n    delete(viewerGroups[viewerGroup][numViewers-1]);\n    viewerGroups[viewerGroup].length -= 1;\n    delete(viewerInfo[viewer]);\n\n    payValidator(_paymentId);\n}\n// need tx fee\n\nfunction getNumViewerGroups() public constant returns(uint) {\n    return viewerGroups.length;\n}\n\nfunction getNumViewers(uint group) public constant returns(uint) {\n    return viewerGroups[group].length;\n}\n\nfunction getViewer(uint group, uint index) public constant returns(address) {\n  return viewerGroups[group][index];\n}\n\nfunction getViewerByName(string name) public constant returns(address) {\n    return viewerByName[name];\n}\n\nfunction getViewerName(address addr) public constant returns(string) {\n    return viewerInfo[addr].name;\n}\n\nfunction terminate() public {\n    if(msg.sender != patron && msg.sender != provider) revert();\n    selfdestruct(patron);\n}\n}\n",
  "sourcePath": "/Users/zhenliang/Documents/23spring/bcc/truffle/contracts/Relationship.sol",
  "compiler": {
    "name": "solc",
    "version": "0.4.15+commit.bbb8e64f.Emscripten.clang"
  },
  "schemaVersion": "3.4.13",
  "updatedAt": "2023-05-08T17:56:25.634Z",
  "devdoc": {
    "methods": {}
  },
  "userdoc": {
    "methods": {
      "setProviderAddress(string)": {
        "notice": "**These functions should be left commented out until a use case for them arises function setPatron(address addr) isPatron { patron = addr; } function setProvider(address addr) isPatron { provider = addr; }*****************"
      }
    }
  }
}