{
  "contractName": "Relationship",
  "abi": [
    {
      "constant": true,
      "inputs": [],
      "name": "providerName",
      "outputs": [
        {
          "name": "",
          "type": "string"
        }
      ],
      "payable": false,
      "type": "function"
    },
    {
      "constant": true,
      "inputs": [],
      "name": "provider",
      "outputs": [
        {
          "name": "",
          "type": "address"
        }
      ],
      "payable": false,
      "type": "function"
    },
    {
      "constant": true,
      "inputs": [],
      "name": "patron",
      "outputs": [
        {
          "name": "",
          "type": "address"
        }
      ],
      "payable": false,
      "type": "function"
    },
    {
      "constant": true,
      "inputs": [],
      "name": "providerAddr",
      "outputs": [
        {
          "name": "",
          "type": "string"
        }
      ],
      "payable": false,
      "type": "function"
    },
    {
      "constant": true,
      "inputs": [
        {
          "name": "",
          "type": "address"
        }
      ],
      "name": "isViewer",
      "outputs": [
        {
          "name": "",
          "type": "bool"
        }
      ],
      "payable": false,
      "type": "function"
    },
    {
      "constant": true,
      "inputs": [],
      "name": "ledger",
      "outputs": [
        {
          "name": "",
          "type": "address"
        }
      ],
      "payable": false,
      "type": "function"
    },
    {
      "constant": true,
      "inputs": [],
      "name": "recordId",
      "outputs": [
        {
          "name": "",
          "type": "string"
        }
      ],
      "payable": false,
      "type": "function"
    },
    {
      "inputs": [
        {
          "name": "_provider",
          "type": "address"
        },
        {
          "name": "_id",
          "type": "string"
        },
        {
          "name": "_ledger",
          "type": "address"
        },
        {
          "name": "_paymentId",
          "type": "uint256"
        }
      ],
      "payable": false,
      "type": "constructor"
    },
    {
      "constant": false,
      "inputs": [
        {
          "name": "addr",
          "type": "string"
        }
      ],
      "name": "setProviderAddress",
      "outputs": [],
      "payable": false,
      "type": "function"
    },
    {
      "constant": false,
      "inputs": [
        {
          "name": "name",
          "type": "string"
        }
      ],
      "name": "setProviderName",
      "outputs": [],
      "payable": false,
      "type": "function"
    },
    {
      "constant": false,
      "inputs": [
        {
          "name": "_paymentId",
          "type": "uint256"
        }
      ],
      "name": "payValidator",
      "outputs": [],
      "payable": false,
      "type": "function"
    },
    {
      "constant": false,
      "inputs": [
        {
          "name": "ViewerAddr",
          "type": "address"
        }
      ],
      "name": "addAnonymousViewer",
      "outputs": [],
      "payable": false,
      "type": "function"
    },
    {
      "constant": false,
      "inputs": [
        {
          "name": "name",
          "type": "string"
        },
        {
          "name": "viewer",
          "type": "address"
        },
        {
          "name": "_paymentId",
          "type": "uint256"
        }
      ],
      "name": "addViewer",
      "outputs": [],
      "payable": false,
      "type": "function"
    },
    {
      "constant": false,
      "inputs": [
        {
          "name": "viewer",
          "type": "address"
        },
        {
          "name": "_paymentId",
          "type": "uint256"
        }
      ],
      "name": "removeViewer",
      "outputs": [],
      "payable": false,
      "type": "function"
    },
    {
      "constant": true,
      "inputs": [
        {
          "name": "addr",
          "type": "address"
        }
      ],
      "name": "getViewerName",
      "outputs": [
        {
          "name": "",
          "type": "string"
        }
      ],
      "payable": false,
      "type": "function"
    },
    {
      "constant": true,
      "inputs": [
        {
          "name": "addr",
          "type": "address"
        }
      ],
      "name": "checkViewer",
      "outputs": [
        {
          "name": "",
          "type": "bool"
        }
      ],
      "payable": false,
      "type": "function"
    },
    {
      "constant": true,
      "inputs": [
        {
          "name": "addr",
          "type": "address"
        }
      ],
      "name": "checkAnonymousViewer",
      "outputs": [
        {
          "name": "",
          "type": "bool"
        }
      ],
      "payable": false,
      "type": "function"
    },
    {
      "constant": false,
      "inputs": [],
      "name": "terminate",
      "outputs": [],
      "payable": false,
      "type": "function"
    }
  ],
  "bytecode": "0x606060405234156200001057600080fd5b604051620015ee380380620015ee833981016040528080519060200190919080518201919060200180519060200190919080519060200190919050505b6000806000336000806101000a81548173ffffffffffffffffffffffffffffffffffffffff021916908373ffffffffffffffffffffffffffffffffffffffff16021790555086600160006101000a81548173ffffffffffffffffffffffffffffffffffffffff021916908373ffffffffffffffffffffffffffffffffffffffff1602179055508560049080519060200190620000eb9291906200024a565b5084600560006101000a81548173ffffffffffffffffffffffffffffffffffffffff021916908373ffffffffffffffffffffffffffffffffffffffff16021790555060008414156200013d576200023d565b419250600560009054906101000a900473ffffffffffffffffffffffffffffffffffffffff1691508173ffffffffffffffffffffffffffffffffffffffff166385bac23784866000604051602001526040518363ffffffff167c0100000000000000000000000000000000000000000000000000000000028152600401808373ffffffffffffffffffffffffffffffffffffffff1673ffffffffffffffffffffffffffffffffffffffff16815260200182815260200192505050602060405180830381600087803b15156200021157600080fd5b6102c65a03f115156200022357600080fd5b5050506040518051905090508015156200023c57600080fd5b5b50505050505050620002f9565b828054600181600116156101000203166002900490600052602060002090601f016020900481019282601f106200028d57805160ff1916838001178555620002be565b82800160010185558215620002be579182015b82811115620002bd578251825591602001919060010190620002a0565b5b509050620002cd9190620002d1565b5090565b620002f691905b80821115620002f2576000816000905550600101620002d8565b5090565b90565b6112e580620003096000396000f300606060405236156100ee576000357c0100000000000000000000000000000000000000000000000000000000900463ffffffff168062dad7d4146100f3578063085d4883146101825780630ba32b27146101d75780630c08bf881461022c578063231505bd146102415780632bba6fb7146102d05780632f286c1214610321578063322eb71d1461035a5780633d2c88611461040d578063444ee9021461046a57806356397c35146104c7578063602cd25b1461051c57806384c9bb981461055e57806390c30d3a14610581578063a0bb191814610606578063d5a6e46c14610657578063f7dfe22b146106a8575b600080fd5b34156100fe57600080fd5b610106610737565b6040518080602001828103825283818151815260200191508051906020019080838360005b838110156101475780820151818401525b60208101905061012b565b50505050905090810190601f1680156101745780820380516001836020036101000a031916815260200191505b509250505060405180910390f35b341561018d57600080fd5b6101956107d5565b604051808273ffffffffffffffffffffffffffffffffffffffff1673ffffffffffffffffffffffffffffffffffffffff16815260200191505060405180910390f35b34156101e257600080fd5b6101ea6107fb565b604051808273ffffffffffffffffffffffffffffffffffffffff1673ffffffffffffffffffffffffffffffffffffffff16815260200191505060405180910390f35b341561023757600080fd5b61023f610820565b005b341561024c57600080fd5b610254610911565b6040518080602001828103825283818151815260200191508051906020019080838360005b838110156102955780820151818401525b602081019050610279565b50505050905090810190601f1680156102c25780820380516001836020036101000a031916815260200191505b509250505060405180910390f35b34156102db57600080fd5b610307600480803573ffffffffffffffffffffffffffffffffffffffff169060200190919050506109af565b604051808215151515815260200191505060405180910390f35b341561032c57600080fd5b610358600480803573ffffffffffffffffffffffffffffffffffffffff169060200190919050506109cf565b005b341561036557600080fd5b610391600480803573ffffffffffffffffffffffffffffffffffffffff16906020019091905050610ae1565b6040518080602001828103825283818151815260200191508051906020019080838360005b838110156103d25780820151818401525b6020810190506103b6565b50505050905090810190601f1680156103ff5780820380516001836020036101000a031916815260200191505b509250505060405180910390f35b341561041857600080fd5b610468600480803590602001908201803590602001908080601f01602080910402602001604051908101604052809392919081815260200183838082843782019150505050505091905050610bc9565b005b341561047557600080fd5b6104c5600480803590602001908201803590602001908080601f01602080910402602001604051908101604052809392919081815260200183838082843782019150505050505091905050610be4565b005b34156104d257600080fd5b6104da610bff565b604051808273ffffffffffffffffffffffffffffffffffffffff1673ffffffffffffffffffffffffffffffffffffffff16815260200191505060405180910390f35b341561052757600080fd5b61055c600480803573ffffffffffffffffffffffffffffffffffffffff16906020019091908035906020019091905050610c25565b005b341561056957600080fd5b61057f6004808035906020019091905050610d8a565b005b341561058c57600080fd5b610604600480803590602001908201803590602001908080601f0160208091040260200160405190810160405280939291908181526020018383808284378201915050505050509190803573ffffffffffffffffffffffffffffffffffffffff16906020019091908035906020019091905050610efc565b005b341561061157600080fd5b61063d600480803573ffffffffffffffffffffffffffffffffffffffff1690602001909190505061106c565b604051808215151515815260200191505060405180910390f35b341561066257600080fd5b61068e600480803573ffffffffffffffffffffffffffffffffffffffff169060200190919050506110c3565b604051808215151515815260200191505060405180910390f35b34156106b357600080fd5b6106bb61111a565b6040518080602001828103825283818151815260200191508051906020019080838360005b838110156106fc5780820151818401525b6020810190506106e0565b50505050905090810190601f1680156107295780820380516001836020036101000a031916815260200191505b509250505060405180910390f35b60038054600181600116156101000203166002900480601f0160208091040260200160405190810160405280929190818152602001828054600181600116156101000203166002900480156107cd5780601f106107a2576101008083540402835291602001916107cd565b820191906000526020600020905b8154815290600101906020018083116107b057829003601f168201915b505050505081565b600160009054906101000a900473ffffffffffffffffffffffffffffffffffffffff1681565b6000809054906101000a900473ffffffffffffffffffffffffffffffffffffffff1681565b6000809054906101000a900473ffffffffffffffffffffffffffffffffffffffff1673ffffffffffffffffffffffffffffffffffffffff163373ffffffffffffffffffffffffffffffffffffffff16141580156108cb5750600160009054906101000a900473ffffffffffffffffffffffffffffffffffffffff1673ffffffffffffffffffffffffffffffffffffffff163373ffffffffffffffffffffffffffffffffffffffff1614155b156108d557600080fd5b6000809054906101000a900473ffffffffffffffffffffffffffffffffffffffff1673ffffffffffffffffffffffffffffffffffffffff16ff5b565b60028054600181600116156101000203166002900480601f0160208091040260200160405190810160405280929190818152602001828054600181600116156101000203166002900480156109a75780601f1061097c576101008083540402835291602001916109a7565b820191906000526020600020905b81548152906001019060200180831161098a57829003601f168201915b505050505081565b60076020528060005260406000206000915054906101000a900460ff1681565b600560009054906101000a900473ffffffffffffffffffffffffffffffffffffffff1673ffffffffffffffffffffffffffffffffffffffff163373ffffffffffffffffffffffffffffffffffffffff16141515610a2b57600080fd5b600660008273ffffffffffffffffffffffffffffffffffffffff1673ffffffffffffffffffffffffffffffffffffffff16815260200190815260200160002060009054906101000a900460ff16151515610a8457600080fd5b6001600660008373ffffffffffffffffffffffffffffffffffffffff1673ffffffffffffffffffffffffffffffffffffffff16815260200190815260200160002060006101000a81548160ff0219169083151502179055505b5b50565b610ae96111b8565b600860008373ffffffffffffffffffffffffffffffffffffffff1673ffffffffffffffffffffffffffffffffffffffff1681526020019081526020016000208054600181600116156101000203166002900480601f016020809104026020016040519081016040528092919081815260200182805460018160011615610100020316600290048015610bbc5780601f10610b9157610100808354040283529160200191610bbc565b820191906000526020600020905b815481529060010190602001808311610b9f57829003601f168201915b505050505090505b919050565b8060029080519060200190610bdf9291906111cc565b505b50565b8060039080519060200190610bfa9291906111cc565b505b50565b600560009054906101000a900473ffffffffffffffffffffffffffffffffffffffff1681565b6000809054906101000a900473ffffffffffffffffffffffffffffffffffffffff1673ffffffffffffffffffffffffffffffffffffffff163373ffffffffffffffffffffffffffffffffffffffff16141515610c8057600080fd5b600760008373ffffffffffffffffffffffffffffffffffffffff1673ffffffffffffffffffffffffffffffffffffffff16815260200190815260200160002060009054906101000a900460ff161515610cd857600080fd5b6000600760008473ffffffffffffffffffffffffffffffffffffffff1673ffffffffffffffffffffffffffffffffffffffff16815260200190815260200160002060006101000a81548160ff021916908315150217905550600860008373ffffffffffffffffffffffffffffffffffffffff1673ffffffffffffffffffffffffffffffffffffffff1681526020019081526020016000206000610d7b919061124c565b610d8481610d8a565b5b5b5050565b60008060008060009054906101000a900473ffffffffffffffffffffffffffffffffffffffff1673ffffffffffffffffffffffffffffffffffffffff163373ffffffffffffffffffffffffffffffffffffffff16141515610dea57600080fd5b6000841415610df857610ef5565b419250600560009054906101000a900473ffffffffffffffffffffffffffffffffffffffff1691508173ffffffffffffffffffffffffffffffffffffffff166385bac23784866000604051602001526040518363ffffffff167c0100000000000000000000000000000000000000000000000000000000028152600401808373ffffffffffffffffffffffffffffffffffffffff1673ffffffffffffffffffffffffffffffffffffffff16815260200182815260200192505050602060405180830381600087803b1515610ecb57600080fd5b6102c65a03f11515610edc57600080fd5b505050604051805190509050801515610ef457600080fd5b5b5b50505050565b6000809054906101000a900473ffffffffffffffffffffffffffffffffffffffff1673ffffffffffffffffffffffffffffffffffffffff163373ffffffffffffffffffffffffffffffffffffffff16141515610f5757600080fd5b600760008373ffffffffffffffffffffffffffffffffffffffff1673ffffffffffffffffffffffffffffffffffffffff16815260200190815260200160002060009054906101000a900460ff16151515610fb057600080fd5b6001600760008473ffffffffffffffffffffffffffffffffffffffff1673ffffffffffffffffffffffffffffffffffffffff16815260200190815260200160002060006101000a81548160ff02191690831515021790555082600860008473ffffffffffffffffffffffffffffffffffffffff1673ffffffffffffffffffffffffffffffffffffffff168152602001908152602001600020908051906020019061105b9291906111cc565b5061106581610d8a565b5b5b505050565b6000600760008373ffffffffffffffffffffffffffffffffffffffff1673ffffffffffffffffffffffffffffffffffffffff16815260200190815260200160002060009054906101000a900460ff1690505b919050565b6000600660008373ffffffffffffffffffffffffffffffffffffffff1673ffffffffffffffffffffffffffffffffffffffff16815260200190815260200160002060009054906101000a900460ff1690505b919050565b60048054600181600116156101000203166002900480601f0160208091040260200160405190810160405280929190818152602001828054600181600116156101000203166002900480156111b05780601f10611185576101008083540402835291602001916111b0565b820191906000526020600020905b81548152906001019060200180831161119357829003601f168201915b505050505081565b602060405190810160405280600081525090565b828054600181600116156101000203166002900490600052602060002090601f016020900481019282601f1061120d57805160ff191683800117855561123b565b8280016001018555821561123b579182015b8281111561123a57825182559160200191906001019061121f565b5b5090506112489190611294565b5090565b50805460018160011615610100020316600290046000825580601f106112725750611291565b601f0160209004906000526020600020908101906112909190611294565b5b50565b6112b691905b808211156112b257600081600090555060010161129a565b5090565b905600a165627a7a723058207a7e3dafa29eb96ea1f9aa33e326c559362f481bd7ef82de6d3518f73ea9d9f80029",
  "source": "pragma solidity ^0.4.15;\n\nimport \"./Ledger.sol\";\ncontract Relationship {\n    address public patron;\n    address public provider; // this is a unique address for the provider used only for this relationship\n    string public providerAddr; //encrypted provider address\n    string public providerName; //encrypted provider name\n    string public recordId; //mapping to the record in the provider's system\n    \n    address public ledger; //the ledger contract address\n    \n    mapping(address => bool) isAnonymousViewer;\n    \n    //mapping(string => address) public AnonymousViewerByName;\n\n    mapping(address => bool) public isViewer;\n    mapping(address => string) viewerInfo;\n\n\n    uint256 constant UINT256_MAX = ~uint256(0);\n\n    modifier isPatron() {\n        if(msg.sender != patron) revert();\n        _;\n    }\n\n    modifier FromLedger() {\n        if(msg.sender != ledger) revert();\n        _;\n    }\n\n    function Relationship(address _provider, string _id, address _ledger, uint256 _paymentId) public {\n        patron = msg.sender;\n        provider = _provider;\n        recordId = _id;\n        ledger = _ledger;\n\n        if (_paymentId == 0 ){\n        return;\n        }\n\n        //pay the validator\n        address validator;\n        validator = block.coinbase;\n\n        Ledger ledgerContract = Ledger(ledger);\n        bool result = ledgerContract.addPayment(validator, _paymentId);\n        require(result);\n    }   \n    // need tx fee\n\n/****These functions should be left commented out until a use case for them arises\n  function setPatron(address addr) isPatron {\n    patron = addr;\n  }\n  function setProvider(address addr) isPatron {\n    provider = addr;\n  }\n******************/\n\nfunction setProviderAddress(string addr) public {\n    providerAddr = addr;\n}\n\nfunction setProviderName(string name) public {\n  providerName = name;\n}\n\nfunction payValidator(uint256 _paymentId) public isPatron {\n    if (_paymentId == 0 ){\n        return;\n    }\n\n    //pay the validator\n    address validator;\n    validator = block.coinbase;\n\n    Ledger ledgerContract = Ledger(ledger);\n    bool result = ledgerContract.addPayment(validator, _paymentId);\n    require(result);\n}\n\n// need tx fee\nfunction addAnonymousViewer(address ViewerAddr) public FromLedger {\n    require(!isAnonymousViewer[ViewerAddr]);\n    isAnonymousViewer[ViewerAddr] = true;\n}\n\nfunction addViewer(string name, address viewer, uint256 _paymentId) public isPatron {\n    require(!isViewer[viewer]);\n\n    isViewer[viewer] = true;\n    viewerInfo[viewer] = name;\n\n    payValidator(_paymentId);\n}\n// need tx fee\n\nfunction removeViewer(address viewer, uint256 _paymentId) public isPatron {\n    require(isViewer[viewer]);\n    isViewer[viewer] = false;\n    delete(viewerInfo[viewer]);\n\n    payValidator(_paymentId);\n}\n// need tx fee\n\n// Something is wrong with this part only can get value but cannot add value\n// function getViewerByName(string name) public constant returns(address) {\n//     return viewerByName[name];\n// }\n\nfunction getViewerName(address addr) public constant returns(string) {\n    return viewerInfo[addr];\n}\n\nfunction checkViewer(address addr) public constant returns(bool){\n    return isViewer[addr];\n}\n\nfunction checkAnonymousViewer(address addr) public constant returns(bool){\n    return isAnonymousViewer[addr];\n}\n\nfunction terminate() public {\n    if(msg.sender != patron && msg.sender != provider) revert();\n    selfdestruct(patron);\n}\n}\n",
  "sourcePath": "/Users/zhenliang/Documents/23spring/bcc/truffle/contracts/Relationship.sol",
  "compiler": {
    "name": "solc",
    "version": "0.4.15+commit.bbb8e64f.Emscripten.clang"
  },
  "schemaVersion": "3.4.13",
  "updatedAt": "2023-05-10T19:00:58.154Z",
  "devdoc": {
    "methods": {}
  },
  "userdoc": {
    "methods": {
      "setProviderAddress(string)": {
        "notice": "**These functions should be left commented out until a use case for them arises function setPatron(address addr) isPatron { patron = addr; } function setProvider(address addr) isPatron { provider = addr; }*****************"
      }
    }
  }
}