{
  "contractName": "Relationship",
  "abi": [
    {
      "constant": true,
      "inputs": [],
      "name": "providerName",
      "outputs": [
        {
          "name": "",
          "type": "string"
        }
      ],
      "payable": false,
      "type": "function"
    },
    {
      "constant": true,
      "inputs": [],
      "name": "provider",
      "outputs": [
        {
          "name": "",
          "type": "address"
        }
      ],
      "payable": false,
      "type": "function"
    },
    {
      "constant": true,
      "inputs": [],
      "name": "patron",
      "outputs": [
        {
          "name": "",
          "type": "address"
        }
      ],
      "payable": false,
      "type": "function"
    },
    {
      "constant": true,
      "inputs": [],
      "name": "providerAddr",
      "outputs": [
        {
          "name": "",
          "type": "string"
        }
      ],
      "payable": false,
      "type": "function"
    },
    {
      "constant": true,
      "inputs": [
        {
          "name": "",
          "type": "address"
        }
      ],
      "name": "isViewer",
      "outputs": [
        {
          "name": "",
          "type": "bool"
        }
      ],
      "payable": false,
      "type": "function"
    },
    {
      "constant": true,
      "inputs": [],
      "name": "ledger",
      "outputs": [
        {
          "name": "",
          "type": "address"
        }
      ],
      "payable": false,
      "type": "function"
    },
    {
      "constant": true,
      "inputs": [],
      "name": "recordId",
      "outputs": [
        {
          "name": "",
          "type": "string"
        }
      ],
      "payable": false,
      "type": "function"
    },
    {
      "inputs": [
        {
          "name": "_provider",
          "type": "address"
        },
        {
          "name": "_id",
          "type": "string"
        },
        {
          "name": "_ledger",
          "type": "address"
        },
        {
          "name": "_paymentId",
          "type": "uint256"
        }
      ],
      "payable": false,
      "type": "constructor"
    },
    {
      "constant": false,
      "inputs": [
        {
          "name": "addr",
          "type": "string"
        }
      ],
      "name": "setProviderAddress",
      "outputs": [],
      "payable": false,
      "type": "function"
    },
    {
      "constant": false,
      "inputs": [
        {
          "name": "name",
          "type": "string"
        }
      ],
      "name": "setProviderName",
      "outputs": [],
      "payable": false,
      "type": "function"
    },
    {
      "constant": false,
      "inputs": [
        {
          "name": "_paymentId",
          "type": "uint256"
        }
      ],
      "name": "payValidator",
      "outputs": [],
      "payable": false,
      "type": "function"
    },
    {
      "constant": false,
      "inputs": [
        {
          "name": "_paymentId",
          "type": "uint256"
        }
      ],
      "name": "addViewerGroup",
      "outputs": [],
      "payable": false,
      "type": "function"
    },
    {
      "constant": false,
      "inputs": [
        {
          "name": "viewerGroup",
          "type": "uint256"
        },
        {
          "name": "_paymentId",
          "type": "uint256"
        }
      ],
      "name": "removeViewerGroup",
      "outputs": [],
      "payable": false,
      "type": "function"
    },
    {
      "constant": false,
      "inputs": [
        {
          "name": "ViewerAddr",
          "type": "address"
        }
      ],
      "name": "addAnonymousViewer",
      "outputs": [],
      "payable": false,
      "type": "function"
    },
    {
      "constant": false,
      "inputs": [
        {
          "name": "name",
          "type": "string"
        },
        {
          "name": "viewerGroup",
          "type": "uint256"
        },
        {
          "name": "viewer",
          "type": "address"
        },
        {
          "name": "provAddr",
          "type": "string"
        },
        {
          "name": "_paymentId",
          "type": "uint256"
        }
      ],
      "name": "addViewer",
      "outputs": [],
      "payable": false,
      "type": "function"
    },
    {
      "constant": false,
      "inputs": [
        {
          "name": "viewerGroup",
          "type": "uint256"
        },
        {
          "name": "viewer",
          "type": "address"
        },
        {
          "name": "_paymentId",
          "type": "uint256"
        }
      ],
      "name": "removeViewer",
      "outputs": [],
      "payable": false,
      "type": "function"
    },
    {
      "constant": true,
      "inputs": [],
      "name": "getNumViewerGroups",
      "outputs": [
        {
          "name": "",
          "type": "uint256"
        }
      ],
      "payable": false,
      "type": "function"
    },
    {
      "constant": true,
      "inputs": [
        {
          "name": "group",
          "type": "uint256"
        }
      ],
      "name": "getNumViewers",
      "outputs": [
        {
          "name": "",
          "type": "uint256"
        }
      ],
      "payable": false,
      "type": "function"
    },
    {
      "constant": true,
      "inputs": [
        {
          "name": "group",
          "type": "uint256"
        },
        {
          "name": "index",
          "type": "uint256"
        }
      ],
      "name": "getViewer",
      "outputs": [
        {
          "name": "",
          "type": "address"
        }
      ],
      "payable": false,
      "type": "function"
    },
    {
      "constant": true,
      "inputs": [
        {
          "name": "addr",
          "type": "address"
        }
      ],
      "name": "getViewerName",
      "outputs": [
        {
          "name": "",
          "type": "string"
        }
      ],
      "payable": false,
      "type": "function"
    },
    {
      "constant": true,
      "inputs": [
        {
          "name": "addr",
          "type": "address"
        }
      ],
      "name": "checkAnonymousViewer",
      "outputs": [
        {
          "name": "",
          "type": "bool"
        }
      ],
      "payable": false,
      "type": "function"
    },
    {
      "constant": false,
      "inputs": [],
      "name": "terminate",
      "outputs": [],
      "payable": false,
      "type": "function"
    }
  ],
  "bytecode": "0x606060405234156200001057600080fd5b60405162001f1c38038062001f1c833981016040528080519060200190919080518201919060200180519060200190919080519060200190919050505b6000806000336000806101000a81548173ffffffffffffffffffffffffffffffffffffffff021916908373ffffffffffffffffffffffffffffffffffffffff16021790555086600160006101000a81548173ffffffffffffffffffffffffffffffffffffffff021916908373ffffffffffffffffffffffffffffffffffffffff1602179055508560049080519060200190620000eb9291906200024a565b5084600560006101000a81548173ffffffffffffffffffffffffffffffffffffffff021916908373ffffffffffffffffffffffffffffffffffffffff16021790555060008414156200013d576200023d565b419250600560009054906101000a900473ffffffffffffffffffffffffffffffffffffffff1691508173ffffffffffffffffffffffffffffffffffffffff166385bac23784866000604051602001526040518363ffffffff167c0100000000000000000000000000000000000000000000000000000000028152600401808373ffffffffffffffffffffffffffffffffffffffff1673ffffffffffffffffffffffffffffffffffffffff16815260200182815260200192505050602060405180830381600087803b15156200021157600080fd5b6102c65a03f115156200022357600080fd5b5050506040518051905090508015156200023c57600080fd5b5b50505050505050620002f9565b828054600181600116156101000203166002900490600052602060002090601f016020900481019282601f106200028d57805160ff1916838001178555620002be565b82800160010185558215620002be579182015b82811115620002bd578251825591602001919060010190620002a0565b5b509050620002cd9190620002d1565b5090565b620002f691905b80821115620002f2576000816000905550600101620002d8565b5090565b90565b611c1380620003096000396000f3006060604052361561011a576000357c0100000000000000000000000000000000000000000000000000000000900463ffffffff168062dad7d41461011f578063085d4883146101ae5780630ba32b27146102035780630ba46c92146102585780630c08bf88146102845780630de91ac814610299578063231505bd146102bc5780632a7a832d1461034b5780632bba6fb7146103825780632f286c12146103d35780632f35de611461040c578063322eb71d146104355780633d2c8861146104e85780633e92d5dd14610545578063444ee9021461061657806356397c35146106735780637e26ea63146106c857806384c9bb9814610734578063bdf65f2014610757578063d5a6e46c146107a2578063f7dfe22b146107f3575b600080fd5b341561012a57600080fd5b610132610882565b6040518080602001828103825283818151815260200191508051906020019080838360005b838110156101735780820151818401525b602081019050610157565b50505050905090810190601f1680156101a05780820380516001836020036101000a031916815260200191505b509250505060405180910390f35b34156101b957600080fd5b6101c1610920565b604051808273ffffffffffffffffffffffffffffffffffffffff1673ffffffffffffffffffffffffffffffffffffffff16815260200191505060405180910390f35b341561020e57600080fd5b610216610946565b604051808273ffffffffffffffffffffffffffffffffffffffff1673ffffffffffffffffffffffffffffffffffffffff16815260200191505060405180910390f35b341561026357600080fd5b610282600480803590602001909190803590602001909190505061096b565b005b341561028f57600080fd5b610297610b81565b005b34156102a457600080fd5b6102ba6004808035906020019091905050610c72565b005b34156102c757600080fd5b6102cf610cf4565b6040518080602001828103825283818151815260200191508051906020019080838360005b838110156103105780820151818401525b6020810190506102f4565b50505050905090810190601f16801561033d5780820380516001836020036101000a031916815260200191505b509250505060405180910390f35b341561035657600080fd5b61036c6004808035906020019091905050610d92565b6040518082815260200191505060405180910390f35b341561038d57600080fd5b6103b9600480803573ffffffffffffffffffffffffffffffffffffffff16906020019091905050610dbe565b604051808215151515815260200191505060405180910390f35b34156103de57600080fd5b61040a600480803573ffffffffffffffffffffffffffffffffffffffff16906020019091905050610dde565b005b341561041757600080fd5b61041f610ef0565b6040518082815260200191505060405180910390f35b341561044057600080fd5b61046c600480803573ffffffffffffffffffffffffffffffffffffffff16906020019091905050610efe565b6040518080602001828103825283818151815260200191508051906020019080838360005b838110156104ad5780820151818401525b602081019050610491565b50505050905090810190601f1680156104da5780820380516001836020036101000a031916815260200191505b509250505060405180910390f35b34156104f357600080fd5b610543600480803590602001908201803590602001908080601f01602080910402602001604051908101604052809392919081815260200183838082843782019150505050505091905050610fe9565b005b341561055057600080fd5b610614600480803590602001908201803590602001908080601f0160208091040260200160405190810160405280939291908181526020018383808284378201915050505050509190803590602001909190803573ffffffffffffffffffffffffffffffffffffffff1690602001909190803590602001908201803590602001908080601f01602080910402602001604051908101604052809392919081815260200183838082843782019150505050505091908035906020019091905050611004565b005b341561062157600080fd5b610671600480803590602001908201803590602001908080601f01602080910402602001604051908101604052809392919081815260200183838082843782019150505050505091905050611233565b005b341561067e57600080fd5b61068661124e565b604051808273ffffffffffffffffffffffffffffffffffffffff1673ffffffffffffffffffffffffffffffffffffffff16815260200191505060405180910390f35b34156106d357600080fd5b6106f26004808035906020019091908035906020019091905050611274565b604051808273ffffffffffffffffffffffffffffffffffffffff1673ffffffffffffffffffffffffffffffffffffffff16815260200191505060405180910390f35b341561073f57600080fd5b61075560048080359060200190919050506112d7565b005b341561076257600080fd5b6107a0600480803590602001909190803573ffffffffffffffffffffffffffffffffffffffff16906020019091908035906020019091905050611449565b005b34156107ad57600080fd5b6107d9600480803573ffffffffffffffffffffffffffffffffffffffff1690602001909190505061180a565b604051808215151515815260200191505060405180910390f35b34156107fe57600080fd5b610806611861565b6040518080602001828103825283818151815260200191508051906020019080838360005b838110156108475780820151818401525b60208101905061082b565b50505050905090810190601f1680156108745780820380516001836020036101000a031916815260200191505b509250505060405180910390f35b60038054600181600116156101000203166002900480601f0160208091040260200160405190810160405280929190818152602001828054600181600116156101000203166002900480156109185780601f106108ed57610100808354040283529160200191610918565b820191906000526020600020905b8154815290600101906020018083116108fb57829003601f168201915b505050505081565b600160009054906101000a900473ffffffffffffffffffffffffffffffffffffffff1681565b6000809054906101000a900473ffffffffffffffffffffffffffffffffffffffff1681565b60008060008060009054906101000a900473ffffffffffffffffffffffffffffffffffffffff1673ffffffffffffffffffffffffffffffffffffffff163373ffffffffffffffffffffffffffffffffffffffff161415156109cb57600080fd5b6006858154811015156109da57fe5b906000526020600020900160005b50805490509250600091505b82821015610ab957600060086000600688815481101515610a1157fe5b906000526020600020900160005b5085815481101515610a2d57fe5b906000526020600020900160005b9054906101000a900473ffffffffffffffffffffffffffffffffffffffff1673ffffffffffffffffffffffffffffffffffffffff1673ffffffffffffffffffffffffffffffffffffffff16815260200190815260200160002060006101000a81548160ff0219169083151502179055505b81806001019250506109f4565b60068054905090506001850191505b80821015610b2c57600682815481101515610adf57fe5b906000526020600020900160005b50600660018403815481101515610b0057fe5b906000526020600020900160005b50908054610b1d9291906118ff565b505b8180600101925050610ac8565b600660018203815481101515610b3e57fe5b906000526020600020900160005b610b569190611951565b6001600681818054905003915081610b6e9190611973565b50610b78846112d7565b5b5b5050505050565b6000809054906101000a900473ffffffffffffffffffffffffffffffffffffffff1673ffffffffffffffffffffffffffffffffffffffff163373ffffffffffffffffffffffffffffffffffffffff1614158015610c2c5750600160009054906101000a900473ffffffffffffffffffffffffffffffffffffffff1673ffffffffffffffffffffffffffffffffffffffff163373ffffffffffffffffffffffffffffffffffffffff1614155b15610c3657600080fd5b6000809054906101000a900473ffffffffffffffffffffffffffffffffffffffff1673ffffffffffffffffffffffffffffffffffffffff16ff5b565b6000809054906101000a900473ffffffffffffffffffffffffffffffffffffffff1673ffffffffffffffffffffffffffffffffffffffff163373ffffffffffffffffffffffffffffffffffffffff16141515610ccd57600080fd5b6001600681818054905001915081610ce59190611973565b50610cef816112d7565b5b5b50565b60028054600181600116156101000203166002900480601f016020809104026020016040519081016040528092919081815260200182805460018160011615610100020316600290048015610d8a5780601f10610d5f57610100808354040283529160200191610d8a565b820191906000526020600020905b815481529060010190602001808311610d6d57829003601f168201915b505050505081565b6000600682815481101515610da357fe5b906000526020600020900160005b508054905090505b919050565b60086020528060005260406000206000915054906101000a900460ff1681565b600560009054906101000a900473ffffffffffffffffffffffffffffffffffffffff1673ffffffffffffffffffffffffffffffffffffffff163373ffffffffffffffffffffffffffffffffffffffff16141515610e3a57600080fd5b600760008273ffffffffffffffffffffffffffffffffffffffff1673ffffffffffffffffffffffffffffffffffffffff16815260200190815260200160002060009054906101000a900460ff16151515610e9357600080fd5b6001600760008373ffffffffffffffffffffffffffffffffffffffff1673ffffffffffffffffffffffffffffffffffffffff16815260200190815260200160002060006101000a81548160ff0219169083151502179055505b5b50565b600060068054905090505b90565b610f0661199f565b600960008373ffffffffffffffffffffffffffffffffffffffff1673ffffffffffffffffffffffffffffffffffffffff1681526020019081526020016000206000018054600181600116156101000203166002900480601f016020809104026020016040519081016040528092919081815260200182805460018160011615610100020316600290048015610fdc5780601f10610fb157610100808354040283529160200191610fdc565b820191906000526020600020905b815481529060010190602001808311610fbf57829003601f168201915b505050505090505b919050565b8060029080519060200190610fff9291906119b3565b505b50565b6000809054906101000a900473ffffffffffffffffffffffffffffffffffffffff1673ffffffffffffffffffffffffffffffffffffffff163373ffffffffffffffffffffffffffffffffffffffff1614151561105f57600080fd5b600860008473ffffffffffffffffffffffffffffffffffffffff1673ffffffffffffffffffffffffffffffffffffffff16815260200190815260200160002060009054906101000a900460ff161515156110b857600080fd5b6001600860008573ffffffffffffffffffffffffffffffffffffffff1673ffffffffffffffffffffffffffffffffffffffff16815260200190815260200160002060006101000a81548160ff02191690831515021790555060068481548110151561111f57fe5b906000526020600020900160005b5080548060010182816111409190611a33565b916000526020600020900160005b85909190916101000a81548173ffffffffffffffffffffffffffffffffffffffff021916908373ffffffffffffffffffffffffffffffffffffffff16021790555050604080519081016040528086815260200183815250600960008573ffffffffffffffffffffffffffffffffffffffff1673ffffffffffffffffffffffffffffffffffffffff1681526020019081526020016000206000820151816000019080519060200190611200929190611a5f565b50602082015181600101908051906020019061121d929190611a5f565b5090505061122a816112d7565b5b5b5050505050565b80600390805190602001906112499291906119b3565b505b50565b600560009054906101000a900473ffffffffffffffffffffffffffffffffffffffff1681565b600060068381548110151561128557fe5b906000526020600020900160005b50828154811015156112a157fe5b906000526020600020900160005b9054906101000a900473ffffffffffffffffffffffffffffffffffffffff1690505b92915050565b60008060008060009054906101000a900473ffffffffffffffffffffffffffffffffffffffff1673ffffffffffffffffffffffffffffffffffffffff163373ffffffffffffffffffffffffffffffffffffffff1614151561133757600080fd5b600084141561134557611442565b419250600560009054906101000a900473ffffffffffffffffffffffffffffffffffffffff1691508173ffffffffffffffffffffffffffffffffffffffff166385bac23784866000604051602001526040518363ffffffff167c0100000000000000000000000000000000000000000000000000000000028152600401808373ffffffffffffffffffffffffffffffffffffffff1673ffffffffffffffffffffffffffffffffffffffff16815260200182815260200192505050602060405180830381600087803b151561141857600080fd5b6102c65a03f1151561142957600080fd5b50505060405180519050905080151561144157600080fd5b5b5b50505050565b60008060008060009054906101000a900473ffffffffffffffffffffffffffffffffffffffff1673ffffffffffffffffffffffffffffffffffffffff163373ffffffffffffffffffffffffffffffffffffffff161415156114a957600080fd5b600860008673ffffffffffffffffffffffffffffffffffffffff1673ffffffffffffffffffffffffffffffffffffffff16815260200190815260200160002060009054906101000a900460ff16151561150157600080fd5b6000600860008773ffffffffffffffffffffffffffffffffffffffff1673ffffffffffffffffffffffffffffffffffffffff16815260200190815260200160002060006101000a81548160ff02191690831515021790555060068681548110151561156857fe5b906000526020600020900160005b5080549050925060009150600090505b82811015611703578115611665576006868154811015156115a357fe5b906000526020600020900160005b50818154811015156115bf57fe5b906000526020600020900160005b9054906101000a900473ffffffffffffffffffffffffffffffffffffffff166006878154811015156115fb57fe5b906000526020600020900160005b506001830381548110151561161a57fe5b906000526020600020900160005b6101000a81548173ffffffffffffffffffffffffffffffffffffffff021916908373ffffffffffffffffffffffffffffffffffffffff1602179055505b8473ffffffffffffffffffffffffffffffffffffffff1660068781548110151561168b57fe5b906000526020600020900160005b50828154811015156116a757fe5b906000526020600020900160005b9054906101000a900473ffffffffffffffffffffffffffffffffffffffff1673ffffffffffffffffffffffffffffffffffffffff1614156116f557600191505b5b8080600101915050611586565b60068681548110151561171257fe5b906000526020600020900160005b506001840381548110151561173157fe5b906000526020600020900160005b6101000a81549073ffffffffffffffffffffffffffffffffffffffff0219169055600160068781548110151561177157fe5b906000526020600020900160005b50818180549050039150816117949190611adf565b50600960008673ffffffffffffffffffffffffffffffffffffffff1673ffffffffffffffffffffffffffffffffffffffff168152602001908152602001600020600080820160006117e59190611b0b565b6001820160006117f59190611b0b565b5050611800846112d7565b5b5b505050505050565b6000600760008373ffffffffffffffffffffffffffffffffffffffff1673ffffffffffffffffffffffffffffffffffffffff16815260200190815260200160002060009054906101000a900460ff1690505b919050565b60048054600181600116156101000203166002900480601f0160208091040260200160405190810160405280929190818152602001828054600181600116156101000203166002900480156118f75780601f106118cc576101008083540402835291602001916118f7565b820191906000526020600020905b8154815290600101906020018083116118da57829003601f168201915b505050505081565b8280548282559060005260206000209081019282156119405760005260206000209182015b8281111561193f578254825591600101919060010190611924565b5b50905061194d9190611b53565b5090565b508054600082559060005260206000209081019061196f9190611b96565b5b50565b81548183558181151161199a578183600052602060002091820191016119999190611bbb565b5b505050565b602060405190810160405280600081525090565b828054600181600116156101000203166002900490600052602060002090601f016020900481019282601f106119f457805160ff1916838001178555611a22565b82800160010185558215611a22579182015b82811115611a21578251825591602001919060010190611a06565b5b509050611a2f9190611b96565b5090565b815481835581811511611a5a57818360005260206000209182019101611a599190611b96565b5b505050565b828054600181600116156101000203166002900490600052602060002090601f016020900481019282601f10611aa057805160ff1916838001178555611ace565b82800160010185558215611ace579182015b82811115611acd578251825591602001919060010190611ab2565b5b509050611adb9190611b96565b5090565b815481835581811511611b0657818360005260206000209182019101611b059190611b96565b5b505050565b50805460018160011615610100020316600290046000825580601f10611b315750611b50565b601f016020900490600052602060002090810190611b4f9190611b96565b5b50565b611b9391905b80821115611b8f57600081816101000a81549073ffffffffffffffffffffffffffffffffffffffff021916905550600101611b59565b5090565b90565b611bb891905b80821115611bb4576000816000905550600101611b9c565b5090565b90565b611be491905b80821115611be05760008181611bd79190611951565b50600101611bc1565b5090565b905600a165627a7a7230582017ec3e9203f4da1bea190b5cfc644ada864b830042a32c6d1b2d85e5d698b5ec0029",
  "source": "pragma solidity ^0.4.15;\n\nimport \"./Ledger.sol\";\ncontract Relationship {\n    address public patron;\n    address public provider; // this is a unique address for the provider used only for this relationship\n    string public providerAddr; //encrypted provider address\n    string public providerName; //encrypted provider name\n    string public recordId; //mapping to the record in the provider's system\n    \n    address public ledger; //the ledger contract address\n\n    struct Viewer {\n        string name;\n        string providerAddr; //the real provider address encypted so only the viewer can read\n    }\n\n    address[][] viewerGroups;\n    \n    mapping(address => bool) isAnonymousViewer;\n    \n    //mapping(string => address) public AnonymousViewerByName;\n\n    mapping(address => bool) public isViewer;\n    mapping(address => Viewer) viewerInfo;\n    //mapping(string => address) viewerByName;\n\n    uint256 constant UINT256_MAX = ~uint256(0);\n\n    modifier isPatron() {\n        if(msg.sender != patron) revert();\n        _;\n    }\n\n    modifier FromLedger() {\n        if(msg.sender != ledger) revert();\n        _;\n    }\n\n    function Relationship(address _provider, string _id, address _ledger, uint256 _paymentId) public {\n        patron = msg.sender;\n        provider = _provider;\n        recordId = _id;\n        ledger = _ledger;\n\n        if (_paymentId == 0 ){\n        return;\n        }\n\n        //pay the validator\n        address validator;\n        validator = block.coinbase;\n\n        Ledger ledgerContract = Ledger(ledger);\n        bool result = ledgerContract.addPayment(validator, _paymentId);\n        require(result);\n    }   \n    // need tx fee\n\n/****These functions should be left commented out until a use case for them arises\n  function setPatron(address addr) isPatron {\n    patron = addr;\n  }\n  function setProvider(address addr) isPatron {\n    provider = addr;\n  }\n******************/\n\nfunction setProviderAddress(string addr) public {\n    providerAddr = addr;\n}\n\nfunction setProviderName(string name) public {\n  providerName = name;\n}\n\nfunction payValidator(uint256 _paymentId) public isPatron {\n    if (_paymentId == 0 ){\n        return;\n    }\n\n    //pay the validator\n    address validator;\n    validator = block.coinbase;\n\n    Ledger ledgerContract = Ledger(ledger);\n    bool result = ledgerContract.addPayment(validator, _paymentId);\n    require(result);\n}\n\nfunction addViewerGroup(uint256 _paymentId) public isPatron {\n    viewerGroups.length += 1;\n    \n    payValidator(_paymentId);\n}\n// need tx fee\n\nfunction removeViewerGroup(uint viewerGroup, uint256 _paymentId) public isPatron {\n    uint numViewers = viewerGroups[viewerGroup].length;\n    uint i;\n    for(i = 0; i < numViewers; i++) {\n        isViewer[viewerGroups[viewerGroup][i]] = false;\n    }\n\n    uint numGroups = viewerGroups.length;\n    for(i = viewerGroup+1; i < numGroups; i++) {\n        viewerGroups[i - 1] = viewerGroups[i];\n    }\n    delete(viewerGroups[numGroups-1]);\n    viewerGroups.length -= 1;\n\n    payValidator(_paymentId);\n}\n// need tx fee\nfunction addAnonymousViewer(address ViewerAddr) public FromLedger {\n    require(!isAnonymousViewer[ViewerAddr]);\n    isAnonymousViewer[ViewerAddr] = true;\n}\n\nfunction addViewer(string name, uint viewerGroup, address viewer, string provAddr, uint256 _paymentId) public isPatron {\n    require(!isViewer[viewer]);\n\n    isViewer[viewer] = true;\n    viewerGroups[viewerGroup].push(viewer);\n    viewerInfo[viewer] = Viewer(name, provAddr);\n\n    payValidator(_paymentId);\n}\n// need tx fee\n\nfunction removeViewer(uint viewerGroup, address viewer, uint256 _paymentId) public isPatron {\n    require(isViewer[viewer]);\n\n    isViewer[viewer] = false;\n    uint numViewers = viewerGroups[viewerGroup].length;\n    bool overwrite = false;\n    for(uint i = 0; i < numViewers; i++) {\n        if(overwrite) {\n            viewerGroups[viewerGroup][i - 1] = viewerGroups[viewerGroup][i];\n        }\n        if(viewerGroups[viewerGroup][i] == viewer) {\n            overwrite = true;\n        }\n    }\n    delete(viewerGroups[viewerGroup][numViewers-1]);\n    viewerGroups[viewerGroup].length -= 1;\n    delete(viewerInfo[viewer]);\n\n    payValidator(_paymentId);\n}\n// need tx fee\n\nfunction getNumViewerGroups() public constant returns(uint) {\n    return viewerGroups.length;\n}\n\nfunction getNumViewers(uint group) public constant returns(uint) {\n    return viewerGroups[group].length;\n}\n\nfunction getViewer(uint group, uint index) public constant returns(address) {\n  return viewerGroups[group][index];\n}\n\n// Something is wrong with this part only can get value but cannot add value\n// function getViewerByName(string name) public constant returns(address) {\n//     return viewerByName[name];\n// }\n\nfunction getViewerName(address addr) public constant returns(string) {\n    return viewerInfo[addr].name;\n}\n\n\nfunction checkAnonymousViewer(address addr) public constant returns(bool){\n    return isAnonymousViewer[addr];\n}\n\nfunction terminate() public {\n    if(msg.sender != patron && msg.sender != provider) revert();\n    selfdestruct(patron);\n}\n}\n",
  "sourcePath": "/Users/zhenliang/Documents/23spring/bcc/truffle/contracts/Relationship.sol",
  "compiler": {
    "name": "solc",
    "version": "0.4.15+commit.bbb8e64f.Emscripten.clang"
  },
  "schemaVersion": "3.4.13",
  "updatedAt": "2023-05-10T04:09:30.971Z",
  "devdoc": {
    "methods": {}
  },
  "userdoc": {
    "methods": {
      "setProviderAddress(string)": {
        "notice": "**These functions should be left commented out until a use case for them arises function setPatron(address addr) isPatron { patron = addr; } function setProvider(address addr) isPatron { provider = addr; }*****************"
      }
    }
  }
}